{
  "address": "0x0B2C81CCC36ddf72B70B0f3BF1bF451193982c2B",
  "abi": [
    {
      "inputs": [
        {
          "internalType": "address",
          "name": "token_",
          "type": "address"
        },
        {
          "internalType": "bytes32",
          "name": "merkleRoot_",
          "type": "bytes32"
        },
        {
          "internalType": "uint256",
          "name": "dropAmount_",
          "type": "uint256"
        }
      ],
      "stateMutability": "nonpayable",
      "type": "constructor"
    },
    {
      "anonymous": false,
      "inputs": [
        {
          "indexed": true,
          "internalType": "address",
          "name": "user",
          "type": "address"
        }
      ],
      "name": "Claimed",
      "type": "event"
    },
    {
      "inputs": [
        {
          "internalType": "bytes32[]",
          "name": "merkleProof",
          "type": "bytes32[]"
        }
      ],
      "name": "claim",
      "outputs": [],
      "stateMutability": "nonpayable",
      "type": "function"
    },
    {
      "inputs": [],
      "name": "dropAmount",
      "outputs": [
        {
          "internalType": "uint256",
          "name": "",
          "type": "uint256"
        }
      ],
      "stateMutability": "view",
      "type": "function"
    },
    {
      "inputs": [
        {
          "internalType": "address",
          "name": "",
          "type": "address"
        }
      ],
      "name": "isClaimed",
      "outputs": [
        {
          "internalType": "bool",
          "name": "",
          "type": "bool"
        }
      ],
      "stateMutability": "view",
      "type": "function"
    },
    {
      "inputs": [],
      "name": "merkleRoot",
      "outputs": [
        {
          "internalType": "bytes32",
          "name": "",
          "type": "bytes32"
        }
      ],
      "stateMutability": "view",
      "type": "function"
    },
    {
      "inputs": [],
      "name": "token",
      "outputs": [
        {
          "internalType": "address",
          "name": "",
          "type": "address"
        }
      ],
      "stateMutability": "view",
      "type": "function"
    }
  ],
  "transactionHash": "0xe605c3c9f0b8a8d46805cd6f00c2c1d1d506fb2ff2894eadefdd888c64fd6eb7",
  "args": [
    "0x199478425dBe9eD7f48A189bA1Ea68bD1c2061a2",
    "0x0b934cc75f95f19a19c4d48db5219d88711e1514a5fdd95a0158419dd14b459d",
    "5000000000000000000000"
  ],
  "numDeployments": 1,
  "solcInputHash": "f8525ec687ca29001b0ace9d4d753876",
  "bytecode": "0x60e060405234801561001057600080fd5b5060405161092f38038061092f83398101604081905261002f916100a2565b6001600160a01b0383166100895760405162461bcd60e51b815260206004820152601d60248201527f436c61794469737472696275746f723a205a45524f5f41444452455353000000604482015260640160405180910390fd5b6001600160a01b0390921660805260a05260c0526100e5565b6000806000606084860312156100b757600080fd5b83516001600160a01b03811681146100ce57600080fd5b602085015160409095015190969495509392505050565b60805160a05160c05161080861012760003960008181606101526102bd015260008181609b015261020a01526000818161010a015261029201526108086000f3fe608060405234801561001057600080fd5b50600436106100575760003560e01c806305748be21461005c5780632eb4a7ab146100965780638cc08025146100bd578063b391c508146100f0578063fc0c546a14610105575b600080fd5b6100837f000000000000000000000000000000000000000000000000000000000000000081565b6040519081526020015b60405180910390f35b6100837f000000000000000000000000000000000000000000000000000000000000000081565b6100e06100cb366004610662565b60006020819052908152604090205460ff1681565b604051901515815260200161008d565b6101036100fe36600461068b565b610144565b005b61012c7f000000000000000000000000000000000000000000000000000000000000000081565b6040516001600160a01b03909116815260200161008d565b3360009081526020819052604090205460ff161561019c5760405162461bcd60e51b815260206004820152601060248201526f416c726561647920436c61696d65642160801b60448201526064015b60405180910390fd5b6040516bffffffffffffffffffffffff193360601b1660208201526000906034016040516020818303038152906040528051906020012090506102358383808060200260200160405190810160405280939291908181526020018383602002808284376000920191909152507f000000000000000000000000000000000000000000000000000000000000000092508591506103119050565b6102725760405162461bcd60e51b815260206004820152600e60248201526d496e76616c69642050726f6f662160901b6044820152606401610193565b336000818152602081905260409020805460ff191660011790556102e1907f00000000000000000000000000000000000000000000000000000000000000006001600160a01b0316907f0000000000000000000000000000000000000000000000000000000000000000610327565b60405133907fb449c24d261a59627b537c8c41c57ab559f4205c56bea745ff61c5521bece21490600090a2505050565b60008261031e858461037e565b14949350505050565b604080516001600160a01b038416602482015260448082018490528251808303909101815260649091019091526020810180516001600160e01b031663a9059cbb60e01b1790526103799084906103cb565b505050565b600081815b84518110156103c3576103af828683815181106103a2576103a2610700565b60200260200101516104a0565b9150806103bb81610716565b915050610383565b509392505050565b6000610420826040518060400160405280602081526020017f5361666545524332303a206c6f772d6c6576656c2063616c6c206661696c6564815250856001600160a01b03166104d29092919063ffffffff16565b9050805160001480610441575080806020019051810190610441919061073d565b6103795760405162461bcd60e51b815260206004820152602a60248201527f5361666545524332303a204552433230206f7065726174696f6e20646964206e6044820152691bdd081cdd58d8d9595960b21b6064820152608401610193565b60008183106104bc5760008281526020849052604090206104cb565b60008381526020839052604090205b9392505050565b60606104e184846000856104e9565b949350505050565b60608247101561054a5760405162461bcd60e51b815260206004820152602660248201527f416464726573733a20696e73756666696369656e742062616c616e636520666f6044820152651c8818d85b1b60d21b6064820152608401610193565b600080866001600160a01b031685876040516105669190610783565b60006040518083038185875af1925050503d80600081146105a3576040519150601f19603f3d011682016040523d82523d6000602084013e6105a8565b606091505b50915091506105b9878383876105c4565b979650505050505050565b6060831561063357825160000361062c576001600160a01b0385163b61062c5760405162461bcd60e51b815260206004820152601d60248201527f416464726573733a2063616c6c20746f206e6f6e2d636f6e74726163740000006044820152606401610193565b50816104e1565b6104e183838151156106485781518083602001fd5b8060405162461bcd60e51b8152600401610193919061079f565b60006020828403121561067457600080fd5b81356001600160a01b03811681146104cb57600080fd5b6000806020838503121561069e57600080fd5b823567ffffffffffffffff808211156106b657600080fd5b818501915085601f8301126106ca57600080fd5b8135818111156106d957600080fd5b8660208260051b85010111156106ee57600080fd5b60209290920196919550909350505050565b634e487b7160e01b600052603260045260246000fd5b60006001820161073657634e487b7160e01b600052601160045260246000fd5b5060010190565b60006020828403121561074f57600080fd5b815180151581146104cb57600080fd5b60005b8381101561077a578181015183820152602001610762565b50506000910152565b6000825161079581846020870161075f565b9190910192915050565b60208152600082518060208401526107be81604085016020870161075f565b601f01601f1916919091016040019291505056fea2646970667358221220f2404c45cb90a0b4d835fe54ca5b246509da345f0b3ed49ab75985a8d09a037364736f6c63430008100033",
  "devdoc": {
    "kind": "dev",
    "methods": {},
    "version": 1
  },
  "userdoc": {
    "kind": "user",
    "methods": {},
    "version": 1
  },
  "storageLayout": {
    "storage": [
      {
        "astId": 5217,
        "contract": "contracts/ClayDistributor.sol:ClayDistributor",
        "label": "isClaimed",
        "offset": 0,
        "slot": "0",
        "type": "t_mapping(t_address,t_bool)"
      }
    ],
    "types": {
      "t_address": {
        "encoding": "inplace",
        "label": "address",
        "numberOfBytes": "20"
      },
      "t_bool": {
        "encoding": "inplace",
        "label": "bool",
        "numberOfBytes": "1"
      },
      "t_mapping(t_address,t_bool)": {
        "encoding": "mapping",
        "key": "t_address",
        "label": "mapping(address => bool)",
        "numberOfBytes": "32",
        "value": "t_bool"
      }
    }
  }
}