{
  "address": "0x7f6b12935ef05449b1342Ea8103bca50DAfCc73C",
  "abi": [
    {
      "inputs": [
        {
          "internalType": "address",
          "name": "token_",
          "type": "address"
        },
        {
          "internalType": "bytes32",
          "name": "merkleRoot_",
          "type": "bytes32"
        },
        {
          "internalType": "uint256",
          "name": "dropAmount_",
          "type": "uint256"
        }
      ],
      "stateMutability": "nonpayable",
      "type": "constructor"
    },
    {
      "anonymous": false,
      "inputs": [
        {
          "indexed": true,
          "internalType": "address",
          "name": "user",
          "type": "address"
        }
      ],
      "name": "Claimed",
      "type": "event"
    },
    {
      "inputs": [
        {
          "internalType": "bytes32[]",
          "name": "merkleProof",
          "type": "bytes32[]"
        }
      ],
      "name": "checkProof",
      "outputs": [
        {
          "internalType": "bool",
          "name": "",
          "type": "bool"
        }
      ],
      "stateMutability": "view",
      "type": "function"
    },
    {
      "inputs": [
        {
          "internalType": "bytes32[]",
          "name": "merkleProof",
          "type": "bytes32[]"
        }
      ],
      "name": "claim",
      "outputs": [],
      "stateMutability": "nonpayable",
      "type": "function"
    },
    {
      "inputs": [],
      "name": "dropAmount",
      "outputs": [
        {
          "internalType": "uint256",
          "name": "",
          "type": "uint256"
        }
      ],
      "stateMutability": "view",
      "type": "function"
    },
    {
      "inputs": [
        {
          "internalType": "address",
          "name": "",
          "type": "address"
        }
      ],
      "name": "isClaimed",
      "outputs": [
        {
          "internalType": "bool",
          "name": "",
          "type": "bool"
        }
      ],
      "stateMutability": "view",
      "type": "function"
    },
    {
      "inputs": [],
      "name": "merkleRoot",
      "outputs": [
        {
          "internalType": "bytes32",
          "name": "",
          "type": "bytes32"
        }
      ],
      "stateMutability": "view",
      "type": "function"
    },
    {
      "inputs": [],
      "name": "token",
      "outputs": [
        {
          "internalType": "address",
          "name": "",
          "type": "address"
        }
      ],
      "stateMutability": "view",
      "type": "function"
    }
  ],
  "transactionHash": "0x3c61710a5c719ef1de4951ddaf20322b1a12eedece3d45e5b9c53db02b82d5ea",
  "args": [
    "0xBC07B65ac883155c85a588F0c0622609DfD847b9",
    "0x919d7fd06f2331148ded06a841e821626e65b7d3863bca4e8c25877e12540650",
    "100000000000000000000"
  ],
  "numDeployments": 1,
  "solcInputHash": "b9dbd7e58bbb9b9aa58e3e21d17c678d",
  "bytecode": "0x60e060405234801561001057600080fd5b5060405161098a38038061098a83398101604081905261002f91610048565b6001600160a01b0390921660805260a05260c05261008b565b60008060006060848603121561005d57600080fd5b83516001600160a01b038116811461007457600080fd5b602085015160409095015190969495509392505050565b60805160a05160c0516108b66100d460003960008181606c015261038101526000818160c9015281816101d401526102ce015260008181610128015261035601526108b66000f3fe608060405234801561001057600080fd5b50600436106100625760003560e01c806305748be21461006757806316ddcd19146100a15780632eb4a7ab146100c45780638cc08025146100eb578063b391c5081461010e578063fc0c546a14610123575b600080fd5b61008e7f000000000000000000000000000000000000000000000000000000000000000081565b6040519081526020015b60405180910390f35b6100b46100af366004610710565b610162565b6040519015158152602001610098565b61008e7f000000000000000000000000000000000000000000000000000000000000000081565b6100b46100f9366004610785565b60006020819052908152604090205460ff1681565b61012161011c366004610710565b610208565b005b61014a7f000000000000000000000000000000000000000000000000000000000000000081565b6040516001600160a01b039091168152602001610098565b6040516bffffffffffffffffffffffff193360601b166020820152600090819060340160405160208183030381529060405280519060200120905060006101ff8585808060200260200160405190810160405280939291908181526020018383602002808284376000920191909152507f000000000000000000000000000000000000000000000000000000000000000092508691506103d59050565b95945050505050565b3360009081526020819052604090205460ff16156102605760405162461bcd60e51b815260206004820152601060248201526f416c726561647920436c61696d65642160801b60448201526064015b60405180910390fd5b6040516bffffffffffffffffffffffff193360601b1660208201526000906034016040516020818303038152906040528051906020012090506102f98383808060200260200160405190810160405280939291908181526020018383602002808284376000920191909152507f000000000000000000000000000000000000000000000000000000000000000092508591506103d59050565b6103365760405162461bcd60e51b815260206004820152600e60248201526d496e76616c69642050726f6f662160901b6044820152606401610257565b336000818152602081905260409020805460ff191660011790556103a5907f00000000000000000000000000000000000000000000000000000000000000006001600160a01b0316907f00000000000000000000000000000000000000000000000000000000000000006103ed565b60405133907fb449c24d261a59627b537c8c41c57ab559f4205c56bea745ff61c5521bece21490600090a2505050565b6000826103e28584610444565b1490505b9392505050565b604080516001600160a01b038416602482015260448082018490528251808303909101815260649091019091526020810180516001600160e01b031663a9059cbb60e01b17905261043f908490610491565b505050565b600081815b84518110156104895761047582868381518110610468576104686107ae565b6020026020010151610563565b915080610481816107c4565b915050610449565b509392505050565b60006104e6826040518060400160405280602081526020017f5361666545524332303a206c6f772d6c6576656c2063616c6c206661696c6564815250856001600160a01b031661058f9092919063ffffffff16565b80519091501561043f578080602001905181019061050491906107eb565b61043f5760405162461bcd60e51b815260206004820152602a60248201527f5361666545524332303a204552433230206f7065726174696f6e20646964206e6044820152691bdd081cdd58d8d9595960b21b6064820152608401610257565b600081831061057f5760008281526020849052604090206103e6565b5060009182526020526040902090565b606061059e84846000856105a6565b949350505050565b6060824710156106075760405162461bcd60e51b815260206004820152602660248201527f416464726573733a20696e73756666696369656e742062616c616e636520666f6044820152651c8818d85b1b60d21b6064820152608401610257565b6001600160a01b0385163b61065e5760405162461bcd60e51b815260206004820152601d60248201527f416464726573733a2063616c6c20746f206e6f6e2d636f6e74726163740000006044820152606401610257565b600080866001600160a01b0316858760405161067a9190610831565b60006040518083038185875af1925050503d80600081146106b7576040519150601f19603f3d011682016040523d82523d6000602084013e6106bc565b606091505b50915091506106cc8282866106d7565b979650505050505050565b606083156106e65750816103e6565b8251156106f65782518084602001fd5b8160405162461bcd60e51b8152600401610257919061084d565b6000806020838503121561072357600080fd5b823567ffffffffffffffff8082111561073b57600080fd5b818501915085601f83011261074f57600080fd5b81358181111561075e57600080fd5b8660208260051b850101111561077357600080fd5b60209290920196919550909350505050565b60006020828403121561079757600080fd5b81356001600160a01b03811681146103e657600080fd5b634e487b7160e01b600052603260045260246000fd5b6000600182016107e457634e487b7160e01b600052601160045260246000fd5b5060010190565b6000602082840312156107fd57600080fd5b815180151581146103e657600080fd5b60005b83811015610828578181015183820152602001610810565b50506000910152565b6000825161084381846020870161080d565b9190910192915050565b602081526000825180602084015261086c81604085016020870161080d565b601f01601f1916919091016040019291505056fea2646970667358221220d75b3522fbedc48f1b8658e2a8681b14f3993f14959d11d70e52cb4c3b04383864736f6c63430008100033",
  "devdoc": {
    "kind": "dev",
    "methods": {},
    "version": 1
  },
  "userdoc": {
    "kind": "user",
    "methods": {},
    "version": 1
  },
  "storageLayout": {
    "storage": [
      {
        "astId": 1212,
        "contract": "contracts/ClayDistributor.sol:ClayDistributor",
        "label": "isClaimed",
        "offset": 0,
        "slot": "0",
        "type": "t_mapping(t_address,t_bool)"
      }
    ],
    "types": {
      "t_address": {
        "encoding": "inplace",
        "label": "address",
        "numberOfBytes": "20"
      },
      "t_bool": {
        "encoding": "inplace",
        "label": "bool",
        "numberOfBytes": "1"
      },
      "t_mapping(t_address,t_bool)": {
        "encoding": "mapping",
        "key": "t_address",
        "label": "mapping(address => bool)",
        "numberOfBytes": "32",
        "value": "t_bool"
      }
    }
  }
}