{
  "address": "0x8ed2F29D044AA5BfC53e64AA6997c5635Cf62be3",
  "abi": [
    {
      "inputs": [
        {
          "internalType": "contract IClayToken",
          "name": "_clay",
          "type": "address"
        },
        {
          "internalType": "uint256",
          "name": "_maximumBondRewards",
          "type": "uint256"
        }
      ],
      "stateMutability": "nonpayable",
      "type": "constructor"
    },
    {
      "anonymous": false,
      "inputs": [
        {
          "indexed": true,
          "internalType": "address",
          "name": "owner",
          "type": "address"
        },
        {
          "indexed": true,
          "internalType": "address",
          "name": "spender",
          "type": "address"
        },
        {
          "indexed": false,
          "internalType": "uint256",
          "name": "value",
          "type": "uint256"
        }
      ],
      "name": "Approval",
      "type": "event"
    },
    {
      "anonymous": false,
      "inputs": [
        {
          "indexed": false,
          "internalType": "uint256",
          "name": "amount",
          "type": "uint256"
        },
        {
          "indexed": false,
          "internalType": "uint256",
          "name": "daysLeftToMaturationDate",
          "type": "uint256"
        },
        {
          "indexed": false,
          "internalType": "uint256",
          "name": "rewardPercent",
          "type": "uint256"
        },
        {
          "indexed": false,
          "internalType": "uint256",
          "name": "reward",
          "type": "uint256"
        }
      ],
      "name": "Issue",
      "type": "event"
    },
    {
      "anonymous": false,
      "inputs": [
        {
          "indexed": true,
          "internalType": "address",
          "name": "previousOwner",
          "type": "address"
        },
        {
          "indexed": true,
          "internalType": "address",
          "name": "newOwner",
          "type": "address"
        }
      ],
      "name": "OwnershipTransferred",
      "type": "event"
    },
    {
      "anonymous": false,
      "inputs": [
        {
          "indexed": true,
          "internalType": "address",
          "name": "from",
          "type": "address"
        },
        {
          "indexed": true,
          "internalType": "address",
          "name": "to",
          "type": "address"
        },
        {
          "indexed": false,
          "internalType": "uint256",
          "name": "value",
          "type": "uint256"
        }
      ],
      "name": "Transfer",
      "type": "event"
    },
    {
      "inputs": [],
      "name": "APY_PERCENT",
      "outputs": [
        {
          "internalType": "uint256",
          "name": "",
          "type": "uint256"
        }
      ],
      "stateMutability": "view",
      "type": "function"
    },
    {
      "inputs": [],
      "name": "BONDS_ISSUANCE_PERIOD",
      "outputs": [
        {
          "internalType": "uint256",
          "name": "",
          "type": "uint256"
        }
      ],
      "stateMutability": "view",
      "type": "function"
    },
    {
      "inputs": [],
      "name": "BONUS_APY_PERCENT",
      "outputs": [
        {
          "internalType": "uint256",
          "name": "",
          "type": "uint256"
        }
      ],
      "stateMutability": "view",
      "type": "function"
    },
    {
      "inputs": [
        {
          "internalType": "address",
          "name": "owner",
          "type": "address"
        },
        {
          "internalType": "address",
          "name": "spender",
          "type": "address"
        }
      ],
      "name": "allowance",
      "outputs": [
        {
          "internalType": "uint256",
          "name": "",
          "type": "uint256"
        }
      ],
      "stateMutability": "view",
      "type": "function"
    },
    {
      "inputs": [
        {
          "internalType": "address",
          "name": "spender",
          "type": "address"
        },
        {
          "internalType": "uint256",
          "name": "amount",
          "type": "uint256"
        }
      ],
      "name": "approve",
      "outputs": [
        {
          "internalType": "bool",
          "name": "",
          "type": "bool"
        }
      ],
      "stateMutability": "nonpayable",
      "type": "function"
    },
    {
      "inputs": [
        {
          "internalType": "address",
          "name": "account",
          "type": "address"
        }
      ],
      "name": "balanceOf",
      "outputs": [
        {
          "internalType": "uint256",
          "name": "",
          "type": "uint256"
        }
      ],
      "stateMutability": "view",
      "type": "function"
    },
    {
      "inputs": [],
      "name": "burn",
      "outputs": [],
      "stateMutability": "nonpayable",
      "type": "function"
    },
    {
      "inputs": [],
      "name": "claim",
      "outputs": [],
      "stateMutability": "nonpayable",
      "type": "function"
    },
    {
      "inputs": [],
      "name": "clay",
      "outputs": [
        {
          "internalType": "contract IClayToken",
          "name": "",
          "type": "address"
        }
      ],
      "stateMutability": "view",
      "type": "function"
    },
    {
      "inputs": [],
      "name": "dailyYieldPercent",
      "outputs": [
        {
          "internalType": "uint256",
          "name": "",
          "type": "uint256"
        }
      ],
      "stateMutability": "view",
      "type": "function"
    },
    {
      "inputs": [],
      "name": "decimals",
      "outputs": [
        {
          "internalType": "uint8",
          "name": "",
          "type": "uint8"
        }
      ],
      "stateMutability": "view",
      "type": "function"
    },
    {
      "inputs": [
        {
          "internalType": "address",
          "name": "spender",
          "type": "address"
        },
        {
          "internalType": "uint256",
          "name": "subtractedValue",
          "type": "uint256"
        }
      ],
      "name": "decreaseAllowance",
      "outputs": [
        {
          "internalType": "bool",
          "name": "",
          "type": "bool"
        }
      ],
      "stateMutability": "nonpayable",
      "type": "function"
    },
    {
      "inputs": [],
      "name": "depositCloseDate",
      "outputs": [
        {
          "internalType": "uint256",
          "name": "",
          "type": "uint256"
        }
      ],
      "stateMutability": "view",
      "type": "function"
    },
    {
      "inputs": [],
      "name": "depositStartDate",
      "outputs": [
        {
          "internalType": "uint256",
          "name": "",
          "type": "uint256"
        }
      ],
      "stateMutability": "view",
      "type": "function"
    },
    {
      "inputs": [],
      "name": "getDaysLeftToMaturationDate",
      "outputs": [
        {
          "internalType": "uint256",
          "name": "daysLeftToMaturationDate",
          "type": "uint256"
        }
      ],
      "stateMutability": "view",
      "type": "function"
    },
    {
      "inputs": [
        {
          "internalType": "uint256",
          "name": "_amount",
          "type": "uint256"
        },
        {
          "internalType": "uint256",
          "name": "_rewardPercent",
          "type": "uint256"
        }
      ],
      "name": "getReward",
      "outputs": [
        {
          "internalType": "uint256",
          "name": "reward",
          "type": "uint256"
        }
      ],
      "stateMutability": "pure",
      "type": "function"
    },
    {
      "inputs": [
        {
          "internalType": "uint256",
          "name": "daysLeftToMaturationDate",
          "type": "uint256"
        }
      ],
      "name": "getRewardPercent",
      "outputs": [
        {
          "internalType": "uint256",
          "name": "rewardPercent",
          "type": "uint256"
        }
      ],
      "stateMutability": "view",
      "type": "function"
    },
    {
      "inputs": [
        {
          "internalType": "address",
          "name": "spender",
          "type": "address"
        },
        {
          "internalType": "uint256",
          "name": "addedValue",
          "type": "uint256"
        }
      ],
      "name": "increaseAllowance",
      "outputs": [
        {
          "internalType": "bool",
          "name": "",
          "type": "bool"
        }
      ],
      "stateMutability": "nonpayable",
      "type": "function"
    },
    {
      "inputs": [
        {
          "internalType": "uint256",
          "name": "_clayAmount",
          "type": "uint256"
        }
      ],
      "name": "issue",
      "outputs": [
        {
          "internalType": "uint256",
          "name": "bondAmount",
          "type": "uint256"
        }
      ],
      "stateMutability": "nonpayable",
      "type": "function"
    },
    {
      "inputs": [],
      "name": "maturationDate",
      "outputs": [
        {
          "internalType": "uint256",
          "name": "",
          "type": "uint256"
        }
      ],
      "stateMutability": "view",
      "type": "function"
    },
    {
      "inputs": [],
      "name": "maximumBondRewards",
      "outputs": [
        {
          "internalType": "uint256",
          "name": "",
          "type": "uint256"
        }
      ],
      "stateMutability": "view",
      "type": "function"
    },
    {
      "inputs": [],
      "name": "name",
      "outputs": [
        {
          "internalType": "string",
          "name": "",
          "type": "string"
        }
      ],
      "stateMutability": "view",
      "type": "function"
    },
    {
      "inputs": [],
      "name": "owner",
      "outputs": [
        {
          "internalType": "address",
          "name": "",
          "type": "address"
        }
      ],
      "stateMutability": "view",
      "type": "function"
    },
    {
      "inputs": [],
      "name": "renounceOwnership",
      "outputs": [],
      "stateMutability": "nonpayable",
      "type": "function"
    },
    {
      "inputs": [],
      "name": "symbol",
      "outputs": [
        {
          "internalType": "string",
          "name": "",
          "type": "string"
        }
      ],
      "stateMutability": "view",
      "type": "function"
    },
    {
      "inputs": [],
      "name": "totalBondDeposits",
      "outputs": [
        {
          "internalType": "uint256",
          "name": "",
          "type": "uint256"
        }
      ],
      "stateMutability": "view",
      "type": "function"
    },
    {
      "inputs": [],
      "name": "totalSupply",
      "outputs": [
        {
          "internalType": "uint256",
          "name": "",
          "type": "uint256"
        }
      ],
      "stateMutability": "view",
      "type": "function"
    },
    {
      "inputs": [
        {
          "internalType": "address",
          "name": "to",
          "type": "address"
        },
        {
          "internalType": "uint256",
          "name": "amount",
          "type": "uint256"
        }
      ],
      "name": "transfer",
      "outputs": [
        {
          "internalType": "bool",
          "name": "",
          "type": "bool"
        }
      ],
      "stateMutability": "nonpayable",
      "type": "function"
    },
    {
      "inputs": [
        {
          "internalType": "address",
          "name": "from",
          "type": "address"
        },
        {
          "internalType": "address",
          "name": "to",
          "type": "address"
        },
        {
          "internalType": "uint256",
          "name": "amount",
          "type": "uint256"
        }
      ],
      "name": "transferFrom",
      "outputs": [
        {
          "internalType": "bool",
          "name": "",
          "type": "bool"
        }
      ],
      "stateMutability": "nonpayable",
      "type": "function"
    },
    {
      "inputs": [
        {
          "internalType": "address",
          "name": "newOwner",
          "type": "address"
        }
      ],
      "name": "transferOwnership",
      "outputs": [],
      "stateMutability": "nonpayable",
      "type": "function"
    }
  ],
  "transactionHash": "0x69864d052444ffdc5a669109d34538b6ff639ac3eb9b25d44aad1bc3050580dd",
  "args": [
    "0x0F0E38FCD59424d43BCeEA640A96F806962F5463",
    "1000000000000000000000000"
  ],
  "numDeployments": 1,
  "solcInputHash": "902221a1375c045c8d98f9ed312af11b",
  "bytecode": "0x60806040523480156200001157600080fd5b50604051620017143803806200171483398101604081905262000034916200024d565b604080518082018252600b81526a3d21b630bc902a37b5b2b760a91b6020808301918252835180850190945260058452647a434c415960d81b9084015281519192916200008491600391620001a7565b5080516200009a906004906020840190620001a7565b505050620000b7620000b16200015160201b60201c565b62000155565b600680546001600160a01b0319166001600160a01b0384161790556007819055426009819055620000ee906301e13380906200029f565b600a55620001026301e133806003620002ba565b6009546200011191906200029f565b600b5561016d62000125601460286200029f565b6200013990670de0b6b3a7640000620002ba565b620001459190620002dc565b600c55506200033c9050565b3390565b600580546001600160a01b038381166001600160a01b0319831681179093556040519116919082907f8be0079c531659141344cd1fd0a4f28419497f9722a3daafe3b4186f6b6457e090600090a35050565b828054620001b590620002ff565b90600052602060002090601f016020900481019282620001d9576000855562000224565b82601f10620001f457805160ff191683800117855562000224565b8280016001018555821562000224579182015b828111156200022457825182559160200191906001019062000207565b506200023292915062000236565b5090565b5b8082111562000232576000815560010162000237565b600080604083850312156200026157600080fd5b82516001600160a01b03811681146200027957600080fd5b6020939093015192949293505050565b634e487b7160e01b600052601160045260246000fd5b60008219821115620002b557620002b562000289565b500190565b6000816000190483118215151615620002d757620002d762000289565b500290565b600082620002fa57634e487b7160e01b600052601260045260246000fd5b500490565b600181811c908216806200031457607f821691505b602082108114156200033657634e487b7160e01b600052602260045260246000fd5b50919050565b6113c8806200034c6000396000f3fe608060405234801561001057600080fd5b50600436106101da5760003560e01c80638da5cb5b11610104578063b90bc519116100a2578063dd62ed3e11610071578063dd62ed3e14610390578063ec1f5a97146103a3578063f2fde38b146103ac578063ff6bca69146103bf57600080fd5b8063b90bc51914610358578063cc872b661461036b578063d66f0acb1461037e578063d6afbfd01461038757600080fd5b8063a457c2d7116100de578063a457c2d714610316578063a4d60c7c14610329578063a60872201461033c578063a9059cbb1461034557600080fd5b80638da5cb5b146102de57806395d89b411461030357806398975e851461030b57600080fd5b806344df8e701161017c5780635140af3f1161014b5780635140af3f1461029d57806370a08231146102a5578063715018a6146102ce57806379225699146102d657600080fd5b806344df8e701461026f5780634aec1928146102795780634e68d114146102825780634e71d92d1461029557600080fd5b806323b872dd116101b857806323b872dd14610232578063313ce5671461024557806339509351146102545780633f9d01c01461026757600080fd5b806306fdde03146101df578063095ea7b3146101fd57806318160ddd14610220575b600080fd5b6101e76103c8565b6040516101f49190611136565b60405180910390f35b61021061020b3660046111a7565b61045a565b60405190151581526020016101f4565b6002545b6040519081526020016101f4565b6102106102403660046111d1565b610472565b604051601281526020016101f4565b6102106102623660046111a7565b610496565b610224601481565b6102776104b8565b005b610224600c5481565b61022461029036600461120d565b6105fc565b61027761061c565b610224610716565b6102246102b3366004611226565b6001600160a01b031660009081526020819052604090205490565b610277610749565b610224602881565b6005546001600160a01b03165b6040516001600160a01b0390911681526020016101f4565b6101e761075d565b6102246301e1338081565b6102106103243660046111a7565b61076c565b6006546102eb906001600160a01b031681565b610224600a5481565b6102106103533660046111a7565b6107e7565b610224610366366004611241565b6107f5565b61022461037936600461120d565b610827565b61022460085481565b61022460075481565b61022461039e366004611263565b610a54565b610224600b5481565b6102776103ba366004611226565b610a7f565b61022460095481565b6060600380546103d790611296565b80601f016020809104026020016040519081016040528092919081815260200182805461040390611296565b80156104505780601f1061042557610100808354040283529160200191610450565b820191906000526020600020905b81548152906001019060200180831161043357829003601f168201915b5050505050905090565b600033610468818585610af8565b5060019392505050565b600033610480858285610c1d565b61048b858585610c97565b506001949350505050565b6000336104688185856104a98383610a54565b6104b391906112e7565b610af8565b6104c0610e65565b42600b5411156105175760405162461bcd60e51b815260206004820152601e60248201527f426f6e64204d617475726974792064617465206e6f742072656163686564000060448201526064015b60405180910390fd5b6006546040516370a0823160e01b81523060048201526000916001600160a01b0316906370a082319060240160206040518083038186803b15801561055b57600080fd5b505afa15801561056f573d6000803e3d6000fd5b505050506040513d601f19601f8201168201806040525081019061059391906112ff565b600654604051632770a7eb60e21b8152306004820152602481018390529192506001600160a01b031690639dc29fac906044015b600060405180830381600087803b1580156105e157600080fd5b505af11580156105f5573d6000803e3d6000fd5b5050505050565b60006106098260016112e7565b600c546106169190611318565b92915050565b42600b54111561066e5760405162461bcd60e51b815260206004820152601e60248201527f426f6e64204d617475726974792064617465206e6f7420726561636865640000604482015260640161050e565b33600090815260208190526040902054806106d55760405162461bcd60e51b815260206004820152602160248201527f42616c616e6365206d7573742062652067726561746572207468616e207a65726044820152606f60f81b606482015260840161050e565b6106df3382610ebf565b6006546040516340c10f1960e01b8152336004820152602481018390526001600160a01b03909116906340c10f19906044016105c7565b600042600b5410156107285750600090565b6201518042600b5461073a9190611337565b610744919061134e565b905090565b610751610e65565b61075b6000611005565b565b6060600480546103d790611296565b6000338161077a8286610a54565b9050838110156107da5760405162461bcd60e51b815260206004820152602560248201527f45524332303a2064656372656173656420616c6c6f77616e63652062656c6f77604482015264207a65726f60d81b606482015260840161050e565b61048b8286868403610af8565b600033610468818585610c97565b6000670de0b6b3a7640000606461080c8486611318565b610816919061134e565b610820919061134e565b9392505050565b60006064821161088a5760405162461bcd60e51b815260206004820152602860248201527f436c617920416d6f756e74206d7573742062652067726561746572207468616e604482015267203130302077656960c01b606482015260840161050e565b600954421015801561089d5750600a5442105b6108da5760405162461bcd60e51b815260206004820152600e60248201526d11195c1bdcda5d0818db1bdcd95960921b604482015260640161050e565b60006108e4610716565b905060006108f1826105fc565b905060006108ff85836107f5565b905061090b81866112e7565b6006546040516323b872dd60e01b8152336004820152306024820152604481018890529195506001600160a01b0316906323b872dd90606401602060405180830381600087803b15801561095e57600080fd5b505af1158015610972573d6000803e3d6000fd5b505050506040513d601f19601f820116820180604052508101906109969190611370565b506109a13385611057565b836008546109af91906112e7565b600881905560075411610a045760405162461bcd60e51b815260206004820181905260248201527f4d6178696d756d20426f6e642052657761726420506f6f6c2052656163686564604482015260640161050e565b6040805186815260208101859052908101839052606081018290527fb93112bad930e8f857186a753ad92a9bb21c2c34169673ed07e60accffc430b69060800160405180910390a1505050919050565b6001600160a01b03918216600090815260016020908152604080832093909416825291909152205490565b610a87610e65565b6001600160a01b038116610aec5760405162461bcd60e51b815260206004820152602660248201527f4f776e61626c653a206e6577206f776e657220697320746865207a65726f206160448201526564647265737360d01b606482015260840161050e565b610af581611005565b50565b6001600160a01b038316610b5a5760405162461bcd60e51b8152602060048201526024808201527f45524332303a20617070726f76652066726f6d20746865207a65726f206164646044820152637265737360e01b606482015260840161050e565b6001600160a01b038216610bbb5760405162461bcd60e51b815260206004820152602260248201527f45524332303a20617070726f766520746f20746865207a65726f206164647265604482015261737360f01b606482015260840161050e565b6001600160a01b0383811660008181526001602090815260408083209487168084529482529182902085905590518481527f8c5be1e5ebec7d5bd14f71427d1e84f3dd0314c0f7b2291e5b200ac8c7c3b92591015b60405180910390a3505050565b6000610c298484610a54565b90506000198114610c915781811015610c845760405162461bcd60e51b815260206004820152601d60248201527f45524332303a20696e73756666696369656e7420616c6c6f77616e6365000000604482015260640161050e565b610c918484848403610af8565b50505050565b6001600160a01b038316610cfb5760405162461bcd60e51b815260206004820152602560248201527f45524332303a207472616e736665722066726f6d20746865207a65726f206164604482015264647265737360d81b606482015260840161050e565b6001600160a01b038216610d5d5760405162461bcd60e51b815260206004820152602360248201527f45524332303a207472616e7366657220746f20746865207a65726f206164647260448201526265737360e81b606482015260840161050e565b6001600160a01b03831660009081526020819052604090205481811015610dd55760405162461bcd60e51b815260206004820152602660248201527f45524332303a207472616e7366657220616d6f756e7420657863656564732062604482015265616c616e636560d01b606482015260840161050e565b6001600160a01b03808516600090815260208190526040808220858503905591851681529081208054849290610e0c9084906112e7565b92505081905550826001600160a01b0316846001600160a01b03167fddf252ad1be2c89b69c2b068fc378daa952ba7f163c4a11628f55a4df523b3ef84604051610e5891815260200190565b60405180910390a3610c91565b6005546001600160a01b0316331461075b5760405162461bcd60e51b815260206004820181905260248201527f4f776e61626c653a2063616c6c6572206973206e6f7420746865206f776e6572604482015260640161050e565b6001600160a01b038216610f1f5760405162461bcd60e51b815260206004820152602160248201527f45524332303a206275726e2066726f6d20746865207a65726f206164647265736044820152607360f81b606482015260840161050e565b6001600160a01b03821660009081526020819052604090205481811015610f935760405162461bcd60e51b815260206004820152602260248201527f45524332303a206275726e20616d6f756e7420657863656564732062616c616e604482015261636560f01b606482015260840161050e565b6001600160a01b0383166000908152602081905260408120838303905560028054849290610fc2908490611337565b90915550506040518281526000906001600160a01b038516907fddf252ad1be2c89b69c2b068fc378daa952ba7f163c4a11628f55a4df523b3ef90602001610c10565b600580546001600160a01b038381166001600160a01b0319831681179093556040519116919082907f8be0079c531659141344cd1fd0a4f28419497f9722a3daafe3b4186f6b6457e090600090a35050565b6001600160a01b0382166110ad5760405162461bcd60e51b815260206004820152601f60248201527f45524332303a206d696e7420746f20746865207a65726f206164647265737300604482015260640161050e565b80600260008282546110bf91906112e7565b90915550506001600160a01b038216600090815260208190526040812080548392906110ec9084906112e7565b90915550506040518181526001600160a01b038316906000907fddf252ad1be2c89b69c2b068fc378daa952ba7f163c4a11628f55a4df523b3ef9060200160405180910390a35050565b600060208083528351808285015260005b8181101561116357858101830151858201604001528201611147565b81811115611175576000604083870101525b50601f01601f1916929092016040019392505050565b80356001600160a01b03811681146111a257600080fd5b919050565b600080604083850312156111ba57600080fd5b6111c38361118b565b946020939093013593505050565b6000806000606084860312156111e657600080fd5b6111ef8461118b565b92506111fd6020850161118b565b9150604084013590509250925092565b60006020828403121561121f57600080fd5b5035919050565b60006020828403121561123857600080fd5b6108208261118b565b6000806040838503121561125457600080fd5b50508035926020909101359150565b6000806040838503121561127657600080fd5b61127f8361118b565b915061128d6020840161118b565b90509250929050565b600181811c908216806112aa57607f821691505b602082108114156112cb57634e487b7160e01b600052602260045260246000fd5b50919050565b634e487b7160e01b600052601160045260246000fd5b600082198211156112fa576112fa6112d1565b500190565b60006020828403121561131157600080fd5b5051919050565b6000816000190483118215151615611332576113326112d1565b500290565b600082821015611349576113496112d1565b500390565b60008261136b57634e487b7160e01b600052601260045260246000fd5b500490565b60006020828403121561138257600080fd5b8151801515811461082057600080fdfea26469706673582212200d30cdd9baedde144685eeed625ad4b3ef7ff16bc51020e3d2c6bd0a9a984d7264736f6c63430008090033",
  "devdoc": {
    "kind": "dev",
    "methods": {
      "allowance(address,address)": {
        "details": "See {IERC20-allowance}."
      },
      "approve(address,uint256)": {
        "details": "See {IERC20-approve}. NOTE: If `amount` is the maximum `uint256`, the allowance is not updated on `transferFrom`. This is semantically equivalent to an infinite approval. Requirements: - `spender` cannot be the zero address."
      },
      "balanceOf(address)": {
        "details": "See {IERC20-balanceOf}."
      },
      "burn()": {
        "details": "Burns the remaining Clay in the contract*"
      },
      "claim()": {
        "details": "Burns zClay and returns the underlying Clay tokens*"
      },
      "decimals()": {
        "details": "Returns the number of decimals used to get its user representation. For example, if `decimals` equals `2`, a balance of `505` tokens should be displayed to a user as `5.05` (`505 / 10 ** 2`). Tokens usually opt for a value of 18, imitating the relationship between Ether and Wei. This is the value {ERC20} uses, unless this function is overridden; NOTE: This information is only used for _display_ purposes: it in no way affects any of the arithmetic of the contract, including {IERC20-balanceOf} and {IERC20-transfer}."
      },
      "decreaseAllowance(address,uint256)": {
        "details": "Atomically decreases the allowance granted to `spender` by the caller. This is an alternative to {approve} that can be used as a mitigation for problems described in {IERC20-approve}. Emits an {Approval} event indicating the updated allowance. Requirements: - `spender` cannot be the zero address. - `spender` must have allowance for the caller of at least `subtractedValue`."
      },
      "increaseAllowance(address,uint256)": {
        "details": "Atomically increases the allowance granted to `spender` by the caller. This is an alternative to {approve} that can be used as a mitigation for problems described in {IERC20-approve}. Emits an {Approval} event indicating the updated allowance. Requirements: - `spender` cannot be the zero address."
      },
      "issue(uint256)": {
        "params": {
          "_clayAmount": "The amount of CLAY deposited"
        }
      },
      "name()": {
        "details": "Returns the name of the token."
      },
      "owner()": {
        "details": "Returns the address of the current owner."
      },
      "renounceOwnership()": {
        "details": "Leaves the contract without owner. It will not be possible to call `onlyOwner` functions anymore. Can only be called by the current owner. NOTE: Renouncing ownership will leave the contract without an owner, thereby removing any functionality that is only available to the owner."
      },
      "symbol()": {
        "details": "Returns the symbol of the token, usually a shorter version of the name."
      },
      "totalSupply()": {
        "details": "See {IERC20-totalSupply}."
      },
      "transfer(address,uint256)": {
        "details": "See {IERC20-transfer}. Requirements: - `to` cannot be the zero address. - the caller must have a balance of at least `amount`."
      },
      "transferFrom(address,address,uint256)": {
        "details": "See {IERC20-transferFrom}. Emits an {Approval} event indicating the updated allowance. This is not required by the EIP. See the note at the beginning of {ERC20}. NOTE: Does not update the allowance if the current allowance is the maximum `uint256`. Requirements: - `from` and `to` cannot be the zero address. - `from` must have a balance of at least `amount`. - the caller must have allowance for ``from``'s tokens of at least `amount`."
      },
      "transferOwnership(address)": {
        "details": "Transfers ownership of the contract to a new account (`newOwner`). Can only be called by the current owner."
      }
    },
    "version": 1
  },
  "userdoc": {
    "kind": "user",
    "methods": {
      "issue(uint256)": {
        "notice": "Issues a zCLAY Bond depending on the amount of CLAY deposited and the current APY which depends on the time elapsed since bond programme inception"
      }
    },
    "notice": "You can deposit CLAY (ERC20 token native to Sumero) to get zCLAY Bonds (a new ERC20 representing the bond). These zCLAY Bonds can be minted upto a year from depositStartDate. The bonds will mature after a period of 3 years from the depositStartDate. There is a \"Fixed APY\" (Annual Percentage Yield) of 40% on the zCLAY Bonds and a \"Bonus APY\" of additional 20% that is constantly decreasing as the deposit close date is nearing (i.e. from a maximum of 20% to 0%). In total giving a maximum of 60% APY if a user creates bonds at Day 1 of bond start date. - FIXED_APY = 40% - BONUS_APY = 20% (decreases as deposit close date nears) Example: - User deposits 1 Clay and issues a zCLAY Bond on Day 1 of bond start date - [(deposit close timestamp - block timestamp) / (1 year in seconds) * Bonus_APY] - Total APY = APY + Bonus APY = 60% - User get 2.8 zCLAY Bond (Total APY (60%) for next 3 years i.e 180% total interest) - 1 + (180% of 1) => 1 + 1.8 => 2.8 The user can claim the zCLAY Bonds for equivalent value of CLAY after the maturation date. The user has to lock his CLAY in to zCLAY bonds for atleast 3 years. They are open to trade these bonds on a secondary market (i.e. via LP pools on Sumero)",
    "version": 1
  },
  "storageLayout": {
    "storage": [
      {
        "astId": 669,
        "contract": "contracts/ClayBonds.sol:ClayBonds",
        "label": "_balances",
        "offset": 0,
        "slot": "0",
        "type": "t_mapping(t_address,t_uint256)"
      },
      {
        "astId": 675,
        "contract": "contracts/ClayBonds.sol:ClayBonds",
        "label": "_allowances",
        "offset": 0,
        "slot": "1",
        "type": "t_mapping(t_address,t_mapping(t_address,t_uint256))"
      },
      {
        "astId": 677,
        "contract": "contracts/ClayBonds.sol:ClayBonds",
        "label": "_totalSupply",
        "offset": 0,
        "slot": "2",
        "type": "t_uint256"
      },
      {
        "astId": 679,
        "contract": "contracts/ClayBonds.sol:ClayBonds",
        "label": "_name",
        "offset": 0,
        "slot": "3",
        "type": "t_string_storage"
      },
      {
        "astId": 681,
        "contract": "contracts/ClayBonds.sol:ClayBonds",
        "label": "_symbol",
        "offset": 0,
        "slot": "4",
        "type": "t_string_storage"
      },
      {
        "astId": 400,
        "contract": "contracts/ClayBonds.sol:ClayBonds",
        "label": "_owner",
        "offset": 0,
        "slot": "5",
        "type": "t_address"
      },
      {
        "astId": 3050,
        "contract": "contracts/ClayBonds.sol:ClayBonds",
        "label": "clay",
        "offset": 0,
        "slot": "6",
        "type": "t_contract(IClayToken)13622"
      },
      {
        "astId": 3052,
        "contract": "contracts/ClayBonds.sol:ClayBonds",
        "label": "maximumBondRewards",
        "offset": 0,
        "slot": "7",
        "type": "t_uint256"
      },
      {
        "astId": 3054,
        "contract": "contracts/ClayBonds.sol:ClayBonds",
        "label": "totalBondDeposits",
        "offset": 0,
        "slot": "8",
        "type": "t_uint256"
      },
      {
        "astId": 3056,
        "contract": "contracts/ClayBonds.sol:ClayBonds",
        "label": "depositStartDate",
        "offset": 0,
        "slot": "9",
        "type": "t_uint256"
      },
      {
        "astId": 3058,
        "contract": "contracts/ClayBonds.sol:ClayBonds",
        "label": "depositCloseDate",
        "offset": 0,
        "slot": "10",
        "type": "t_uint256"
      },
      {
        "astId": 3060,
        "contract": "contracts/ClayBonds.sol:ClayBonds",
        "label": "maturationDate",
        "offset": 0,
        "slot": "11",
        "type": "t_uint256"
      },
      {
        "astId": 3062,
        "contract": "contracts/ClayBonds.sol:ClayBonds",
        "label": "dailyYieldPercent",
        "offset": 0,
        "slot": "12",
        "type": "t_uint256"
      }
    ],
    "types": {
      "t_address": {
        "encoding": "inplace",
        "label": "address",
        "numberOfBytes": "20"
      },
      "t_contract(IClayToken)13622": {
        "encoding": "inplace",
        "label": "contract IClayToken",
        "numberOfBytes": "20"
      },
      "t_mapping(t_address,t_mapping(t_address,t_uint256))": {
        "encoding": "mapping",
        "key": "t_address",
        "label": "mapping(address => mapping(address => uint256))",
        "numberOfBytes": "32",
        "value": "t_mapping(t_address,t_uint256)"
      },
      "t_mapping(t_address,t_uint256)": {
        "encoding": "mapping",
        "key": "t_address",
        "label": "mapping(address => uint256)",
        "numberOfBytes": "32",
        "value": "t_uint256"
      },
      "t_string_storage": {
        "encoding": "bytes",
        "label": "string",
        "numberOfBytes": "32"
      },
      "t_uint256": {
        "encoding": "inplace",
        "label": "uint256",
        "numberOfBytes": "32"
      }
    }
  }
}