{
  "address": "0x920e9F416e8dbF42E699E7bf389Dc76Ce27149A2",
  "abi": [
    {
      "inputs": [
        {
          "internalType": "contract IClayToken",
          "name": "_clay",
          "type": "address"
        },
        {
          "internalType": "uint256",
          "name": "_maximumBondRewards",
          "type": "uint256"
        }
      ],
      "stateMutability": "nonpayable",
      "type": "constructor"
    },
    {
      "anonymous": false,
      "inputs": [
        {
          "indexed": true,
          "internalType": "address",
          "name": "owner",
          "type": "address"
        },
        {
          "indexed": true,
          "internalType": "address",
          "name": "spender",
          "type": "address"
        },
        {
          "indexed": false,
          "internalType": "uint256",
          "name": "value",
          "type": "uint256"
        }
      ],
      "name": "Approval",
      "type": "event"
    },
    {
      "anonymous": false,
      "inputs": [
        {
          "indexed": false,
          "internalType": "uint256",
          "name": "amount",
          "type": "uint256"
        }
      ],
      "name": "Burned",
      "type": "event"
    },
    {
      "anonymous": false,
      "inputs": [
        {
          "indexed": true,
          "internalType": "address",
          "name": "user",
          "type": "address"
        },
        {
          "indexed": false,
          "internalType": "uint256",
          "name": "balance",
          "type": "uint256"
        }
      ],
      "name": "Claimed",
      "type": "event"
    },
    {
      "anonymous": false,
      "inputs": [
        {
          "indexed": true,
          "internalType": "address",
          "name": "user",
          "type": "address"
        },
        {
          "indexed": false,
          "internalType": "uint256",
          "name": "amount",
          "type": "uint256"
        },
        {
          "indexed": false,
          "internalType": "uint256",
          "name": "daysLeftToMaturationDate",
          "type": "uint256"
        },
        {
          "indexed": false,
          "internalType": "uint256",
          "name": "rewardPercent",
          "type": "uint256"
        },
        {
          "indexed": false,
          "internalType": "uint256",
          "name": "reward",
          "type": "uint256"
        }
      ],
      "name": "Issued",
      "type": "event"
    },
    {
      "anonymous": false,
      "inputs": [
        {
          "indexed": true,
          "internalType": "address",
          "name": "previousOwner",
          "type": "address"
        },
        {
          "indexed": true,
          "internalType": "address",
          "name": "newOwner",
          "type": "address"
        }
      ],
      "name": "OwnershipTransferred",
      "type": "event"
    },
    {
      "anonymous": false,
      "inputs": [
        {
          "indexed": true,
          "internalType": "address",
          "name": "from",
          "type": "address"
        },
        {
          "indexed": true,
          "internalType": "address",
          "name": "to",
          "type": "address"
        },
        {
          "indexed": false,
          "internalType": "uint256",
          "name": "value",
          "type": "uint256"
        }
      ],
      "name": "Transfer",
      "type": "event"
    },
    {
      "inputs": [],
      "name": "APY_PERCENT",
      "outputs": [
        {
          "internalType": "uint256",
          "name": "",
          "type": "uint256"
        }
      ],
      "stateMutability": "view",
      "type": "function"
    },
    {
      "inputs": [],
      "name": "BONDS_ISSUANCE_PERIOD",
      "outputs": [
        {
          "internalType": "uint256",
          "name": "",
          "type": "uint256"
        }
      ],
      "stateMutability": "view",
      "type": "function"
    },
    {
      "inputs": [],
      "name": "BONUS_APY_PERCENT",
      "outputs": [
        {
          "internalType": "uint256",
          "name": "",
          "type": "uint256"
        }
      ],
      "stateMutability": "view",
      "type": "function"
    },
    {
      "inputs": [],
      "name": "MATURATION_PERIOD",
      "outputs": [
        {
          "internalType": "uint256",
          "name": "",
          "type": "uint256"
        }
      ],
      "stateMutability": "view",
      "type": "function"
    },
    {
      "inputs": [],
      "name": "MIN_ISSUANCE_AMOUNT",
      "outputs": [
        {
          "internalType": "uint256",
          "name": "",
          "type": "uint256"
        }
      ],
      "stateMutability": "view",
      "type": "function"
    },
    {
      "inputs": [
        {
          "internalType": "address",
          "name": "owner",
          "type": "address"
        },
        {
          "internalType": "address",
          "name": "spender",
          "type": "address"
        }
      ],
      "name": "allowance",
      "outputs": [
        {
          "internalType": "uint256",
          "name": "",
          "type": "uint256"
        }
      ],
      "stateMutability": "view",
      "type": "function"
    },
    {
      "inputs": [
        {
          "internalType": "address",
          "name": "spender",
          "type": "address"
        },
        {
          "internalType": "uint256",
          "name": "amount",
          "type": "uint256"
        }
      ],
      "name": "approve",
      "outputs": [
        {
          "internalType": "bool",
          "name": "",
          "type": "bool"
        }
      ],
      "stateMutability": "nonpayable",
      "type": "function"
    },
    {
      "inputs": [
        {
          "internalType": "address",
          "name": "account",
          "type": "address"
        }
      ],
      "name": "balanceOf",
      "outputs": [
        {
          "internalType": "uint256",
          "name": "",
          "type": "uint256"
        }
      ],
      "stateMutability": "view",
      "type": "function"
    },
    {
      "inputs": [],
      "name": "burn",
      "outputs": [],
      "stateMutability": "nonpayable",
      "type": "function"
    },
    {
      "inputs": [],
      "name": "claim",
      "outputs": [],
      "stateMutability": "nonpayable",
      "type": "function"
    },
    {
      "inputs": [],
      "name": "clay",
      "outputs": [
        {
          "internalType": "contract IClayToken",
          "name": "",
          "type": "address"
        }
      ],
      "stateMutability": "view",
      "type": "function"
    },
    {
      "inputs": [],
      "name": "dailyYieldPercent",
      "outputs": [
        {
          "internalType": "uint256",
          "name": "",
          "type": "uint256"
        }
      ],
      "stateMutability": "view",
      "type": "function"
    },
    {
      "inputs": [],
      "name": "decimals",
      "outputs": [
        {
          "internalType": "uint8",
          "name": "",
          "type": "uint8"
        }
      ],
      "stateMutability": "view",
      "type": "function"
    },
    {
      "inputs": [
        {
          "internalType": "address",
          "name": "spender",
          "type": "address"
        },
        {
          "internalType": "uint256",
          "name": "subtractedValue",
          "type": "uint256"
        }
      ],
      "name": "decreaseAllowance",
      "outputs": [
        {
          "internalType": "bool",
          "name": "",
          "type": "bool"
        }
      ],
      "stateMutability": "nonpayable",
      "type": "function"
    },
    {
      "inputs": [],
      "name": "depositCloseDate",
      "outputs": [
        {
          "internalType": "uint256",
          "name": "",
          "type": "uint256"
        }
      ],
      "stateMutability": "view",
      "type": "function"
    },
    {
      "inputs": [],
      "name": "depositStartDate",
      "outputs": [
        {
          "internalType": "uint256",
          "name": "",
          "type": "uint256"
        }
      ],
      "stateMutability": "view",
      "type": "function"
    },
    {
      "inputs": [],
      "name": "getDaysLeftToMaturationDate",
      "outputs": [
        {
          "internalType": "uint256",
          "name": "daysLeftToMaturationDate",
          "type": "uint256"
        }
      ],
      "stateMutability": "view",
      "type": "function"
    },
    {
      "inputs": [
        {
          "internalType": "uint256",
          "name": "_amount",
          "type": "uint256"
        },
        {
          "internalType": "uint256",
          "name": "_rewardPercent",
          "type": "uint256"
        }
      ],
      "name": "getReward",
      "outputs": [
        {
          "internalType": "uint256",
          "name": "reward",
          "type": "uint256"
        }
      ],
      "stateMutability": "pure",
      "type": "function"
    },
    {
      "inputs": [
        {
          "internalType": "uint256",
          "name": "daysLeftToMaturationDate",
          "type": "uint256"
        }
      ],
      "name": "getRewardPercent",
      "outputs": [
        {
          "internalType": "uint256",
          "name": "rewardPercent",
          "type": "uint256"
        }
      ],
      "stateMutability": "view",
      "type": "function"
    },
    {
      "inputs": [
        {
          "internalType": "address",
          "name": "spender",
          "type": "address"
        },
        {
          "internalType": "uint256",
          "name": "addedValue",
          "type": "uint256"
        }
      ],
      "name": "increaseAllowance",
      "outputs": [
        {
          "internalType": "bool",
          "name": "",
          "type": "bool"
        }
      ],
      "stateMutability": "nonpayable",
      "type": "function"
    },
    {
      "inputs": [
        {
          "internalType": "uint256",
          "name": "_clayAmount",
          "type": "uint256"
        }
      ],
      "name": "issue",
      "outputs": [
        {
          "internalType": "uint256",
          "name": "bondAmount",
          "type": "uint256"
        }
      ],
      "stateMutability": "nonpayable",
      "type": "function"
    },
    {
      "inputs": [],
      "name": "maturationDate",
      "outputs": [
        {
          "internalType": "uint256",
          "name": "",
          "type": "uint256"
        }
      ],
      "stateMutability": "view",
      "type": "function"
    },
    {
      "inputs": [],
      "name": "maximumBondRewards",
      "outputs": [
        {
          "internalType": "uint256",
          "name": "",
          "type": "uint256"
        }
      ],
      "stateMutability": "view",
      "type": "function"
    },
    {
      "inputs": [],
      "name": "name",
      "outputs": [
        {
          "internalType": "string",
          "name": "",
          "type": "string"
        }
      ],
      "stateMutability": "view",
      "type": "function"
    },
    {
      "inputs": [],
      "name": "owner",
      "outputs": [
        {
          "internalType": "address",
          "name": "",
          "type": "address"
        }
      ],
      "stateMutability": "view",
      "type": "function"
    },
    {
      "inputs": [],
      "name": "renounceOwnership",
      "outputs": [],
      "stateMutability": "nonpayable",
      "type": "function"
    },
    {
      "inputs": [],
      "name": "symbol",
      "outputs": [
        {
          "internalType": "string",
          "name": "",
          "type": "string"
        }
      ],
      "stateMutability": "view",
      "type": "function"
    },
    {
      "inputs": [],
      "name": "totalBondDeposits",
      "outputs": [
        {
          "internalType": "uint256",
          "name": "",
          "type": "uint256"
        }
      ],
      "stateMutability": "view",
      "type": "function"
    },
    {
      "inputs": [],
      "name": "totalSupply",
      "outputs": [
        {
          "internalType": "uint256",
          "name": "",
          "type": "uint256"
        }
      ],
      "stateMutability": "view",
      "type": "function"
    },
    {
      "inputs": [
        {
          "internalType": "address",
          "name": "to",
          "type": "address"
        },
        {
          "internalType": "uint256",
          "name": "amount",
          "type": "uint256"
        }
      ],
      "name": "transfer",
      "outputs": [
        {
          "internalType": "bool",
          "name": "",
          "type": "bool"
        }
      ],
      "stateMutability": "nonpayable",
      "type": "function"
    },
    {
      "inputs": [
        {
          "internalType": "address",
          "name": "from",
          "type": "address"
        },
        {
          "internalType": "address",
          "name": "to",
          "type": "address"
        },
        {
          "internalType": "uint256",
          "name": "amount",
          "type": "uint256"
        }
      ],
      "name": "transferFrom",
      "outputs": [
        {
          "internalType": "bool",
          "name": "",
          "type": "bool"
        }
      ],
      "stateMutability": "nonpayable",
      "type": "function"
    },
    {
      "inputs": [
        {
          "internalType": "address",
          "name": "newOwner",
          "type": "address"
        }
      ],
      "name": "transferOwnership",
      "outputs": [],
      "stateMutability": "nonpayable",
      "type": "function"
    }
  ],
  "transactionHash": "0x1a294ff33ac5d0f6dfecd62ee9e62443e8c50d83d920481f6b3234bcb70a19c3",
  "args": [
    "0xee62a7d7dCa1C7f6647368B8F2148A6E1bcbb728",
    "1000000000000000000000000"
  ],
  "numDeployments": 1,
  "solcInputHash": "1e68da7ce4bd93b091caf47b8ff3a37d",
  "bytecode": "0x6101206040523480156200001257600080fd5b5060405162001a5738038062001a5783398101604081905262000035916200023d565b604080518082018252600b81526a3d21b630bc902a37b5b2b760a91b6020808301918252835180850190945260058452647a434c415960d81b908401528151919291620000859160039162000197565b5080516200009b90600490602084019062000197565b505050620000b8620000b26200014160201b60201c565b62000145565b600680546001600160a01b0319166001600160a01b03841617905560808190524260a0819052620000ee9062093a80906200028f565b60c0526200010062093a80426200028f565b60e05261016d62000114601460286200028f565b6200012890670de0b6b3a7640000620002aa565b620001349190620002cc565b61010052506200032c9050565b3390565b600580546001600160a01b038381166001600160a01b0319831681179093556040519116919082907f8be0079c531659141344cd1fd0a4f28419497f9722a3daafe3b4186f6b6457e090600090a35050565b828054620001a590620002ef565b90600052602060002090601f016020900481019282620001c9576000855562000214565b82601f10620001e457805160ff191683800117855562000214565b8280016001018555821562000214579182015b8281111562000214578251825591602001919060010190620001f7565b506200022292915062000226565b5090565b5b8082111562000222576000815560010162000227565b600080604083850312156200025157600080fd5b82516001600160a01b03811681146200026957600080fd5b6020939093015192949293505050565b634e487b7160e01b600052601160045260246000fd5b60008219821115620002a557620002a562000279565b500190565b6000816000190483118215151615620002c757620002c762000279565b500290565b600082620002ea57634e487b7160e01b600052601260045260246000fd5b500490565b600181811c908216806200030457607f821691505b602082108114156200032657634e487b7160e01b600052602260045260246000fd5b50919050565b60805160a05160c05160e051610100516116ae620003a960003960008181610294015261071801526000818161041f0152818161057601528181610745015281816108ba01526108ef01526000818161037c0152610acf0152600081816104590152610a540152600081816103e50152610c6b01526116ae6000f3fe608060405234801561001057600080fd5b50600436106101f05760003560e01c8063792256991161010f578063b90bc519116100a2578063dd62ed3e11610071578063dd62ed3e14610407578063ec1f5a971461041a578063f2fde38b14610441578063ff6bca691461045457600080fd5b8063b90bc519146103b1578063cc872b66146103c4578063d66f0acb146103d7578063d6afbfd0146103e057600080fd5b8063a457c2d7116100de578063a457c2d714610351578063a4d60c7c14610364578063a608722014610377578063a9059cbb1461039e57600080fd5b8063792256991461031c5780638da5cb5b1461032457806395d89b411461034957806398975e85146102d157600080fd5b80634aec1928116101875780635140af3f116101565780635140af3f146102db57806370a08231146102e3578063715018a61461030c57806377291df81461031457600080fd5b80634aec19281461028f5780634e68d114146102b65780634e71d92d146102c95780634ff02691146102d157600080fd5b8063313ce567116101c3578063313ce5671461025b578063395093511461026a5780633f9d01c01461027d57806344df8e701461028557600080fd5b806306fdde03146101f5578063095ea7b31461021357806318160ddd1461023657806323b872dd14610248575b600080fd5b6101fd61047b565b60405161020a919061141c565b60405180910390f35b61022661022136600461148d565b61050d565b604051901515815260200161020a565b6002545b60405190815260200161020a565b6102266102563660046114b7565b610525565b6040516012815260200161020a565b61022661027836600461148d565b610549565b61023a601481565b61028d61056b565b005b61023a7f000000000000000000000000000000000000000000000000000000000000000081565b61023a6102c43660046114f3565b610705565b61028d610742565b61023a62093a8081565b61023a6108b5565b61023a6102f136600461150c565b6001600160a01b031660009081526020819052604090205490565b61028d610922565b61023a606481565b61023a602881565b6005546001600160a01b03165b6040516001600160a01b03909116815260200161020a565b6101fd610936565b61022661035f36600461148d565b610945565b600654610331906001600160a01b031681565b61023a7f000000000000000000000000000000000000000000000000000000000000000081565b6102266103ac36600461148d565b6109c0565b61023a6103bf366004611527565b6109ce565b61023a6103d23660046114f3565b610a00565b61023a60075481565b61023a7f000000000000000000000000000000000000000000000000000000000000000081565b61023a610415366004611549565b610d3a565b61023a7f000000000000000000000000000000000000000000000000000000000000000081565b61028d61044f36600461150c565b610d65565b61023a7f000000000000000000000000000000000000000000000000000000000000000081565b60606003805461048a9061157c565b80601f01602080910402602001604051908101604052809291908181526020018280546104b69061157c565b80156105035780601f106104d857610100808354040283529160200191610503565b820191906000526020600020905b8154815290600101906020018083116104e657829003601f168201915b5050505050905090565b60003361051b818585610dde565b5060019392505050565b600033610533858285610f03565b61053e858585610f7d565b506001949350505050565b60003361051b81858561055c8383610d3a565b61056691906115cd565b610dde565b61057361114b565b427f000000000000000000000000000000000000000000000000000000000000000011156105e85760405162461bcd60e51b815260206004820152601b60248201527f436c6179426f6e64733a20424f4e445f4e4f545f4d415455524544000000000060448201526064015b60405180910390fd5b6006546040516370a0823160e01b81523060048201526000916001600160a01b0316906370a082319060240160206040518083038186803b15801561062c57600080fd5b505afa158015610640573d6000803e3d6000fd5b505050506040513d601f19601f8201168201806040525081019061066491906115e5565b600654604051632770a7eb60e21b8152306004820152602481018390529192506001600160a01b031690639dc29fac90604401600060405180830381600087803b1580156106b157600080fd5b505af11580156106c5573d6000803e3d6000fd5b505050507fd83c63197e8e676d80ab0122beba9a9d20f3828839e9a1d6fe81d242e9cd7e6e816040516106fa91815260200190565b60405180910390a150565b60006107128260016115cd565b61073c907f00000000000000000000000000000000000000000000000000000000000000006115fe565b92915050565b427f000000000000000000000000000000000000000000000000000000000000000011156107b25760405162461bcd60e51b815260206004820152601b60248201527f436c6179426f6e64733a20424f4e445f4e4f545f4d415455524544000000000060448201526064016105df565b336000908152602081905260409020548061080f5760405162461bcd60e51b815260206004820152601a60248201527f436c6179426f6e64733a2042414c414e43455f49535f5a45524f00000000000060448201526064016105df565b61081933826111a5565b6006546040516340c10f1960e01b8152336004820152602481018390526001600160a01b03909116906340c10f1990604401600060405180830381600087803b15801561086557600080fd5b505af1158015610879573d6000803e3d6000fd5b50506040518381523392507fd8138f8a3f377c5259ca548e70e4c2de94f129f5a11036a15b69513cba2b426a915060200160405180910390a250565b6000427f000000000000000000000000000000000000000000000000000000000000000010156108e55750600090565b62015180610913427f000000000000000000000000000000000000000000000000000000000000000061161d565b61091d9190611634565b905090565b61092a61114b565b61093460006112eb565b565b60606004805461048a9061157c565b600033816109538286610d3a565b9050838110156109b35760405162461bcd60e51b815260206004820152602560248201527f45524332303a2064656372656173656420616c6c6f77616e63652062656c6f77604482015264207a65726f60d81b60648201526084016105df565b61053e8286868403610dde565b60003361051b818585610f7d565b6000670de0b6b3a764000060646109e584866115fe565b6109ef9190611634565b6109f99190611634565b9392505050565b600060648211610a525760405162461bcd60e51b815260206004820152601e60248201527f436c6179426f6e64733a20494e53554646494349454e545f414d4f554e54000060448201526064016105df565b7f0000000000000000000000000000000000000000000000000000000000000000421015610acd5760405162461bcd60e51b815260206004820152602260248201527f436c6179426f6e64733a204445504f5349545f4e4f545f5945545f5354415254604482015261115160f21b60648201526084016105df565b7f00000000000000000000000000000000000000000000000000000000000000004210610b3c5760405162461bcd60e51b815260206004820152601960248201527f436c6179426f6e64733a204445504f5349545f434c4f5345440000000000000060448201526064016105df565b6000610b466108b5565b90506000610b5382610705565b90506000610b6185836109ce565b9050610b6d81866115cd565b6006546040516323b872dd60e01b8152336004820152306024820152604481018890529195506000916001600160a01b03909116906323b872dd90606401602060405180830381600087803b158015610bc557600080fd5b505af1158015610bd9573d6000803e3d6000fd5b505050506040513d601f19601f82011682018060405250810190610bfd9190611656565b905080610c4c5760405162461bcd60e51b815260206004820152601a60248201527f436c6179426f6e64733a205452414e534645525f4641494c454400000000000060448201526064016105df565b610c56338661133d565b84600754610c6491906115cd565b60078190557f000000000000000000000000000000000000000000000000000000000000000011610ce75760405162461bcd60e51b815260206004820152602760248201527f436c6179426f6e64733a204d41585f424f4e445f5245574152445f504f4f4c5f60448201526614915050d2115160ca1b60648201526084016105df565b60408051878152602081018690529081018490526060810183905233907f374a351db3f664ea453a7ce5668a042151e5aac07bf62f30d35defd0a019b0be9060800160405180910390a250505050919050565b6001600160a01b03918216600090815260016020908152604080832093909416825291909152205490565b610d6d61114b565b6001600160a01b038116610dd25760405162461bcd60e51b815260206004820152602660248201527f4f776e61626c653a206e6577206f776e657220697320746865207a65726f206160448201526564647265737360d01b60648201526084016105df565b610ddb816112eb565b50565b6001600160a01b038316610e405760405162461bcd60e51b8152602060048201526024808201527f45524332303a20617070726f76652066726f6d20746865207a65726f206164646044820152637265737360e01b60648201526084016105df565b6001600160a01b038216610ea15760405162461bcd60e51b815260206004820152602260248201527f45524332303a20617070726f766520746f20746865207a65726f206164647265604482015261737360f01b60648201526084016105df565b6001600160a01b0383811660008181526001602090815260408083209487168084529482529182902085905590518481527f8c5be1e5ebec7d5bd14f71427d1e84f3dd0314c0f7b2291e5b200ac8c7c3b92591015b60405180910390a3505050565b6000610f0f8484610d3a565b90506000198114610f775781811015610f6a5760405162461bcd60e51b815260206004820152601d60248201527f45524332303a20696e73756666696369656e7420616c6c6f77616e636500000060448201526064016105df565b610f778484848403610dde565b50505050565b6001600160a01b038316610fe15760405162461bcd60e51b815260206004820152602560248201527f45524332303a207472616e736665722066726f6d20746865207a65726f206164604482015264647265737360d81b60648201526084016105df565b6001600160a01b0382166110435760405162461bcd60e51b815260206004820152602360248201527f45524332303a207472616e7366657220746f20746865207a65726f206164647260448201526265737360e81b60648201526084016105df565b6001600160a01b038316600090815260208190526040902054818110156110bb5760405162461bcd60e51b815260206004820152602660248201527f45524332303a207472616e7366657220616d6f756e7420657863656564732062604482015265616c616e636560d01b60648201526084016105df565b6001600160a01b038085166000908152602081905260408082208585039055918516815290812080548492906110f29084906115cd565b92505081905550826001600160a01b0316846001600160a01b03167fddf252ad1be2c89b69c2b068fc378daa952ba7f163c4a11628f55a4df523b3ef8460405161113e91815260200190565b60405180910390a3610f77565b6005546001600160a01b031633146109345760405162461bcd60e51b815260206004820181905260248201527f4f776e61626c653a2063616c6c6572206973206e6f7420746865206f776e657260448201526064016105df565b6001600160a01b0382166112055760405162461bcd60e51b815260206004820152602160248201527f45524332303a206275726e2066726f6d20746865207a65726f206164647265736044820152607360f81b60648201526084016105df565b6001600160a01b038216600090815260208190526040902054818110156112795760405162461bcd60e51b815260206004820152602260248201527f45524332303a206275726e20616d6f756e7420657863656564732062616c616e604482015261636560f01b60648201526084016105df565b6001600160a01b03831660009081526020819052604081208383039055600280548492906112a890849061161d565b90915550506040518281526000906001600160a01b038516907fddf252ad1be2c89b69c2b068fc378daa952ba7f163c4a11628f55a4df523b3ef90602001610ef6565b600580546001600160a01b038381166001600160a01b0319831681179093556040519116919082907f8be0079c531659141344cd1fd0a4f28419497f9722a3daafe3b4186f6b6457e090600090a35050565b6001600160a01b0382166113935760405162461bcd60e51b815260206004820152601f60248201527f45524332303a206d696e7420746f20746865207a65726f20616464726573730060448201526064016105df565b80600260008282546113a591906115cd565b90915550506001600160a01b038216600090815260208190526040812080548392906113d29084906115cd565b90915550506040518181526001600160a01b038316906000907fddf252ad1be2c89b69c2b068fc378daa952ba7f163c4a11628f55a4df523b3ef9060200160405180910390a35050565b600060208083528351808285015260005b818110156114495785810183015185820160400152820161142d565b8181111561145b576000604083870101525b50601f01601f1916929092016040019392505050565b80356001600160a01b038116811461148857600080fd5b919050565b600080604083850312156114a057600080fd5b6114a983611471565b946020939093013593505050565b6000806000606084860312156114cc57600080fd5b6114d584611471565b92506114e360208501611471565b9150604084013590509250925092565b60006020828403121561150557600080fd5b5035919050565b60006020828403121561151e57600080fd5b6109f982611471565b6000806040838503121561153a57600080fd5b50508035926020909101359150565b6000806040838503121561155c57600080fd5b61156583611471565b915061157360208401611471565b90509250929050565b600181811c9082168061159057607f821691505b602082108114156115b157634e487b7160e01b600052602260045260246000fd5b50919050565b634e487b7160e01b600052601160045260246000fd5b600082198211156115e0576115e06115b7565b500190565b6000602082840312156115f757600080fd5b5051919050565b6000816000190483118215151615611618576116186115b7565b500290565b60008282101561162f5761162f6115b7565b500390565b60008261165157634e487b7160e01b600052601260045260246000fd5b500490565b60006020828403121561166857600080fd5b815180151581146109f957600080fdfea2646970667358221220727e62abe4b4882febd3faf163ef5ef3dd4a7390de3bea98dcf3d1252796ee6364736f6c63430008090033",
  "devdoc": {
    "kind": "dev",
    "methods": {
      "allowance(address,address)": {
        "details": "See {IERC20-allowance}."
      },
      "approve(address,uint256)": {
        "details": "See {IERC20-approve}. NOTE: If `amount` is the maximum `uint256`, the allowance is not updated on `transferFrom`. This is semantically equivalent to an infinite approval. Requirements: - `spender` cannot be the zero address."
      },
      "balanceOf(address)": {
        "details": "See {IERC20-balanceOf}."
      },
      "burn()": {
        "details": "Burns the remaining Clay in the contract*"
      },
      "claim()": {
        "details": "Burns zClay and returns the underlying Clay tokens*"
      },
      "decimals()": {
        "details": "Returns the number of decimals used to get its user representation. For example, if `decimals` equals `2`, a balance of `505` tokens should be displayed to a user as `5.05` (`505 / 10 ** 2`). Tokens usually opt for a value of 18, imitating the relationship between Ether and Wei. This is the value {ERC20} uses, unless this function is overridden; NOTE: This information is only used for _display_ purposes: it in no way affects any of the arithmetic of the contract, including {IERC20-balanceOf} and {IERC20-transfer}."
      },
      "decreaseAllowance(address,uint256)": {
        "details": "Atomically decreases the allowance granted to `spender` by the caller. This is an alternative to {approve} that can be used as a mitigation for problems described in {IERC20-approve}. Emits an {Approval} event indicating the updated allowance. Requirements: - `spender` cannot be the zero address. - `spender` must have allowance for the caller of at least `subtractedValue`."
      },
      "increaseAllowance(address,uint256)": {
        "details": "Atomically increases the allowance granted to `spender` by the caller. This is an alternative to {approve} that can be used as a mitigation for problems described in {IERC20-approve}. Emits an {Approval} event indicating the updated allowance. Requirements: - `spender` cannot be the zero address."
      },
      "issue(uint256)": {
        "params": {
          "_clayAmount": "The amount of CLAY deposited"
        }
      },
      "name()": {
        "details": "Returns the name of the token."
      },
      "owner()": {
        "details": "Returns the address of the current owner."
      },
      "renounceOwnership()": {
        "details": "Leaves the contract without owner. It will not be possible to call `onlyOwner` functions anymore. Can only be called by the current owner. NOTE: Renouncing ownership will leave the contract without an owner, thereby removing any functionality that is only available to the owner."
      },
      "symbol()": {
        "details": "Returns the symbol of the token, usually a shorter version of the name."
      },
      "totalSupply()": {
        "details": "See {IERC20-totalSupply}."
      },
      "transfer(address,uint256)": {
        "details": "See {IERC20-transfer}. Requirements: - `to` cannot be the zero address. - the caller must have a balance of at least `amount`."
      },
      "transferFrom(address,address,uint256)": {
        "details": "See {IERC20-transferFrom}. Emits an {Approval} event indicating the updated allowance. This is not required by the EIP. See the note at the beginning of {ERC20}. NOTE: Does not update the allowance if the current allowance is the maximum `uint256`. Requirements: - `from` and `to` cannot be the zero address. - `from` must have a balance of at least `amount`. - the caller must have allowance for ``from``'s tokens of at least `amount`."
      },
      "transferOwnership(address)": {
        "details": "Transfers ownership of the contract to a new account (`newOwner`). Can only be called by the current owner."
      }
    },
    "version": 1
  },
  "userdoc": {
    "kind": "user",
    "methods": {
      "issue(uint256)": {
        "notice": "Issues a zCLAY Bond depending on the amount of CLAY deposited and the current APY which depends on the time elapsed since bond programme inception"
      }
    },
    "notice": "You can deposit CLAY (ERC20 token native to Sumero) to get zCLAY Bonds (a new ERC20 representing the bond). These zCLAY Bonds can be minted upto a year from depositStartDate. The bonds will mature after a period of 3 years from the depositStartDate. There is a \"Fixed APY\" (Annual Percentage Yield) of 40% on the zCLAY Bonds and a \"Bonus APY\" of additional 20% that is constantly decreasing as the deposit close date is nearing (i.e. from a maximum of 20% to 0%). In total giving a maximum of 60% APY if a user creates bonds at Day 1 of bond start date. - FIXED_APY = 40% - BONUS_APY = 20% (decreases as deposit close date nears) Example: - User deposits 1 Clay and issues a zCLAY Bond on Day 1 of bond start date - [(deposit close timestamp - block timestamp) / (1 year in seconds) * Bonus_APY] - Total APY = APY + Bonus APY = 60% - User get 2.8 zCLAY Bond (Total APY (60%) for next 3 years i.e 180% total interest) - 1 + (180% of 1) => 1 + 1.8 => 2.8 The user can claim the zCLAY Bonds for equivalent value of CLAY after the maturation date. The user has to lock his CLAY in to zCLAY bonds for atleast 3 years. They are open to trade these bonds on a secondary market (i.e. via LP pools on Sumero)",
    "version": 1
  },
  "storageLayout": {
    "storage": [
      {
        "astId": 669,
        "contract": "contracts/ClayBonds.sol:ClayBonds",
        "label": "_balances",
        "offset": 0,
        "slot": "0",
        "type": "t_mapping(t_address,t_uint256)"
      },
      {
        "astId": 675,
        "contract": "contracts/ClayBonds.sol:ClayBonds",
        "label": "_allowances",
        "offset": 0,
        "slot": "1",
        "type": "t_mapping(t_address,t_mapping(t_address,t_uint256))"
      },
      {
        "astId": 677,
        "contract": "contracts/ClayBonds.sol:ClayBonds",
        "label": "_totalSupply",
        "offset": 0,
        "slot": "2",
        "type": "t_uint256"
      },
      {
        "astId": 679,
        "contract": "contracts/ClayBonds.sol:ClayBonds",
        "label": "_name",
        "offset": 0,
        "slot": "3",
        "type": "t_string_storage"
      },
      {
        "astId": 681,
        "contract": "contracts/ClayBonds.sol:ClayBonds",
        "label": "_symbol",
        "offset": 0,
        "slot": "4",
        "type": "t_string_storage"
      },
      {
        "astId": 400,
        "contract": "contracts/ClayBonds.sol:ClayBonds",
        "label": "_owner",
        "offset": 0,
        "slot": "5",
        "type": "t_address"
      },
      {
        "astId": 3201,
        "contract": "contracts/ClayBonds.sol:ClayBonds",
        "label": "clay",
        "offset": 0,
        "slot": "6",
        "type": "t_contract(IClayToken)13813"
      },
      {
        "astId": 3205,
        "contract": "contracts/ClayBonds.sol:ClayBonds",
        "label": "totalBondDeposits",
        "offset": 0,
        "slot": "7",
        "type": "t_uint256"
      }
    ],
    "types": {
      "t_address": {
        "encoding": "inplace",
        "label": "address",
        "numberOfBytes": "20"
      },
      "t_contract(IClayToken)13813": {
        "encoding": "inplace",
        "label": "contract IClayToken",
        "numberOfBytes": "20"
      },
      "t_mapping(t_address,t_mapping(t_address,t_uint256))": {
        "encoding": "mapping",
        "key": "t_address",
        "label": "mapping(address => mapping(address => uint256))",
        "numberOfBytes": "32",
        "value": "t_mapping(t_address,t_uint256)"
      },
      "t_mapping(t_address,t_uint256)": {
        "encoding": "mapping",
        "key": "t_address",
        "label": "mapping(address => uint256)",
        "numberOfBytes": "32",
        "value": "t_uint256"
      },
      "t_string_storage": {
        "encoding": "bytes",
        "label": "string",
        "numberOfBytes": "32"
      },
      "t_uint256": {
        "encoding": "inplace",
        "label": "uint256",
        "numberOfBytes": "32"
      }
    }
  }
}