{
  "address": "0x4e3f21292A468ea6862456e5848B78967406867e",
  "abi": [
    {
      "inputs": [
        {
          "internalType": "address",
          "name": "_finderAddress",
          "type": "address"
        },
        {
          "internalType": "address",
          "name": "_tokenFactoryAddress",
          "type": "address"
        },
        {
          "internalType": "address",
          "name": "_timerAddress",
          "type": "address"
        }
      ],
      "stateMutability": "nonpayable",
      "type": "constructor"
    },
    {
      "anonymous": false,
      "inputs": [
        {
          "indexed": true,
          "internalType": "address",
          "name": "expiringMultiPartyAddress",
          "type": "address"
        },
        {
          "indexed": true,
          "internalType": "address",
          "name": "deployerAddress",
          "type": "address"
        }
      ],
      "name": "CreatedExpiringMultiParty",
      "type": "event"
    },
    {
      "inputs": [
        {
          "internalType": "address",
          "name": "_collateralAddress",
          "type": "address"
        }
      ],
      "name": "_getSyntheticDecimals",
      "outputs": [
        {
          "internalType": "uint8",
          "name": "decimals",
          "type": "uint8"
        }
      ],
      "stateMutability": "view",
      "type": "function"
    },
    {
      "inputs": [
        {
          "components": [
            {
              "internalType": "uint256",
              "name": "expirationTimestamp",
              "type": "uint256"
            },
            {
              "internalType": "address",
              "name": "collateralAddress",
              "type": "address"
            },
            {
              "internalType": "bytes32",
              "name": "priceFeedIdentifier",
              "type": "bytes32"
            },
            {
              "internalType": "bytes",
              "name": "ancillaryData",
              "type": "bytes"
            },
            {
              "internalType": "string",
              "name": "syntheticName",
              "type": "string"
            },
            {
              "internalType": "string",
              "name": "syntheticSymbol",
              "type": "string"
            },
            {
              "components": [
                {
                  "internalType": "uint256",
                  "name": "rawValue",
                  "type": "uint256"
                }
              ],
              "internalType": "struct FixedPoint.Unsigned",
              "name": "collateralRequirement",
              "type": "tuple"
            },
            {
              "components": [
                {
                  "internalType": "uint256",
                  "name": "rawValue",
                  "type": "uint256"
                }
              ],
              "internalType": "struct FixedPoint.Unsigned",
              "name": "disputeBondPercentage",
              "type": "tuple"
            },
            {
              "components": [
                {
                  "internalType": "uint256",
                  "name": "rawValue",
                  "type": "uint256"
                }
              ],
              "internalType": "struct FixedPoint.Unsigned",
              "name": "sponsorDisputeRewardPercentage",
              "type": "tuple"
            },
            {
              "components": [
                {
                  "internalType": "uint256",
                  "name": "rawValue",
                  "type": "uint256"
                }
              ],
              "internalType": "struct FixedPoint.Unsigned",
              "name": "disputerDisputeRewardPercentage",
              "type": "tuple"
            },
            {
              "components": [
                {
                  "internalType": "uint256",
                  "name": "rawValue",
                  "type": "uint256"
                }
              ],
              "internalType": "struct FixedPoint.Unsigned",
              "name": "minSponsorTokens",
              "type": "tuple"
            },
            {
              "components": [
                {
                  "internalType": "uint256",
                  "name": "rawValue",
                  "type": "uint256"
                }
              ],
              "internalType": "struct FixedPoint.Unsigned",
              "name": "ooReward",
              "type": "tuple"
            },
            {
              "internalType": "uint256",
              "name": "withdrawalLiveness",
              "type": "uint256"
            },
            {
              "internalType": "uint256",
              "name": "liquidationLiveness",
              "type": "uint256"
            },
            {
              "internalType": "address",
              "name": "financialProductLibraryAddress",
              "type": "address"
            }
          ],
          "internalType": "struct ExpiringMultiPartyCreator.Params",
          "name": "params",
          "type": "tuple"
        }
      ],
      "name": "createExpiringMultiParty",
      "outputs": [
        {
          "internalType": "address",
          "name": "",
          "type": "address"
        }
      ],
      "stateMutability": "nonpayable",
      "type": "function"
    },
    {
      "inputs": [],
      "name": "getCurrentTime",
      "outputs": [
        {
          "internalType": "uint256",
          "name": "",
          "type": "uint256"
        }
      ],
      "stateMutability": "view",
      "type": "function"
    },
    {
      "inputs": [
        {
          "internalType": "uint256",
          "name": "time",
          "type": "uint256"
        }
      ],
      "name": "setCurrentTime",
      "outputs": [],
      "stateMutability": "nonpayable",
      "type": "function"
    },
    {
      "inputs": [],
      "name": "timerAddress",
      "outputs": [
        {
          "internalType": "address",
          "name": "",
          "type": "address"
        }
      ],
      "stateMutability": "view",
      "type": "function"
    },
    {
      "inputs": [],
      "name": "tokenFactoryAddress",
      "outputs": [
        {
          "internalType": "address",
          "name": "",
          "type": "address"
        }
      ],
      "stateMutability": "view",
      "type": "function"
    }
  ],
  "transactionHash": "0x05274679f496c1aff94cdb4dc0e46d73417941c47cd210024721de8ee547b42f",
  "args": [
    "0xE60dBa66B85E10E7Fd18a67a6859E241A243950e",
    "0xbc33419dB61C60200FBb712fC181A587F46DA45f",
    "0x0000000000000000000000000000000000000000"
  ],
  "numDeployments": 3,
  "solcInputHash": "1122f74247df18b351b2d23fabd7b795",
  "bytecode": "0x60806040523480156200001157600080fd5b50604051620012493803806200124983398101604081905262000034916200014a565b600080546001600160a01b038086166001600160a01b031990921691909117909155600180546001600160a81b03191691831691909117600160a01b1790556200007d620000cd565b620000906001805460ff60a01b19169055565b600280546001600160a01b0319166001600160a01b038416179055620000c46001805460ff60a01b1916600160a01b179055565b50505062000194565b600154600160a01b900460ff166200012b5760405162461bcd60e51b815260206004820152601f60248201527f5265656e7472616e637947756172643a207265656e7472616e742063616c6c00604482015260640160405180910390fd5b565b80516001600160a01b03811681146200014557600080fd5b919050565b6000806000606084860312156200016057600080fd5b6200016b846200012d565b92506200017b602085016200012d565b91506200018b604085016200012d565b90509250925092565b6110a580620001a46000396000f3fe608060405234801561001057600080fd5b50600436106100625760003560e01c80631c39c38d1461006757806322f8e5661461009057806329cb924d146100a557806346421382146100bb5780634ead6e51146100ce578063be19f0a7146100f3575b600080fd5b60015461007a906001600160a01b031681565b6040516100879190610b48565b60405180910390f35b6100a361009e366004610b5c565b610106565b005b6100ad61017c565b604051908152602001610087565b61007a6100c9366004610ca4565b610220565b6100e16100dc366004610e24565b610590565b60405160ff9091168152602001610087565b60025461007a906001600160a01b031681565b6001546001600160a01b031661011b57600080fd5b60015460405163117c72b360e11b8152600481018390526001600160a01b03909116906322f8e56690602401600060405180830381600087803b15801561016157600080fd5b505af1158015610175573d6000803e3d6000fd5b5050505050565b6001546000906001600160a01b03161561021b57600160009054906101000a90046001600160a01b03166001600160a01b03166329cb924d6040518163ffffffff1660e01b815260040160206040518083038186803b1580156101de57600080fd5b505afa1580156101f2573d6000803e3d6000fd5b505050506040513d601f19601f820116820180604052508101906102169190610e48565b905090565b504290565b600061022a61060d565b61023c6001805460ff60a01b19169055565b60808201515161028c5760405162461bcd60e51b81526020600482015260166024820152754d697373696e672073796e746865746963206e616d6560501b60448201526064015b60405180910390fd5b60a0820151516102d95760405162461bcd60e51b8152602060048201526018602482015277135a5cdcda5b99c81cde5b9d1a195d1a58c81cde5b589bdb60421b6044820152606401610283565b60025460208301516001600160a01b03909116906000906102f990610590565b608085015160a086015160405163e8a0aed360e01b81529293506000926001600160a01b0386169263e8a0aed392610335928790600401610eae565b602060405180830381600087803b15801561034f57600080fd5b505af1158015610363573d6000803e3d6000fd5b505050506040513d601f19601f820116820180604052508101906103879190610ee7565b9050600073218cd8224041904128Ac236960dC8e6B2b04808663bdc3f2446103af8885610668565b6040518263ffffffff1660e01b81526004016103cb9190610f04565b60206040518083038186803b1580156103e357600080fd5b505af41580156103f7573d6000803e3d6000fd5b505050506040513d601f19601f8201168201806040525081019061041b9190610ee7565b604051634c1d96ab60e11b81529091506001600160a01b0383169063983b2d569061044a908490600401610b48565b600060405180830381600087803b15801561046457600080fd5b505af1158015610478573d6000803e3d6000fd5b5050604051637a231bdd60e11b81526001600160a01b038516925063f44637ba91506104a8908490600401610b48565b600060405180830381600087803b1580156104c257600080fd5b505af11580156104d6573d6000803e3d6000fd5b50506040516339e6401560e11b81526001600160a01b03851692506373cc802a9150610506908490600401610b48565b600060405180830381600087803b15801561052057600080fd5b505af1158015610534573d6000803e3d6000fd5b50506040513392506001600160a01b03841691507ff360b00b309dfe6565667df6b06eab15d0e0958d5e82d89a399ae7dd417b4b0990600090a3935050505061058b6001805460ff60a01b1916600160a01b179055565b919050565b6000816001600160a01b031663313ce5676040518163ffffffff1660e01b815260040160206040518083038186803b1580156105cb57600080fd5b505afa9250505080156105fb575060408051601f3d908101601f191682019092526105f89181019061102a565b60015b61060757506012919050565b92915050565b600154600160a01b900460ff166106665760405162461bcd60e51b815260206004820152601f60248201527f5265656e7472616e637947756172643a207265656e7472616e742063616c6c006044820152606401610283565b565b610670610a58565b6000546001600160a01b0390811660808301526001541660a08201526101808301516106de5760405162461bcd60e51b815260206004820152601f60248201527f5769746864726177616c206c6976656e6573732063616e6e6f742062652030006044820152606401610283565b6101a08301516107305760405162461bcd60e51b815260206004820181905260248201527f4c69717569646174696f6e206c6976656e6573732063616e6e6f7420626520306044820152606401610283565b8251421061077a5760405162461bcd60e51b8152602060048201526017602482015276496e76616c69642065787069726174696f6e2074696d6560481b6044820152606401610283565b61078783602001516108f6565b63bb744800836101800151106107df5760405162461bcd60e51b815260206004820152601d60248201527f5769746864726177616c206c6976656e65737320746f6f206c617267650000006044820152606401610283565b63bb744800836101a00151106108375760405162461bcd60e51b815260206004820152601e60248201527f4c69717569646174696f6e206c6976656e65737320746f6f206c6172676500006044820152606401610283565b6001600160a01b0391821660608083019190915283518252602080850151841660408085019190915285015160e080850191909152918501516101008085019190915260c08087015161018080870191909152938701516101a080870191909152918701516101c080870191909152610120808901516101e0880152610140808a015191880191909152610160808a01519188019190915294880151938601939093529086015192840192909252909301519091169181019190915290565b600080546040516302abf57960e61b81527210dbdb1b185d195c985b15da1a5d195b1a5cdd606a1b60048201526001600160a01b039091169190829063aafd5e409060240160206040518083038186803b15801561095357600080fd5b505afa158015610967573d6000803e3d6000fd5b505050506040513d601f19601f8201168201806040525081019061098b9190610ee7565b604051631d1d5b3960e11b81529091506001600160a01b03821690633a3ab672906109ba908690600401610b48565b60206040518083038186803b1580156109d257600080fd5b505afa1580156109e6573d6000803e3d6000fd5b505050506040513d601f19601f82011682018060405250810190610a0a919061104d565b610a535760405162461bcd60e51b815260206004820152601a60248201527910dbdb1b185d195c985b081b9bdd081dda1a5d195b1a5cdd195960321b6044820152606401610283565b505050565b604051806102000160405280600081526020016000815260200160006001600160a01b0316815260200160006001600160a01b0316815260200160006001600160a01b0316815260200160006001600160a01b0316815260200160006001600160a01b031681526020016000801916815260200160608152602001610adb610b28565b8152602001610ae8610b28565b815260200160008152602001610afc610b28565b8152602001610b09610b28565b8152602001610b16610b28565b8152602001610b23610b28565b905290565b6040518060200160405280600081525090565b6001600160a01b03169052565b6001600160a01b0391909116815260200190565b600060208284031215610b6e57600080fd5b5035919050565b634e487b7160e01b600052604160045260246000fd5b6040516101e081016001600160401b0381118282101715610bae57610bae610b75565b60405290565b6001600160a01b0381168114610bc957600080fd5b50565b803561058b81610bb4565b600082601f830112610be857600080fd5b81356001600160401b0380821115610c0257610c02610b75565b604051601f8301601f19908116603f01168101908282118183101715610c2a57610c2a610b75565b81604052838152866020858801011115610c4357600080fd5b836020870160208301376000602085830101528094505050505092915050565b600060208284031215610c7557600080fd5b604051602081018181106001600160401b0382111715610c9757610c97610b75565b6040529135825250919050565b600060208284031215610cb657600080fd5b81356001600160401b0380821115610ccd57600080fd5b908301906101e08286031215610ce257600080fd5b610cea610b8b565b82358152610cfa60208401610bcc565b602082015260408301356040820152606083013582811115610d1b57600080fd5b610d2787828601610bd7565b606083015250608083013582811115610d3f57600080fd5b610d4b87828601610bd7565b60808301525060a083013582811115610d6357600080fd5b610d6f87828601610bd7565b60a083015250610d828660c08501610c63565b60c0820152610d948660e08501610c63565b60e08201526101009150610daa86838501610c63565b828201526101209150610dbf86838501610c63565b828201526101409150610dd486838501610c63565b828201526101609150610de986838501610c63565b9181019190915261018082810135908201526101a080830135908201526101c090610e15828401610bcc565b91810191909152949350505050565b600060208284031215610e3657600080fd5b8135610e4181610bb4565b9392505050565b600060208284031215610e5a57600080fd5b5051919050565b6000815180845260005b81811015610e8757602081850181015186830182015201610e6b565b81811115610e99576000602083870101525b50601f01601f19169290920160200192915050565b606081526000610ec16060830186610e61565b8281036020840152610ed38186610e61565b91505060ff83166040830152949350505050565b600060208284031215610ef957600080fd5b8151610e4181610bb4565b60208152815160208201526020820151604082015260006040830151610f2d6060840182610b3b565b506060830151610f406080840182610b3b565b506080830151610f5360a0840182610b3b565b5060a0830151610f6660c0840182610b3b565b5060c0830151610f7960e0840182610b3b565b5060e083015161010083810191909152830151610200610120808501829052610fa6610220860184610e61565b90860151909250610140610fbc86820183519052565b8601519050610160610fd086820183519052565b8601516101808681019190915286015190506101a0610ff181870183519052565b86015190506101c061100586820183519052565b86015190506101e061101986820183519052565b909501515193019290925250919050565b60006020828403121561103c57600080fd5b815160ff81168114610e4157600080fd5b60006020828403121561105f57600080fd5b81518015158114610e4157600080fdfea2646970667358221220ee6ca685dde6beeac9e715fb56aa2d70221d96d006f5c2d2281645420be5a6cc64736f6c63430008090033",
  "deployedBytecode": "0x608060405234801561001057600080fd5b50600436106100625760003560e01c80631c39c38d1461006757806322f8e5661461009057806329cb924d146100a557806346421382146100bb5780634ead6e51146100ce578063be19f0a7146100f3575b600080fd5b60015461007a906001600160a01b031681565b6040516100879190610b48565b60405180910390f35b6100a361009e366004610b5c565b610106565b005b6100ad61017c565b604051908152602001610087565b61007a6100c9366004610ca4565b610220565b6100e16100dc366004610e24565b610590565b60405160ff9091168152602001610087565b60025461007a906001600160a01b031681565b6001546001600160a01b031661011b57600080fd5b60015460405163117c72b360e11b8152600481018390526001600160a01b03909116906322f8e56690602401600060405180830381600087803b15801561016157600080fd5b505af1158015610175573d6000803e3d6000fd5b5050505050565b6001546000906001600160a01b03161561021b57600160009054906101000a90046001600160a01b03166001600160a01b03166329cb924d6040518163ffffffff1660e01b815260040160206040518083038186803b1580156101de57600080fd5b505afa1580156101f2573d6000803e3d6000fd5b505050506040513d601f19601f820116820180604052508101906102169190610e48565b905090565b504290565b600061022a61060d565b61023c6001805460ff60a01b19169055565b60808201515161028c5760405162461bcd60e51b81526020600482015260166024820152754d697373696e672073796e746865746963206e616d6560501b60448201526064015b60405180910390fd5b60a0820151516102d95760405162461bcd60e51b8152602060048201526018602482015277135a5cdcda5b99c81cde5b9d1a195d1a58c81cde5b589bdb60421b6044820152606401610283565b60025460208301516001600160a01b03909116906000906102f990610590565b608085015160a086015160405163e8a0aed360e01b81529293506000926001600160a01b0386169263e8a0aed392610335928790600401610eae565b602060405180830381600087803b15801561034f57600080fd5b505af1158015610363573d6000803e3d6000fd5b505050506040513d601f19601f820116820180604052508101906103879190610ee7565b9050600073__$21e60bc296c62428f635fc2d2b29917d95$__63bdc3f2446103af8885610668565b6040518263ffffffff1660e01b81526004016103cb9190610f04565b60206040518083038186803b1580156103e357600080fd5b505af41580156103f7573d6000803e3d6000fd5b505050506040513d601f19601f8201168201806040525081019061041b9190610ee7565b604051634c1d96ab60e11b81529091506001600160a01b0383169063983b2d569061044a908490600401610b48565b600060405180830381600087803b15801561046457600080fd5b505af1158015610478573d6000803e3d6000fd5b5050604051637a231bdd60e11b81526001600160a01b038516925063f44637ba91506104a8908490600401610b48565b600060405180830381600087803b1580156104c257600080fd5b505af11580156104d6573d6000803e3d6000fd5b50506040516339e6401560e11b81526001600160a01b03851692506373cc802a9150610506908490600401610b48565b600060405180830381600087803b15801561052057600080fd5b505af1158015610534573d6000803e3d6000fd5b50506040513392506001600160a01b03841691507ff360b00b309dfe6565667df6b06eab15d0e0958d5e82d89a399ae7dd417b4b0990600090a3935050505061058b6001805460ff60a01b1916600160a01b179055565b919050565b6000816001600160a01b031663313ce5676040518163ffffffff1660e01b815260040160206040518083038186803b1580156105cb57600080fd5b505afa9250505080156105fb575060408051601f3d908101601f191682019092526105f89181019061102a565b60015b61060757506012919050565b92915050565b600154600160a01b900460ff166106665760405162461bcd60e51b815260206004820152601f60248201527f5265656e7472616e637947756172643a207265656e7472616e742063616c6c006044820152606401610283565b565b610670610a58565b6000546001600160a01b0390811660808301526001541660a08201526101808301516106de5760405162461bcd60e51b815260206004820152601f60248201527f5769746864726177616c206c6976656e6573732063616e6e6f742062652030006044820152606401610283565b6101a08301516107305760405162461bcd60e51b815260206004820181905260248201527f4c69717569646174696f6e206c6976656e6573732063616e6e6f7420626520306044820152606401610283565b8251421061077a5760405162461bcd60e51b8152602060048201526017602482015276496e76616c69642065787069726174696f6e2074696d6560481b6044820152606401610283565b61078783602001516108f6565b63bb744800836101800151106107df5760405162461bcd60e51b815260206004820152601d60248201527f5769746864726177616c206c6976656e65737320746f6f206c617267650000006044820152606401610283565b63bb744800836101a00151106108375760405162461bcd60e51b815260206004820152601e60248201527f4c69717569646174696f6e206c6976656e65737320746f6f206c6172676500006044820152606401610283565b6001600160a01b0391821660608083019190915283518252602080850151841660408085019190915285015160e080850191909152918501516101008085019190915260c08087015161018080870191909152938701516101a080870191909152918701516101c080870191909152610120808901516101e0880152610140808a015191880191909152610160808a01519188019190915294880151938601939093529086015192840192909252909301519091169181019190915290565b600080546040516302abf57960e61b81527210dbdb1b185d195c985b15da1a5d195b1a5cdd606a1b60048201526001600160a01b039091169190829063aafd5e409060240160206040518083038186803b15801561095357600080fd5b505afa158015610967573d6000803e3d6000fd5b505050506040513d601f19601f8201168201806040525081019061098b9190610ee7565b604051631d1d5b3960e11b81529091506001600160a01b03821690633a3ab672906109ba908690600401610b48565b60206040518083038186803b1580156109d257600080fd5b505afa1580156109e6573d6000803e3d6000fd5b505050506040513d601f19601f82011682018060405250810190610a0a919061104d565b610a535760405162461bcd60e51b815260206004820152601a60248201527910dbdb1b185d195c985b081b9bdd081dda1a5d195b1a5cdd195960321b6044820152606401610283565b505050565b604051806102000160405280600081526020016000815260200160006001600160a01b0316815260200160006001600160a01b0316815260200160006001600160a01b0316815260200160006001600160a01b0316815260200160006001600160a01b031681526020016000801916815260200160608152602001610adb610b28565b8152602001610ae8610b28565b815260200160008152602001610afc610b28565b8152602001610b09610b28565b8152602001610b16610b28565b8152602001610b23610b28565b905290565b6040518060200160405280600081525090565b6001600160a01b03169052565b6001600160a01b0391909116815260200190565b600060208284031215610b6e57600080fd5b5035919050565b634e487b7160e01b600052604160045260246000fd5b6040516101e081016001600160401b0381118282101715610bae57610bae610b75565b60405290565b6001600160a01b0381168114610bc957600080fd5b50565b803561058b81610bb4565b600082601f830112610be857600080fd5b81356001600160401b0380821115610c0257610c02610b75565b604051601f8301601f19908116603f01168101908282118183101715610c2a57610c2a610b75565b81604052838152866020858801011115610c4357600080fd5b836020870160208301376000602085830101528094505050505092915050565b600060208284031215610c7557600080fd5b604051602081018181106001600160401b0382111715610c9757610c97610b75565b6040529135825250919050565b600060208284031215610cb657600080fd5b81356001600160401b0380821115610ccd57600080fd5b908301906101e08286031215610ce257600080fd5b610cea610b8b565b82358152610cfa60208401610bcc565b602082015260408301356040820152606083013582811115610d1b57600080fd5b610d2787828601610bd7565b606083015250608083013582811115610d3f57600080fd5b610d4b87828601610bd7565b60808301525060a083013582811115610d6357600080fd5b610d6f87828601610bd7565b60a083015250610d828660c08501610c63565b60c0820152610d948660e08501610c63565b60e08201526101009150610daa86838501610c63565b828201526101209150610dbf86838501610c63565b828201526101409150610dd486838501610c63565b828201526101609150610de986838501610c63565b9181019190915261018082810135908201526101a080830135908201526101c090610e15828401610bcc565b91810191909152949350505050565b600060208284031215610e3657600080fd5b8135610e4181610bb4565b9392505050565b600060208284031215610e5a57600080fd5b5051919050565b6000815180845260005b81811015610e8757602081850181015186830182015201610e6b565b81811115610e99576000602083870101525b50601f01601f19169290920160200192915050565b606081526000610ec16060830186610e61565b8281036020840152610ed38186610e61565b91505060ff83166040830152949350505050565b600060208284031215610ef957600080fd5b8151610e4181610bb4565b60208152815160208201526020820151604082015260006040830151610f2d6060840182610b3b565b506060830151610f406080840182610b3b565b506080830151610f5360a0840182610b3b565b5060a0830151610f6660c0840182610b3b565b5060c0830151610f7960e0840182610b3b565b5060e083015161010083810191909152830151610200610120808501829052610fa6610220860184610e61565b90860151909250610140610fbc86820183519052565b8601519050610160610fd086820183519052565b8601516101808681019190915286015190506101a0610ff181870183519052565b86015190506101c061100586820183519052565b86015190506101e061101986820183519052565b909501515193019290925250919050565b60006020828403121561103c57600080fd5b815160ff81168114610e4157600080fd5b60006020828403121561105f57600080fd5b81518015158114610e4157600080fdfea2646970667358221220ee6ca685dde6beeac9e715fb56aa2d70221d96d006f5c2d2281645420be5a6cc64736f6c63430008090033",
  "libraries": {
    "ExpiringMultiPartyLib": "0x218cd8224041904128Ac236960dC8e6B2b048086"
  },
  "devdoc": {
    "kind": "dev",
    "methods": {
      "constructor": {
        "params": {
          "_finderAddress": "UMA protocol Finder used to discover other protocol contracts.",
          "_timerAddress": "Contract that stores the current time in a testing environment.",
          "_tokenFactoryAddress": "ERC20 token factory used to deploy synthetic token instances."
        }
      },
      "createExpiringMultiParty((uint256,address,bytes32,bytes,string,string,(uint256),(uint256),(uint256),(uint256),(uint256),(uint256),uint256,uint256,address))": {
        "params": {
          "params": "is a `ConstructorParams` object from ExpiringMultiParty."
        },
        "returns": {
          "_0": "address of the deployed ExpiringMultiParty contract."
        }
      },
      "getCurrentTime()": {
        "returns": {
          "_0": "uint for the current Testable timestamp."
        }
      },
      "setCurrentTime(uint256)": {
        "details": "Will revert if not running in test mode.",
        "params": {
          "time": "timestamp to set current Testable time to."
        }
      }
    },
    "title": "Expiring Multi Party Contract creator.",
    "version": 1
  },
  "userdoc": {
    "kind": "user",
    "methods": {
      "constructor": {
        "notice": "Constructs the ExpiringMultiPartyCreator contract."
      },
      "createExpiringMultiParty((uint256,address,bytes32,bytes,string,string,(uint256),(uint256),(uint256),(uint256),(uint256),(uint256),uint256,uint256,address))": {
        "notice": "Creates an instance of expiring multi party and registers it within the registry."
      },
      "getCurrentTime()": {
        "notice": "Gets the current time. Will return the last time set in `setCurrentTime` if running in test mode. Otherwise, it will return the block timestamp."
      },
      "setCurrentTime(uint256)": {
        "notice": "Sets the current time."
      }
    },
    "notice": "Factory contract to create and register new instances of expiring multiparty contracts. Responsible for constraining the parameters used to construct a new EMP. This creator contains a number of constraints that are applied to newly created expiring multi party contract. These constraints can evolve over time and are initially constrained to conservative values in this first iteration. Technically there is nothing in the ExpiringMultiParty contract requiring these constraints. However, because `createExpiringMultiParty()` is intended to be the only way to create valid financial contracts that are registered with the DVM (via _registerContract), we can enforce deployment configurations here.",
    "version": 1
  },
  "storageLayout": {
    "storage": [
      {
        "astId": 11191,
        "contract": "contracts/UMA/financial-templates/expiring-multiparty/ExpiringMultiPartyCreator.sol:ExpiringMultiPartyCreator",
        "label": "finderAddress",
        "offset": 0,
        "slot": "0",
        "type": "t_address"
      },
      {
        "astId": 6806,
        "contract": "contracts/UMA/financial-templates/expiring-multiparty/ExpiringMultiPartyCreator.sol:ExpiringMultiPartyCreator",
        "label": "timerAddress",
        "offset": 0,
        "slot": "1",
        "type": "t_address"
      },
      {
        "astId": 6103,
        "contract": "contracts/UMA/financial-templates/expiring-multiparty/ExpiringMultiPartyCreator.sol:ExpiringMultiPartyCreator",
        "label": "_notEntered",
        "offset": 20,
        "slot": "1",
        "type": "t_bool"
      },
      {
        "astId": 7346,
        "contract": "contracts/UMA/financial-templates/expiring-multiparty/ExpiringMultiPartyCreator.sol:ExpiringMultiPartyCreator",
        "label": "tokenFactoryAddress",
        "offset": 0,
        "slot": "2",
        "type": "t_address"
      }
    ],
    "types": {
      "t_address": {
        "encoding": "inplace",
        "label": "address",
        "numberOfBytes": "20"
      },
      "t_bool": {
        "encoding": "inplace",
        "label": "bool",
        "numberOfBytes": "1"
      }
    }
  }
}