{
  "address": "0x9167019CB1D7Fac890Ea69Ffdaf7d28cB53A579D",
  "abi": [
    {
      "inputs": [
        {
          "internalType": "address",
          "name": "_finderAddress",
          "type": "address"
        },
        {
          "internalType": "address",
          "name": "_tokenFactoryAddress",
          "type": "address"
        },
        {
          "internalType": "address",
          "name": "_timerAddress",
          "type": "address"
        }
      ],
      "stateMutability": "nonpayable",
      "type": "constructor"
    },
    {
      "anonymous": false,
      "inputs": [
        {
          "indexed": true,
          "internalType": "address",
          "name": "expiringMultiPartyAddress",
          "type": "address"
        },
        {
          "indexed": true,
          "internalType": "address",
          "name": "deployerAddress",
          "type": "address"
        }
      ],
      "name": "CreatedExpiringMultiParty",
      "type": "event"
    },
    {
      "inputs": [
        {
          "internalType": "address",
          "name": "_collateralAddress",
          "type": "address"
        }
      ],
      "name": "_getSyntheticDecimals",
      "outputs": [
        {
          "internalType": "uint8",
          "name": "decimals",
          "type": "uint8"
        }
      ],
      "stateMutability": "view",
      "type": "function"
    },
    {
      "inputs": [
        {
          "components": [
            {
              "internalType": "uint256",
              "name": "expirationTimestamp",
              "type": "uint256"
            },
            {
              "internalType": "address",
              "name": "collateralAddress",
              "type": "address"
            },
            {
              "internalType": "bytes32",
              "name": "priceFeedIdentifier",
              "type": "bytes32"
            },
            {
              "internalType": "string",
              "name": "syntheticName",
              "type": "string"
            },
            {
              "internalType": "string",
              "name": "syntheticSymbol",
              "type": "string"
            },
            {
              "components": [
                {
                  "internalType": "uint256",
                  "name": "rawValue",
                  "type": "uint256"
                }
              ],
              "internalType": "struct FixedPoint.Unsigned",
              "name": "collateralRequirement",
              "type": "tuple"
            },
            {
              "components": [
                {
                  "internalType": "uint256",
                  "name": "rawValue",
                  "type": "uint256"
                }
              ],
              "internalType": "struct FixedPoint.Unsigned",
              "name": "disputeBondPercentage",
              "type": "tuple"
            },
            {
              "components": [
                {
                  "internalType": "uint256",
                  "name": "rawValue",
                  "type": "uint256"
                }
              ],
              "internalType": "struct FixedPoint.Unsigned",
              "name": "sponsorDisputeRewardPercentage",
              "type": "tuple"
            },
            {
              "components": [
                {
                  "internalType": "uint256",
                  "name": "rawValue",
                  "type": "uint256"
                }
              ],
              "internalType": "struct FixedPoint.Unsigned",
              "name": "disputerDisputeRewardPercentage",
              "type": "tuple"
            },
            {
              "components": [
                {
                  "internalType": "uint256",
                  "name": "rawValue",
                  "type": "uint256"
                }
              ],
              "internalType": "struct FixedPoint.Unsigned",
              "name": "minSponsorTokens",
              "type": "tuple"
            },
            {
              "internalType": "uint256",
              "name": "withdrawalLiveness",
              "type": "uint256"
            },
            {
              "internalType": "uint256",
              "name": "liquidationLiveness",
              "type": "uint256"
            },
            {
              "internalType": "address",
              "name": "financialProductLibraryAddress",
              "type": "address"
            }
          ],
          "internalType": "struct ExpiringMultiPartyCreator.Params",
          "name": "params",
          "type": "tuple"
        }
      ],
      "name": "createExpiringMultiParty",
      "outputs": [
        {
          "internalType": "address",
          "name": "",
          "type": "address"
        }
      ],
      "stateMutability": "nonpayable",
      "type": "function"
    },
    {
      "inputs": [],
      "name": "getCurrentTime",
      "outputs": [
        {
          "internalType": "uint256",
          "name": "",
          "type": "uint256"
        }
      ],
      "stateMutability": "view",
      "type": "function"
    },
    {
      "inputs": [
        {
          "internalType": "uint256",
          "name": "time",
          "type": "uint256"
        }
      ],
      "name": "setCurrentTime",
      "outputs": [],
      "stateMutability": "nonpayable",
      "type": "function"
    },
    {
      "inputs": [],
      "name": "timerAddress",
      "outputs": [
        {
          "internalType": "address",
          "name": "",
          "type": "address"
        }
      ],
      "stateMutability": "view",
      "type": "function"
    },
    {
      "inputs": [],
      "name": "tokenFactoryAddress",
      "outputs": [
        {
          "internalType": "address",
          "name": "",
          "type": "address"
        }
      ],
      "stateMutability": "view",
      "type": "function"
    }
  ],
  "transactionHash": "0xb2b5bc111157f6e1546e1520990043f12d51bee689a149e9c321c3d811a04644",
  "args": [
    "0xE60dBa66B85E10E7Fd18a67a6859E241A243950e",
    "0x7330653772061128Ac65FC9B828D61f47ccCddF8",
    "0x8E68d62871B70df27DCd8Dbfb5bF4BCfccAA4f26"
  ],
  "numDeployments": 1,
  "solcInputHash": "1e68da7ce4bd93b091caf47b8ff3a37d",
  "bytecode": "0x60806040523480156200001157600080fd5b50604051620011663803806200116683398101604081905262000034916200014a565b600080546001600160a01b038086166001600160a01b031990921691909117909155600180546001600160a81b03191691831691909117600160a01b1790556200007d620000cd565b620000906001805460ff60a01b19169055565b600280546001600160a01b0319166001600160a01b038416179055620000c46001805460ff60a01b1916600160a01b179055565b50505062000194565b600154600160a01b900460ff166200012b5760405162461bcd60e51b815260206004820152601f60248201527f5265656e7472616e637947756172643a207265656e7472616e742063616c6c00604482015260640160405180910390fd5b565b80516001600160a01b03811681146200014557600080fd5b919050565b6000806000606084860312156200016057600080fd5b6200016b846200012d565b92506200017b602085016200012d565b91506200018b604085016200012d565b90509250925092565b610fc280620001a46000396000f3fe608060405234801561001057600080fd5b50600436106100625760003560e01c80631c39c38d1461006757806322f8e5661461009757806329cb924d146100ac5780634ead6e51146100c2578063be19f0a7146100e7578063de467268146100fa575b600080fd5b60015461007a906001600160a01b031681565b6040516001600160a01b0390911681526020015b60405180910390f35b6100aa6100a5366004610ad8565b61010d565b005b6100b4610183565b60405190815260200161008e565b6100d56100d0366004610b14565b610227565b60405160ff909116815260200161008e565b60025461007a906001600160a01b031681565b61007a610108366004610c47565b6102a9565b6001546001600160a01b031661012257600080fd5b60015460405163117c72b360e11b8152600481018390526001600160a01b03909116906322f8e56690602401600060405180830381600087803b15801561016857600080fd5b505af115801561017c573d6000803e3d6000fd5b5050505050565b6001546000906001600160a01b03161561022257600160009054906101000a90046001600160a01b03166001600160a01b03166329cb924d6040518163ffffffff1660e01b815260040160206040518083038186803b1580156101e557600080fd5b505afa1580156101f9573d6000803e3d6000fd5b505050506040513d601f19601f8201168201806040525081019061021d9190610d8c565b905090565b504290565b6000816001600160a01b031663313ce5676040518163ffffffff1660e01b815260040160206040518083038186803b15801561026257600080fd5b505afa925050508015610292575060408051601f3d908101601f1916820190925261028f91810190610da5565b60015b61029e57506012919050565b92915050565b919050565b60006102b3610611565b6102c56001805460ff60a01b19169055565b6060820151516103155760405162461bcd60e51b81526020600482015260166024820152754d697373696e672073796e746865746963206e616d6560501b60448201526064015b60405180910390fd5b6080820151516103675760405162461bcd60e51b815260206004820152601860248201527f4d697373696e672073796e7468657469632073796d626f6c0000000000000000604482015260640161030c565b60025460208301516001600160a01b039091169060009061038790610227565b6060850151608086015160405163e8a0aed360e01b81529293506000926001600160a01b0386169263e8a0aed3926103c3928790600401610e15565b602060405180830381600087803b1580156103dd57600080fd5b505af11580156103f1573d6000803e3d6000fd5b505050506040513d601f19601f820116820180604052508101906104159190610e4e565b9050600073982e4e1a299353331f8A2E360f6D6c85BfD67c0063bdc3f24461043d888561066c565b6040518263ffffffff1660e01b81526004016104599190610e6b565b60206040518083038186803b15801561047157600080fd5b505af4158015610485573d6000803e3d6000fd5b505050506040513d601f19601f820116820180604052508101906104a99190610e4e565b604051634c1d96ab60e11b81526001600160a01b0380831660048301529192509083169063983b2d5690602401600060405180830381600087803b1580156104f057600080fd5b505af1158015610504573d6000803e3d6000fd5b5050604051637a231bdd60e11b81526001600160a01b0384811660048301528516925063f44637ba9150602401600060405180830381600087803b15801561054b57600080fd5b505af115801561055f573d6000803e3d6000fd5b50506040516339e6401560e11b81526001600160a01b038481166004830152851692506373cc802a9150602401600060405180830381600087803b1580156105a657600080fd5b505af11580156105ba573d6000803e3d6000fd5b50506040513392506001600160a01b03841691507ff360b00b309dfe6565667df6b06eab15d0e0958d5e82d89a399ae7dd417b4b0990600090a393505050506102a46001805460ff60a01b1916600160a01b179055565b600154600160a01b900460ff1661066a5760405162461bcd60e51b815260206004820152601f60248201527f5265656e7472616e637947756172643a207265656e7472616e742063616c6c00604482015260640161030c565b565b61070c604080516101c08101825260008082526020808301829052828401829052606083018290526080830182905260a0830182905260c0830182905260e0830182905283518082018552828152610100840152610120830182905283518082018552828152610140840152835180820185528281526101608401528351808201855282815261018084015283519081019093528252906101a082015290565b6000546001600160a01b0390811660808301526001541660a082015261014083015161077a5760405162461bcd60e51b815260206004820152601f60248201527f5769746864726177616c206c6976656e6573732063616e6e6f74206265203000604482015260640161030c565b6101608301516107cc5760405162461bcd60e51b815260206004820181905260248201527f4c69717569646174696f6e206c6976656e6573732063616e6e6f742062652030604482015260640161030c565b8251421061081c5760405162461bcd60e51b815260206004820152601760248201527f496e76616c69642065787069726174696f6e2074696d65000000000000000000604482015260640161030c565b6108298360200151610975565b63bb744800836101400151106108815760405162461bcd60e51b815260206004820152601d60248201527f5769746864726177616c206c6976656e65737320746f6f206c61726765000000604482015260640161030c565b63bb744800836101600151106108d95760405162461bcd60e51b815260206004820152601e60248201527f4c69717569646174696f6e206c6976656e65737320746f6f206c617267650000604482015260640161030c565b6001600160a01b03918216606082015282518152602080840151831660408084019190915284015160e08084019190915260a08501516101408085019190915260c080870151610160808701919091529287015161018080870191909152610100808901516101a0880152610120808a015191880191909152928801519486019490945291860151908401529301519091169181019190915290565b600080546040516302abf57960e61b81527210dbdb1b185d195c985b15da1a5d195b1a5cdd606a1b60048201526001600160a01b039091169190829063aafd5e409060240160206040518083038186803b1580156109d257600080fd5b505afa1580156109e6573d6000803e3d6000fd5b505050506040513d601f19601f82011682018060405250810190610a0a9190610e4e565b604051631d1d5b3960e11b81526001600160a01b03858116600483015291925090821690633a3ab6729060240160206040518083038186803b158015610a4f57600080fd5b505afa158015610a63573d6000803e3d6000fd5b505050506040513d601f19601f82011682018060405250810190610a879190610f6a565b610ad35760405162461bcd60e51b815260206004820152601a60248201527f436f6c6c61746572616c206e6f742077686974656c6973746564000000000000604482015260640161030c565b505050565b600060208284031215610aea57600080fd5b5035919050565b6001600160a01b0381168114610b0657600080fd5b50565b80356102a481610af1565b600060208284031215610b2657600080fd5b8135610b3181610af1565b9392505050565b634e487b7160e01b600052604160045260246000fd5b6040516101a0810167ffffffffffffffff81118282101715610b7257610b72610b38565b60405290565b600082601f830112610b8957600080fd5b813567ffffffffffffffff80821115610ba457610ba4610b38565b604051601f8301601f19908116603f01168101908282118183101715610bcc57610bcc610b38565b81604052838152866020858801011115610be557600080fd5b836020870160208301376000602085830101528094505050505092915050565b600060208284031215610c1757600080fd5b6040516020810181811067ffffffffffffffff82111715610c3a57610c3a610b38565b6040529135825250919050565b600060208284031215610c5957600080fd5b813567ffffffffffffffff80821115610c7157600080fd5b908301906101a08286031215610c8657600080fd5b610c8e610b4e565b82358152610c9e60208401610b09565b602082015260408301356040820152606083013582811115610cbf57600080fd5b610ccb87828601610b78565b606083015250608083013582811115610ce357600080fd5b610cef87828601610b78565b608083015250610d028660a08501610c05565b60a0820152610d148660c08501610c05565b60c0820152610d268660e08501610c05565b60e08201526101009150610d3c86838501610c05565b828201526101209150610d5186838501610c05565b918101919091526101408281013590820152610160808301359082015261018090610d7d828401610b09565b91810191909152949350505050565b600060208284031215610d9e57600080fd5b5051919050565b600060208284031215610db757600080fd5b815160ff81168114610b3157600080fd5b6000815180845260005b81811015610dee57602081850181015186830182015201610dd2565b81811115610e00576000602083870101525b50601f01601f19169290920160200192915050565b606081526000610e286060830186610dc8565b8281036020840152610e3a8186610dc8565b91505060ff83166040830152949350505050565b600060208284031215610e6057600080fd5b8151610b3181610af1565b60006101c08201905082518252602083015160208301526040830151610e9c60408401826001600160a01b03169052565b506060830151610eb760608401826001600160a01b03169052565b506080830151610ed260808401826001600160a01b03169052565b5060a0830151610eed60a08401826001600160a01b03169052565b5060c0830151610f0860c08401826001600160a01b03169052565b5060e083015160e083015261010080840151610f2682850182519052565b505061012083810151908301526101408084015151908301526101608084015151908301526101808084015151908301526101a09283015151929091019190915290565b600060208284031215610f7c57600080fd5b81518015158114610b3157600080fdfea264697066735822122080b26e836ba0b61c9771c3f195ce3bb4e485cae96a8b289717240f91dda5c1ef64736f6c63430008090033",
  "deployedBytecode": "0x608060405234801561001057600080fd5b50600436106100625760003560e01c80631c39c38d1461006757806322f8e5661461009757806329cb924d146100ac5780634ead6e51146100c2578063be19f0a7146100e7578063de467268146100fa575b600080fd5b60015461007a906001600160a01b031681565b6040516001600160a01b0390911681526020015b60405180910390f35b6100aa6100a5366004610ad8565b61010d565b005b6100b4610183565b60405190815260200161008e565b6100d56100d0366004610b14565b610227565b60405160ff909116815260200161008e565b60025461007a906001600160a01b031681565b61007a610108366004610c47565b6102a9565b6001546001600160a01b031661012257600080fd5b60015460405163117c72b360e11b8152600481018390526001600160a01b03909116906322f8e56690602401600060405180830381600087803b15801561016857600080fd5b505af115801561017c573d6000803e3d6000fd5b5050505050565b6001546000906001600160a01b03161561022257600160009054906101000a90046001600160a01b03166001600160a01b03166329cb924d6040518163ffffffff1660e01b815260040160206040518083038186803b1580156101e557600080fd5b505afa1580156101f9573d6000803e3d6000fd5b505050506040513d601f19601f8201168201806040525081019061021d9190610d8c565b905090565b504290565b6000816001600160a01b031663313ce5676040518163ffffffff1660e01b815260040160206040518083038186803b15801561026257600080fd5b505afa925050508015610292575060408051601f3d908101601f1916820190925261028f91810190610da5565b60015b61029e57506012919050565b92915050565b919050565b60006102b3610611565b6102c56001805460ff60a01b19169055565b6060820151516103155760405162461bcd60e51b81526020600482015260166024820152754d697373696e672073796e746865746963206e616d6560501b60448201526064015b60405180910390fd5b6080820151516103675760405162461bcd60e51b815260206004820152601860248201527f4d697373696e672073796e7468657469632073796d626f6c0000000000000000604482015260640161030c565b60025460208301516001600160a01b039091169060009061038790610227565b6060850151608086015160405163e8a0aed360e01b81529293506000926001600160a01b0386169263e8a0aed3926103c3928790600401610e15565b602060405180830381600087803b1580156103dd57600080fd5b505af11580156103f1573d6000803e3d6000fd5b505050506040513d601f19601f820116820180604052508101906104159190610e4e565b9050600073__$21e60bc296c62428f635fc2d2b29917d95$__63bdc3f24461043d888561066c565b6040518263ffffffff1660e01b81526004016104599190610e6b565b60206040518083038186803b15801561047157600080fd5b505af4158015610485573d6000803e3d6000fd5b505050506040513d601f19601f820116820180604052508101906104a99190610e4e565b604051634c1d96ab60e11b81526001600160a01b0380831660048301529192509083169063983b2d5690602401600060405180830381600087803b1580156104f057600080fd5b505af1158015610504573d6000803e3d6000fd5b5050604051637a231bdd60e11b81526001600160a01b0384811660048301528516925063f44637ba9150602401600060405180830381600087803b15801561054b57600080fd5b505af115801561055f573d6000803e3d6000fd5b50506040516339e6401560e11b81526001600160a01b038481166004830152851692506373cc802a9150602401600060405180830381600087803b1580156105a657600080fd5b505af11580156105ba573d6000803e3d6000fd5b50506040513392506001600160a01b03841691507ff360b00b309dfe6565667df6b06eab15d0e0958d5e82d89a399ae7dd417b4b0990600090a393505050506102a46001805460ff60a01b1916600160a01b179055565b600154600160a01b900460ff1661066a5760405162461bcd60e51b815260206004820152601f60248201527f5265656e7472616e637947756172643a207265656e7472616e742063616c6c00604482015260640161030c565b565b61070c604080516101c08101825260008082526020808301829052828401829052606083018290526080830182905260a0830182905260c0830182905260e0830182905283518082018552828152610100840152610120830182905283518082018552828152610140840152835180820185528281526101608401528351808201855282815261018084015283519081019093528252906101a082015290565b6000546001600160a01b0390811660808301526001541660a082015261014083015161077a5760405162461bcd60e51b815260206004820152601f60248201527f5769746864726177616c206c6976656e6573732063616e6e6f74206265203000604482015260640161030c565b6101608301516107cc5760405162461bcd60e51b815260206004820181905260248201527f4c69717569646174696f6e206c6976656e6573732063616e6e6f742062652030604482015260640161030c565b8251421061081c5760405162461bcd60e51b815260206004820152601760248201527f496e76616c69642065787069726174696f6e2074696d65000000000000000000604482015260640161030c565b6108298360200151610975565b63bb744800836101400151106108815760405162461bcd60e51b815260206004820152601d60248201527f5769746864726177616c206c6976656e65737320746f6f206c61726765000000604482015260640161030c565b63bb744800836101600151106108d95760405162461bcd60e51b815260206004820152601e60248201527f4c69717569646174696f6e206c6976656e65737320746f6f206c617267650000604482015260640161030c565b6001600160a01b03918216606082015282518152602080840151831660408084019190915284015160e08084019190915260a08501516101408085019190915260c080870151610160808701919091529287015161018080870191909152610100808901516101a0880152610120808a015191880191909152928801519486019490945291860151908401529301519091169181019190915290565b600080546040516302abf57960e61b81527210dbdb1b185d195c985b15da1a5d195b1a5cdd606a1b60048201526001600160a01b039091169190829063aafd5e409060240160206040518083038186803b1580156109d257600080fd5b505afa1580156109e6573d6000803e3d6000fd5b505050506040513d601f19601f82011682018060405250810190610a0a9190610e4e565b604051631d1d5b3960e11b81526001600160a01b03858116600483015291925090821690633a3ab6729060240160206040518083038186803b158015610a4f57600080fd5b505afa158015610a63573d6000803e3d6000fd5b505050506040513d601f19601f82011682018060405250810190610a879190610f6a565b610ad35760405162461bcd60e51b815260206004820152601a60248201527f436f6c6c61746572616c206e6f742077686974656c6973746564000000000000604482015260640161030c565b505050565b600060208284031215610aea57600080fd5b5035919050565b6001600160a01b0381168114610b0657600080fd5b50565b80356102a481610af1565b600060208284031215610b2657600080fd5b8135610b3181610af1565b9392505050565b634e487b7160e01b600052604160045260246000fd5b6040516101a0810167ffffffffffffffff81118282101715610b7257610b72610b38565b60405290565b600082601f830112610b8957600080fd5b813567ffffffffffffffff80821115610ba457610ba4610b38565b604051601f8301601f19908116603f01168101908282118183101715610bcc57610bcc610b38565b81604052838152866020858801011115610be557600080fd5b836020870160208301376000602085830101528094505050505092915050565b600060208284031215610c1757600080fd5b6040516020810181811067ffffffffffffffff82111715610c3a57610c3a610b38565b6040529135825250919050565b600060208284031215610c5957600080fd5b813567ffffffffffffffff80821115610c7157600080fd5b908301906101a08286031215610c8657600080fd5b610c8e610b4e565b82358152610c9e60208401610b09565b602082015260408301356040820152606083013582811115610cbf57600080fd5b610ccb87828601610b78565b606083015250608083013582811115610ce357600080fd5b610cef87828601610b78565b608083015250610d028660a08501610c05565b60a0820152610d148660c08501610c05565b60c0820152610d268660e08501610c05565b60e08201526101009150610d3c86838501610c05565b828201526101209150610d5186838501610c05565b918101919091526101408281013590820152610160808301359082015261018090610d7d828401610b09565b91810191909152949350505050565b600060208284031215610d9e57600080fd5b5051919050565b600060208284031215610db757600080fd5b815160ff81168114610b3157600080fd5b6000815180845260005b81811015610dee57602081850181015186830182015201610dd2565b81811115610e00576000602083870101525b50601f01601f19169290920160200192915050565b606081526000610e286060830186610dc8565b8281036020840152610e3a8186610dc8565b91505060ff83166040830152949350505050565b600060208284031215610e6057600080fd5b8151610b3181610af1565b60006101c08201905082518252602083015160208301526040830151610e9c60408401826001600160a01b03169052565b506060830151610eb760608401826001600160a01b03169052565b506080830151610ed260808401826001600160a01b03169052565b5060a0830151610eed60a08401826001600160a01b03169052565b5060c0830151610f0860c08401826001600160a01b03169052565b5060e083015160e083015261010080840151610f2682850182519052565b505061012083810151908301526101408084015151908301526101608084015151908301526101808084015151908301526101a09283015151929091019190915290565b600060208284031215610f7c57600080fd5b81518015158114610b3157600080fdfea264697066735822122080b26e836ba0b61c9771c3f195ce3bb4e485cae96a8b289717240f91dda5c1ef64736f6c63430008090033",
  "libraries": {
    "ExpiringMultiPartyLib": "0x982e4e1a299353331f8A2E360f6D6c85BfD67c00"
  },
  "devdoc": {
    "kind": "dev",
    "methods": {
      "constructor": {
        "params": {
          "_finderAddress": "UMA protocol Finder used to discover other protocol contracts.",
          "_timerAddress": "Contract that stores the current time in a testing environment.",
          "_tokenFactoryAddress": "ERC20 token factory used to deploy synthetic token instances."
        }
      },
      "createExpiringMultiParty((uint256,address,bytes32,string,string,(uint256),(uint256),(uint256),(uint256),(uint256),uint256,uint256,address))": {
        "params": {
          "params": "is a `ConstructorParams` object from ExpiringMultiParty."
        },
        "returns": {
          "_0": "address of the deployed ExpiringMultiParty contract."
        }
      },
      "getCurrentTime()": {
        "returns": {
          "_0": "uint for the current Testable timestamp."
        }
      },
      "setCurrentTime(uint256)": {
        "details": "Will revert if not running in test mode.",
        "params": {
          "time": "timestamp to set current Testable time to."
        }
      }
    },
    "title": "Expiring Multi Party Contract creator.",
    "version": 1
  },
  "userdoc": {
    "kind": "user",
    "methods": {
      "constructor": {
        "notice": "Constructs the ExpiringMultiPartyCreator contract."
      },
      "createExpiringMultiParty((uint256,address,bytes32,string,string,(uint256),(uint256),(uint256),(uint256),(uint256),uint256,uint256,address))": {
        "notice": "Creates an instance of expiring multi party and registers it within the registry."
      },
      "getCurrentTime()": {
        "notice": "Gets the current time. Will return the last time set in `setCurrentTime` if running in test mode. Otherwise, it will return the block timestamp."
      },
      "setCurrentTime(uint256)": {
        "notice": "Sets the current time."
      }
    },
    "notice": "Factory contract to create and register new instances of expiring multiparty contracts. Responsible for constraining the parameters used to construct a new EMP. This creator contains a number of constraints that are applied to newly created expiring multi party contract. These constraints can evolve over time and are initially constrained to conservative values in this first iteration. Technically there is nothing in the ExpiringMultiParty contract requiring these constraints. However, because `createExpiringMultiParty()` is intended to be the only way to create valid financial contracts that are registered with the DVM (via _registerContract), we can enforce deployment configurations here.",
    "version": 1
  },
  "storageLayout": {
    "storage": [
      {
        "astId": 12183,
        "contract": "contracts/UMA/financial-templates/expiring-multiparty/ExpiringMultiPartyCreator.sol:ExpiringMultiPartyCreator",
        "label": "finderAddress",
        "offset": 0,
        "slot": "0",
        "type": "t_address"
      },
      {
        "astId": 6806,
        "contract": "contracts/UMA/financial-templates/expiring-multiparty/ExpiringMultiPartyCreator.sol:ExpiringMultiPartyCreator",
        "label": "timerAddress",
        "offset": 0,
        "slot": "1",
        "type": "t_address"
      },
      {
        "astId": 6103,
        "contract": "contracts/UMA/financial-templates/expiring-multiparty/ExpiringMultiPartyCreator.sol:ExpiringMultiPartyCreator",
        "label": "_notEntered",
        "offset": 20,
        "slot": "1",
        "type": "t_bool"
      },
      {
        "astId": 8093,
        "contract": "contracts/UMA/financial-templates/expiring-multiparty/ExpiringMultiPartyCreator.sol:ExpiringMultiPartyCreator",
        "label": "tokenFactoryAddress",
        "offset": 0,
        "slot": "2",
        "type": "t_address"
      }
    ],
    "types": {
      "t_address": {
        "encoding": "inplace",
        "label": "address",
        "numberOfBytes": "20"
      },
      "t_bool": {
        "encoding": "inplace",
        "label": "bool",
        "numberOfBytes": "1"
      }
    }
  }
}