{
  "address": "0x52541084E19C3085efC73d769d13dF9B83eB479C",
  "abi": [
    {
      "inputs": [
        {
          "internalType": "string",
          "name": "tokenName",
          "type": "string"
        },
        {
          "internalType": "string",
          "name": "tokenSymbol",
          "type": "string"
        },
        {
          "internalType": "uint8",
          "name": "tokenDecimals",
          "type": "uint8"
        }
      ],
      "name": "createToken",
      "outputs": [
        {
          "internalType": "contract ExpandedIERC20",
          "name": "newToken",
          "type": "address"
        }
      ],
      "stateMutability": "nonpayable",
      "type": "function"
    }
  ],
  "transactionHash": "0xf30e2b1261a97cd6b58c406d39635e31713bf3b02305d7ce648d6715417d1372",
  "args": [],
  "numDeployments": 1,
  "solcInputHash": "efe1eb67fa45fe49331d4dcf75dfd7fb",
  "bytecode": "0x608060405234801561001057600080fd5b506000805460ff191660011790556121468061002d6000396000f3fe60806040523480156200001157600080fd5b50600436106200002e5760003560e01c8063e8a0aed31462000033575b600080fd5b6200004a62000044366004620001f8565b62000062565b60405162000059919062000289565b60405180910390f35b60006200006e62000146565b6200007e6000805460ff19169055565b6000868686868660405162000093906200019f565b620000a3959493929190620002c6565b604051809103906000f080158015620000c0573d6000803e3d6000fd5b506040516339e6401560e11b81529091506001600160a01b038216906373cc802a90620000f290339060040162000289565b600060405180830381600087803b1580156200010d57600080fd5b505af115801562000122573d6000803e3d6000fd5b50505050809150506200013d6000805460ff19166001179055565b95945050505050565b60005460ff166200019d5760405162461bcd60e51b815260206004820152601f60248201527f5265656e7472616e637947756172643a207265656e7472616e742063616c6c00604482015260640160405180910390fd5b565b611e09806200030883390190565b60008083601f840112620001c057600080fd5b5081356001600160401b03811115620001d857600080fd5b602083019150836020828501011115620001f157600080fd5b9250929050565b6000806000806000606086880312156200021157600080fd5b85356001600160401b03808211156200022957600080fd5b6200023789838a01620001ad565b909750955060208801359150808211156200025157600080fd5b506200026088828901620001ad565b909450925050604086013560ff811681146200027b57600080fd5b809150509295509295909350565b6001600160a01b0391909116815260200190565b81835281816020850137506000828201602090810191909152601f909101601f19169091010190565b606081526000620002dc6060830187896200029d565b8281036020840152620002f18186886200029d565b91505060ff83166040830152969550505050505056fe60806040523480156200001157600080fd5b5060405162001e0938038062001e098339810160408190526200003491620006c4565b828282828281600390805190602001906200005192919062000551565b5080516200006790600490602084019062000551565b50506006805460ff191660ff8416179055506200008760008033620000fb565b620000a460015b604080516000808252602082019092526200024c565b620000b060026200008e565b50506006805461ff00191661010017905550620000cc62000393565b620000dd6006805461ff0019169055565b620000f26006805461ff001916610100179055565b505050620007dc565b826000808281526005602052604090206001015460ff16600281111562000126576200012662000749565b14620001795760405162461bcd60e51b815260206004820152601e60248201527f43616e6e6f74207573652061207072652d6578697374696e6720726f6c65000060448201526064015b60405180910390fd5b60008481526005602052604090206001808201805460ff191682800217905550838155620001b76002820184620003ee602090811b62000b2d17901c565b60008481526005602052604081206001015460ff166002811115620001e057620001e062000749565b1415620002455760405162461bcd60e51b815260206004820152603c602482015260008051602062001de983398151915260448201527f20746f206d616e61676520616e206578636c757369766520726f6c6500000000606482015260840162000170565b5050505050565b826000808281526005602052604090206001015460ff16600281111562000277576200027762000749565b14620002c65760405162461bcd60e51b815260206004820152601e60248201527f43616e6e6f74207573652061207072652d6578697374696e6720726f6c650000604482015260640162000170565b600084815260056020908152604090912060018101805460ff191660021790558481559062000305906003830190859062000b37620003fe821b17901c565b60008481526005602052604081206001015460ff1660028111156200032e576200032e62000749565b1415620002455760405162461bcd60e51b8152602060048201526038602482015260008051602062001de983398151915260448201527f20746f206d616e61676520612073686172656420726f6c650000000000000000606482015260840162000170565b600654610100900460ff16620003ec5760405162461bcd60e51b815260206004820152601f60248201527f5265656e7472616e637947756172643a207265656e7472616e742063616c6c00604482015260640162000170565b565b620003fa828262000453565b5050565b60005b81518110156200044e5762000439838383815181106200042557620004256200075f565b6020026020010151620004d460201b60201c565b80620004458162000775565b91505062000401565b505050565b6001600160a01b038116620004b75760405162461bcd60e51b815260206004820152602360248201527f43616e6e6f742073657420616e206578636c757369766520726f6c6520746f2060448201526203078360ec1b606482015260840162000170565b81546001600160a01b0319166001600160a01b0391909116179055565b6001600160a01b0381166200052c5760405162461bcd60e51b815260206004820152601f60248201527f43616e6e6f74206164642030783020746f20612073686172656420726f6c6500604482015260640162000170565b6001600160a01b0316600090815260209190915260409020805460ff19166001179055565b8280546200055f906200079f565b90600052602060002090601f016020900481019282620005835760008555620005ce565b82601f106200059e57805160ff1916838001178555620005ce565b82800160010185558215620005ce579182015b82811115620005ce578251825591602001919060010190620005b1565b50620005dc929150620005e0565b5090565b5b80821115620005dc5760008155600101620005e1565b634e487b7160e01b600052604160045260246000fd5b600082601f8301126200061f57600080fd5b81516001600160401b03808211156200063c576200063c620005f7565b604051601f8301601f19908116603f01168101908282118183101715620006675762000667620005f7565b816040528381526020925086838588010111156200068457600080fd5b600091505b83821015620006a8578582018301518183018401529082019062000689565b83821115620006ba5760008385830101525b9695505050505050565b600080600060608486031215620006da57600080fd5b83516001600160401b0380821115620006f257600080fd5b62000700878388016200060d565b945060208601519150808211156200071757600080fd5b5062000726868287016200060d565b925050604084015160ff811681146200073e57600080fd5b809150509250925092565b634e487b7160e01b600052602160045260246000fd5b634e487b7160e01b600052603260045260246000fd5b60006000198214156200079857634e487b7160e01b600052601160045260246000fd5b5060010190565b600181811c90821680620007b457607f821691505b60208210811415620007d657634e487b7160e01b600052602260045260246000fd5b50919050565b6115fd80620007ec6000396000f3fe608060405234801561001057600080fd5b50600436106101495760003560e01c8063028468581461014e57806306fdde0314610163578063095ea7b31461018157806318160ddd146101a457806323b872dd146101b65780633092afd5146101c9578063313ce567146101dc57806339509351146101f157806340c10f191461020457806342966c68146102175780634334614a1461022a5780636be7658b1461023d57806370a082311461025057806373cc802a1461027957806374d0a6761461028c57806379cc67901461029f5780637cdc1cb9146102b257806395d89b41146102c5578063983b2d56146102cd578063a457c2d7146102e0578063a9059cbb146102f3578063aa271e1a14610306578063aaa14ca314610319578063ab3545e51461032c578063d97c05be14610357578063dd62ed3e1461036a578063f44637ba1461037d575b600080fd5b61016161015c366004611279565b610390565b005b61016b6103c3565b604051610178919061129b565b60405180910390f35b61019461018f3660046112f0565b610455565b6040519015158152602001610178565b6002545b604051908152602001610178565b6101946101c436600461131a565b61046f565b6101616101d7366004611279565b610493565b60065460405160ff9091168152602001610178565b6101946101ff3660046112f0565b6104ad565b6101946102123660046112f0565b6104cf565b610161610225366004611356565b61050c565b610194610238366004611279565b610542565b61016161024b36600461136f565b610560565b6101a861025e366004611279565b6001600160a01b031660009081526020819052604090205490565b610161610287366004611279565b610636565b61016161029a36600461136f565b610651565b6101946102ad3660046112f0565b610727565b6101946102c036600461136f565b61075b565b61016b610822565b6101616102db366004611279565b610831565b6101946102ee3660046112f0565b61084d565b6101946103013660046112f0565b6108c8565b610194610314366004611279565b6108d6565b610161610327366004611356565b6108ea565b61033f61033a366004611356565b6109a6565b6040516001600160a01b039091168152602001610178565b61016161036536600461136f565b610a12565b6101a861037836600461139b565b610ae8565b61016161038b366004611279565b610b13565b610398610b7d565b6103a0610bd6565b6103ac60025b82610560565b6103c06006805461ff001916610100179055565b50565b6060600380546103d2906113db565b80601f01602080910402602001604051908101604052809291908181526020018280546103fe906113db565b801561044b5780601f106104205761010080835404028352916020019161044b565b820191906000526020600020905b81548152906001019060200180831161042e57829003601f168201915b5050505050905090565b600033610463818585610be3565b60019150505b92915050565b60003361047d858285610d07565b610488858585610d81565b506001949350505050565b61049b610b7d565b6104a3610bd6565b6103ac60016103a6565b6000336104638185856104c08383610ae8565b6104ca9190611426565b610be3565b600060016104dd813361075b565b6105025760405162461bcd60e51b81526004016104f99061143e565b60405180910390fd5b6104638484610f3d565b6002610518813361075b565b6105345760405162461bcd60e51b81526004016104f99061143e565b61053e338361100a565b5050565b600061054c610b7d565b61055860025b8361075b565b90505b919050565b81600260008281526005602052604090206001015460ff166002811115610589576105896113c5565b146105a65760405162461bcd60e51b81526004016104f990611480565b60008381526005602052604090205483906105c1903361075b565b6105dd5760405162461bcd60e51b81526004016104f9906114cc565b60008481526005602052604090206105f89060030184611146565b60405133906001600160a01b0385169086907feb3e33034c392e69263b04ec0fa376dc12784a41b6676c7f31b936cbc0fbb5af90600090a450505050565b61063e610b7d565b610646610bd6565b6103ac600082610a12565b81600260008281526005602052604090206001015460ff16600281111561067a5761067a6113c5565b146106975760405162461bcd60e51b81526004016104f990611480565b60008381526005602052604090205483906106b2903361075b565b6106ce5760405162461bcd60e51b81526004016104f9906114cc565b60008481526005602052604090206106e99060030184611168565b60405133906001600160a01b0385169086907f63502af7324ff6db91ab38f8236a648727d9385ea6c782073dd4882d8a61a48f90600090a450505050565b60006002610735813361075b565b6107515760405162461bcd60e51b81526004016104f99061143e565b610463848461100a565b600082815260056020526040812060018082015460ff166002811115610783576107836113c5565b14156107a55760028101546001600160a01b038481169116145b915050610469565b6002600182015460ff1660028111156107c0576107c06113c5565b14156107e9576001600160a01b038316600090815260038201602052604090205460ff1661079d565b60405162461bcd60e51b815260206004820152600e60248201526d125b9d985b1a59081c9bdb19525960921b60448201526064016104f9565b6060600480546103d2906113db565b610839610b7d565b610841610bd6565b6103ac60015b82610651565b6000338161085b8286610ae8565b9050838110156108bb5760405162461bcd60e51b815260206004820152602560248201527f45524332303a2064656372656173656420616c6c6f77616e63652062656c6f77604482015264207a65726f60d81b60648201526084016104f9565b6104888286868403610be3565b600033610463818585610d81565b60006108e0610b7d565b6105586001610552565b80600260008281526005602052604090206001015460ff166002811115610913576109136113c5565b146109305760405162461bcd60e51b81526004016104f990611480565b8161093b813361075b565b6109575760405162461bcd60e51b81526004016104f99061143e565b60008381526005602052604090206109729060030133611146565b6040513390819085907feb3e33034c392e69263b04ec0fa376dc12784a41b6676c7f31b936cbc0fbb5af90600090a4505050565b600081600160008281526005602052604090206001015460ff1660028111156109d1576109d16113c5565b146109ee5760405162461bcd60e51b81526004016104f990611510565b6000838152600560205260409020600201546001600160a01b031691505b50919050565b81600160008281526005602052604090206001015460ff166002811115610a3b57610a3b6113c5565b14610a585760405162461bcd60e51b81526004016104f990611510565b6000838152600560205260409020548390610a73903361075b565b610a8f5760405162461bcd60e51b81526004016104f9906114cc565b6000848152600560205260409020610aaa90600201846111e3565b60405133906001600160a01b0385169086907f3b855c56b409b671c7112789d022675eb639d0bcb8896f1b6197c132f799e74690600090a450505050565b6001600160a01b03918216600090815260016020908152604080832093909416825291909152205490565b610b1b610b7d565b610b23610bd6565b6103ac6002610847565b61053e82826111e3565b60005b8151811015610b7857610b6683838381518110610b5957610b5961155f565b6020026020010151611168565b80610b7081611575565b915050610b3a565b505050565b600654610100900460ff16610bd45760405162461bcd60e51b815260206004820152601f60248201527f5265656e7472616e637947756172643a207265656e7472616e742063616c6c0060448201526064016104f9565b565b6006805461ff0019169055565b6001600160a01b038316610c455760405162461bcd60e51b8152602060048201526024808201527f45524332303a20617070726f76652066726f6d20746865207a65726f206164646044820152637265737360e01b60648201526084016104f9565b6001600160a01b038216610ca65760405162461bcd60e51b815260206004820152602260248201527f45524332303a20617070726f766520746f20746865207a65726f206164647265604482015261737360f01b60648201526084016104f9565b6001600160a01b0383811660008181526001602090815260408083209487168084529482529182902085905590518481527f8c5be1e5ebec7d5bd14f71427d1e84f3dd0314c0f7b2291e5b200ac8c7c3b925910160405180910390a3505050565b6000610d138484610ae8565b90506000198114610d7b5781811015610d6e5760405162461bcd60e51b815260206004820152601d60248201527f45524332303a20696e73756666696369656e7420616c6c6f77616e636500000060448201526064016104f9565b610d7b8484848403610be3565b50505050565b6001600160a01b038316610de55760405162461bcd60e51b815260206004820152602560248201527f45524332303a207472616e736665722066726f6d20746865207a65726f206164604482015264647265737360d81b60648201526084016104f9565b6001600160a01b038216610e475760405162461bcd60e51b815260206004820152602360248201527f45524332303a207472616e7366657220746f20746865207a65726f206164647260448201526265737360e81b60648201526084016104f9565b6001600160a01b03831660009081526020819052604090205481811015610ebf5760405162461bcd60e51b815260206004820152602660248201527f45524332303a207472616e7366657220616d6f756e7420657863656564732062604482015265616c616e636560d01b60648201526084016104f9565b6001600160a01b03808516600090815260208190526040808220858503905591851681529081208054849290610ef6908490611426565b92505081905550826001600160a01b0316846001600160a01b03166000805160206115a883398151915284604051610f3091815260200190565b60405180910390a3610d7b565b6001600160a01b038216610f935760405162461bcd60e51b815260206004820152601f60248201527f45524332303a206d696e7420746f20746865207a65726f20616464726573730060448201526064016104f9565b8060026000828254610fa59190611426565b90915550506001600160a01b03821660009081526020819052604081208054839290610fd2908490611426565b90915550506040518181526001600160a01b038316906000906000805160206115a88339815191529060200160405180910390a35050565b6001600160a01b03821661106a5760405162461bcd60e51b815260206004820152602160248201527f45524332303a206275726e2066726f6d20746865207a65726f206164647265736044820152607360f81b60648201526084016104f9565b6001600160a01b038216600090815260208190526040902054818110156110de5760405162461bcd60e51b815260206004820152602260248201527f45524332303a206275726e20616d6f756e7420657863656564732062616c616e604482015261636560f01b60648201526084016104f9565b6001600160a01b038316600090815260208190526040812083830390556002805484929061110d908490611590565b90915550506040518281526000906001600160a01b038516906000805160206115a88339815191529060200160405180910390a3505050565b6001600160a01b0316600090815260209190915260409020805460ff19169055565b6001600160a01b0381166111be5760405162461bcd60e51b815260206004820152601f60248201527f43616e6e6f74206164642030783020746f20612073686172656420726f6c650060448201526064016104f9565b6001600160a01b0316600090815260209190915260409020805460ff19166001179055565b6001600160a01b0381166112455760405162461bcd60e51b815260206004820152602360248201527f43616e6e6f742073657420616e206578636c757369766520726f6c6520746f2060448201526203078360ec1b60648201526084016104f9565b81546001600160a01b0319166001600160a01b0391909116179055565b80356001600160a01b038116811461055b57600080fd5b60006020828403121561128b57600080fd5b61129482611262565b9392505050565b600060208083528351808285015260005b818110156112c8578581018301518582016040015282016112ac565b818111156112da576000604083870101525b50601f01601f1916929092016040019392505050565b6000806040838503121561130357600080fd5b61130c83611262565b946020939093013593505050565b60008060006060848603121561132f57600080fd5b61133884611262565b925061134660208501611262565b9150604084013590509250925092565b60006020828403121561136857600080fd5b5035919050565b6000806040838503121561138257600080fd5b8235915061139260208401611262565b90509250929050565b600080604083850312156113ae57600080fd5b6113b783611262565b915061139260208401611262565b634e487b7160e01b600052602160045260246000fd5b600181811c908216806113ef57607f821691505b60208210811415610a0c57634e487b7160e01b600052602260045260246000fd5b634e487b7160e01b600052601160045260246000fd5b6000821982111561143957611439611410565b500190565b60208082526022908201527f53656e64657220646f6573206e6f7420686f6c6420726571756972656420726f6040820152616c6560f01b606082015260800190565b6020808252602c908201527f4d7573742062652063616c6c6564206f6e20616e20696e697469616c697a656460408201526b2053686172656420726f6c6560a01b606082015260800190565b60208082526024908201527f43616e206f6e6c792062652063616c6c6564206279206120726f6c65206d616e60408201526330b3b2b960e11b606082015260800190565b6020808252602f908201527f4d7573742062652063616c6c6564206f6e20616e20696e697469616c697a656460408201526e204578636c757369766520726f6c6560881b606082015260800190565b634e487b7160e01b600052603260045260246000fd5b600060001982141561158957611589611410565b5060010190565b6000828210156115a2576115a2611410565b50039056feddf252ad1be2c89b69c2b068fc378daa952ba7f163c4a11628f55a4df523b3efa2646970667358221220d8c1dcfeb87d2d1a0287e245d54e03369dc02afefcd1589d71f10fea2fb35bde64736f6c63430008090033417474656d7074656420746f2075736520616e20696e76616c696420726f6c65a264697066735822122039665ac3abe2a7b9c994ade38b27ca6b71378600b0937a5e2b09354de80c0e9064736f6c63430008090033",
  "devdoc": {
    "kind": "dev",
    "methods": {
      "createToken(string,string,uint8)": {
        "details": "The caller will become the only minter and burner and the new owner capable of assigning the roles.",
        "params": {
          "tokenDecimals": "used to define the precision used in the token's numerical representation.",
          "tokenName": "used to describe the new token.",
          "tokenSymbol": "short ticker abbreviation of the name. Ideally < 5 chars."
        },
        "returns": {
          "newToken": "an instance of the newly created token interface."
        }
      }
    },
    "title": "Factory for creating new mintable and burnable tokens.",
    "version": 1
  },
  "userdoc": {
    "kind": "user",
    "methods": {
      "createToken(string,string,uint8)": {
        "notice": "Create a new token and return it to the caller."
      }
    },
    "version": 1
  },
  "storageLayout": {
    "storage": [
      {
        "astId": 6103,
        "contract": "contracts/UMA/financial-templates/common/TokenFactory.sol:TokenFactory",
        "label": "_notEntered",
        "offset": 0,
        "slot": "0",
        "type": "t_bool"
      }
    ],
    "types": {
      "t_bool": {
        "encoding": "inplace",
        "label": "bool",
        "numberOfBytes": "1"
      }
    }
  }
}