{
  "address": "0xF502CBB71AB6C41E5B93640d4fF2f6945490C7a0",
  "abi": [
    {
      "inputs": [
        {
          "internalType": "address",
          "name": "_factory",
          "type": "address"
        },
        {
          "internalType": "address",
          "name": "_WETH",
          "type": "address"
        }
      ],
      "stateMutability": "nonpayable",
      "type": "constructor"
    },
    {
      "inputs": [],
      "name": "WETH",
      "outputs": [
        {
          "internalType": "address",
          "name": "",
          "type": "address"
        }
      ],
      "stateMutability": "view",
      "type": "function"
    },
    {
      "inputs": [
        {
          "internalType": "address",
          "name": "tokenA",
          "type": "address"
        },
        {
          "internalType": "address",
          "name": "tokenB",
          "type": "address"
        },
        {
          "internalType": "uint256",
          "name": "amountADesired",
          "type": "uint256"
        },
        {
          "internalType": "uint256",
          "name": "amountBDesired",
          "type": "uint256"
        },
        {
          "internalType": "uint256",
          "name": "amountAMin",
          "type": "uint256"
        },
        {
          "internalType": "uint256",
          "name": "amountBMin",
          "type": "uint256"
        },
        {
          "internalType": "address",
          "name": "to",
          "type": "address"
        },
        {
          "internalType": "uint256",
          "name": "deadline",
          "type": "uint256"
        }
      ],
      "name": "addLiquidity",
      "outputs": [
        {
          "internalType": "uint256",
          "name": "amountA",
          "type": "uint256"
        },
        {
          "internalType": "uint256",
          "name": "amountB",
          "type": "uint256"
        },
        {
          "internalType": "uint256",
          "name": "liquidity",
          "type": "uint256"
        }
      ],
      "stateMutability": "nonpayable",
      "type": "function"
    },
    {
      "inputs": [
        {
          "internalType": "address",
          "name": "token",
          "type": "address"
        },
        {
          "internalType": "uint256",
          "name": "amountTokenDesired",
          "type": "uint256"
        },
        {
          "internalType": "uint256",
          "name": "amountTokenMin",
          "type": "uint256"
        },
        {
          "internalType": "uint256",
          "name": "amountETHMin",
          "type": "uint256"
        },
        {
          "internalType": "address",
          "name": "to",
          "type": "address"
        },
        {
          "internalType": "uint256",
          "name": "deadline",
          "type": "uint256"
        }
      ],
      "name": "addLiquidityETH",
      "outputs": [
        {
          "internalType": "uint256",
          "name": "amountToken",
          "type": "uint256"
        },
        {
          "internalType": "uint256",
          "name": "amountETH",
          "type": "uint256"
        },
        {
          "internalType": "uint256",
          "name": "liquidity",
          "type": "uint256"
        }
      ],
      "stateMutability": "payable",
      "type": "function"
    },
    {
      "inputs": [],
      "name": "factory",
      "outputs": [
        {
          "internalType": "address",
          "name": "",
          "type": "address"
        }
      ],
      "stateMutability": "view",
      "type": "function"
    },
    {
      "inputs": [
        {
          "internalType": "uint256",
          "name": "amountOut",
          "type": "uint256"
        },
        {
          "internalType": "uint256",
          "name": "reserveIn",
          "type": "uint256"
        },
        {
          "internalType": "uint256",
          "name": "reserveOut",
          "type": "uint256"
        }
      ],
      "name": "getAmountIn",
      "outputs": [
        {
          "internalType": "uint256",
          "name": "amountIn",
          "type": "uint256"
        }
      ],
      "stateMutability": "pure",
      "type": "function"
    },
    {
      "inputs": [
        {
          "internalType": "uint256",
          "name": "amountIn",
          "type": "uint256"
        },
        {
          "internalType": "uint256",
          "name": "reserveIn",
          "type": "uint256"
        },
        {
          "internalType": "uint256",
          "name": "reserveOut",
          "type": "uint256"
        }
      ],
      "name": "getAmountOut",
      "outputs": [
        {
          "internalType": "uint256",
          "name": "amountOut",
          "type": "uint256"
        }
      ],
      "stateMutability": "pure",
      "type": "function"
    },
    {
      "inputs": [
        {
          "internalType": "uint256",
          "name": "amountOut",
          "type": "uint256"
        },
        {
          "internalType": "address[]",
          "name": "path",
          "type": "address[]"
        }
      ],
      "name": "getAmountsIn",
      "outputs": [
        {
          "internalType": "uint256[]",
          "name": "amounts",
          "type": "uint256[]"
        }
      ],
      "stateMutability": "view",
      "type": "function"
    },
    {
      "inputs": [
        {
          "internalType": "uint256",
          "name": "amountIn",
          "type": "uint256"
        },
        {
          "internalType": "address[]",
          "name": "path",
          "type": "address[]"
        }
      ],
      "name": "getAmountsOut",
      "outputs": [
        {
          "internalType": "uint256[]",
          "name": "amounts",
          "type": "uint256[]"
        }
      ],
      "stateMutability": "view",
      "type": "function"
    },
    {
      "inputs": [
        {
          "internalType": "address",
          "name": "tokenA",
          "type": "address"
        },
        {
          "internalType": "address",
          "name": "tokenB",
          "type": "address"
        }
      ],
      "name": "getPair",
      "outputs": [
        {
          "internalType": "address",
          "name": "",
          "type": "address"
        }
      ],
      "stateMutability": "view",
      "type": "function"
    },
    {
      "inputs": [
        {
          "internalType": "uint256",
          "name": "amountA",
          "type": "uint256"
        },
        {
          "internalType": "uint256",
          "name": "reserveA",
          "type": "uint256"
        },
        {
          "internalType": "uint256",
          "name": "reserveB",
          "type": "uint256"
        }
      ],
      "name": "quote",
      "outputs": [
        {
          "internalType": "uint256",
          "name": "amountB",
          "type": "uint256"
        }
      ],
      "stateMutability": "pure",
      "type": "function"
    },
    {
      "inputs": [
        {
          "internalType": "address",
          "name": "tokenA",
          "type": "address"
        },
        {
          "internalType": "address",
          "name": "tokenB",
          "type": "address"
        },
        {
          "internalType": "uint256",
          "name": "liquidity",
          "type": "uint256"
        },
        {
          "internalType": "uint256",
          "name": "amountAMin",
          "type": "uint256"
        },
        {
          "internalType": "uint256",
          "name": "amountBMin",
          "type": "uint256"
        },
        {
          "internalType": "address",
          "name": "to",
          "type": "address"
        },
        {
          "internalType": "uint256",
          "name": "deadline",
          "type": "uint256"
        }
      ],
      "name": "removeLiquidity",
      "outputs": [
        {
          "internalType": "uint256",
          "name": "amountA",
          "type": "uint256"
        },
        {
          "internalType": "uint256",
          "name": "amountB",
          "type": "uint256"
        }
      ],
      "stateMutability": "nonpayable",
      "type": "function"
    },
    {
      "inputs": [
        {
          "internalType": "address",
          "name": "token",
          "type": "address"
        },
        {
          "internalType": "uint256",
          "name": "liquidity",
          "type": "uint256"
        },
        {
          "internalType": "uint256",
          "name": "amountTokenMin",
          "type": "uint256"
        },
        {
          "internalType": "uint256",
          "name": "amountETHMin",
          "type": "uint256"
        },
        {
          "internalType": "address",
          "name": "to",
          "type": "address"
        },
        {
          "internalType": "uint256",
          "name": "deadline",
          "type": "uint256"
        }
      ],
      "name": "removeLiquidityETH",
      "outputs": [
        {
          "internalType": "uint256",
          "name": "amountToken",
          "type": "uint256"
        },
        {
          "internalType": "uint256",
          "name": "amountETH",
          "type": "uint256"
        }
      ],
      "stateMutability": "nonpayable",
      "type": "function"
    },
    {
      "inputs": [
        {
          "internalType": "address",
          "name": "token",
          "type": "address"
        },
        {
          "internalType": "uint256",
          "name": "liquidity",
          "type": "uint256"
        },
        {
          "internalType": "uint256",
          "name": "amountTokenMin",
          "type": "uint256"
        },
        {
          "internalType": "uint256",
          "name": "amountETHMin",
          "type": "uint256"
        },
        {
          "internalType": "address",
          "name": "to",
          "type": "address"
        },
        {
          "internalType": "uint256",
          "name": "deadline",
          "type": "uint256"
        }
      ],
      "name": "removeLiquidityETHSupportingFeeOnTransferTokens",
      "outputs": [
        {
          "internalType": "uint256",
          "name": "amountETH",
          "type": "uint256"
        }
      ],
      "stateMutability": "nonpayable",
      "type": "function"
    },
    {
      "inputs": [
        {
          "internalType": "address",
          "name": "token",
          "type": "address"
        },
        {
          "internalType": "uint256",
          "name": "liquidity",
          "type": "uint256"
        },
        {
          "internalType": "uint256",
          "name": "amountTokenMin",
          "type": "uint256"
        },
        {
          "internalType": "uint256",
          "name": "amountETHMin",
          "type": "uint256"
        },
        {
          "internalType": "address",
          "name": "to",
          "type": "address"
        },
        {
          "internalType": "uint256",
          "name": "deadline",
          "type": "uint256"
        },
        {
          "internalType": "bool",
          "name": "approveMax",
          "type": "bool"
        },
        {
          "internalType": "uint8",
          "name": "v",
          "type": "uint8"
        },
        {
          "internalType": "bytes32",
          "name": "r",
          "type": "bytes32"
        },
        {
          "internalType": "bytes32",
          "name": "s",
          "type": "bytes32"
        }
      ],
      "name": "removeLiquidityETHWithPermit",
      "outputs": [
        {
          "internalType": "uint256",
          "name": "amountToken",
          "type": "uint256"
        },
        {
          "internalType": "uint256",
          "name": "amountETH",
          "type": "uint256"
        }
      ],
      "stateMutability": "nonpayable",
      "type": "function"
    },
    {
      "inputs": [
        {
          "internalType": "address",
          "name": "token",
          "type": "address"
        },
        {
          "internalType": "uint256",
          "name": "liquidity",
          "type": "uint256"
        },
        {
          "internalType": "uint256",
          "name": "amountTokenMin",
          "type": "uint256"
        },
        {
          "internalType": "uint256",
          "name": "amountETHMin",
          "type": "uint256"
        },
        {
          "internalType": "address",
          "name": "to",
          "type": "address"
        },
        {
          "internalType": "uint256",
          "name": "deadline",
          "type": "uint256"
        },
        {
          "internalType": "bool",
          "name": "approveMax",
          "type": "bool"
        },
        {
          "internalType": "uint8",
          "name": "v",
          "type": "uint8"
        },
        {
          "internalType": "bytes32",
          "name": "r",
          "type": "bytes32"
        },
        {
          "internalType": "bytes32",
          "name": "s",
          "type": "bytes32"
        }
      ],
      "name": "removeLiquidityETHWithPermitSupportingFeeOnTransferTokens",
      "outputs": [
        {
          "internalType": "uint256",
          "name": "amountETH",
          "type": "uint256"
        }
      ],
      "stateMutability": "nonpayable",
      "type": "function"
    },
    {
      "inputs": [
        {
          "internalType": "address",
          "name": "tokenA",
          "type": "address"
        },
        {
          "internalType": "address",
          "name": "tokenB",
          "type": "address"
        },
        {
          "internalType": "uint256",
          "name": "liquidity",
          "type": "uint256"
        },
        {
          "internalType": "uint256",
          "name": "amountAMin",
          "type": "uint256"
        },
        {
          "internalType": "uint256",
          "name": "amountBMin",
          "type": "uint256"
        },
        {
          "internalType": "address",
          "name": "to",
          "type": "address"
        },
        {
          "internalType": "uint256",
          "name": "deadline",
          "type": "uint256"
        },
        {
          "internalType": "bool",
          "name": "approveMax",
          "type": "bool"
        },
        {
          "internalType": "uint8",
          "name": "v",
          "type": "uint8"
        },
        {
          "internalType": "bytes32",
          "name": "r",
          "type": "bytes32"
        },
        {
          "internalType": "bytes32",
          "name": "s",
          "type": "bytes32"
        }
      ],
      "name": "removeLiquidityWithPermit",
      "outputs": [
        {
          "internalType": "uint256",
          "name": "amountA",
          "type": "uint256"
        },
        {
          "internalType": "uint256",
          "name": "amountB",
          "type": "uint256"
        }
      ],
      "stateMutability": "nonpayable",
      "type": "function"
    },
    {
      "inputs": [
        {
          "internalType": "uint256",
          "name": "amountOut",
          "type": "uint256"
        },
        {
          "internalType": "address[]",
          "name": "path",
          "type": "address[]"
        },
        {
          "internalType": "address",
          "name": "to",
          "type": "address"
        },
        {
          "internalType": "uint256",
          "name": "deadline",
          "type": "uint256"
        }
      ],
      "name": "swapETHForExactTokens",
      "outputs": [
        {
          "internalType": "uint256[]",
          "name": "amounts",
          "type": "uint256[]"
        }
      ],
      "stateMutability": "payable",
      "type": "function"
    },
    {
      "inputs": [
        {
          "internalType": "uint256",
          "name": "amountOutMin",
          "type": "uint256"
        },
        {
          "internalType": "address[]",
          "name": "path",
          "type": "address[]"
        },
        {
          "internalType": "address",
          "name": "to",
          "type": "address"
        },
        {
          "internalType": "uint256",
          "name": "deadline",
          "type": "uint256"
        }
      ],
      "name": "swapExactETHForTokens",
      "outputs": [
        {
          "internalType": "uint256[]",
          "name": "amounts",
          "type": "uint256[]"
        }
      ],
      "stateMutability": "payable",
      "type": "function"
    },
    {
      "inputs": [
        {
          "internalType": "uint256",
          "name": "amountIn",
          "type": "uint256"
        },
        {
          "internalType": "uint256",
          "name": "amountOutMin",
          "type": "uint256"
        },
        {
          "internalType": "address[]",
          "name": "path",
          "type": "address[]"
        },
        {
          "internalType": "address",
          "name": "to",
          "type": "address"
        },
        {
          "internalType": "uint256",
          "name": "deadline",
          "type": "uint256"
        }
      ],
      "name": "swapExactTokensForETH",
      "outputs": [
        {
          "internalType": "uint256[]",
          "name": "amounts",
          "type": "uint256[]"
        }
      ],
      "stateMutability": "nonpayable",
      "type": "function"
    },
    {
      "inputs": [
        {
          "internalType": "uint256",
          "name": "amountIn",
          "type": "uint256"
        },
        {
          "internalType": "uint256",
          "name": "amountOutMin",
          "type": "uint256"
        },
        {
          "internalType": "address[]",
          "name": "path",
          "type": "address[]"
        },
        {
          "internalType": "address",
          "name": "to",
          "type": "address"
        },
        {
          "internalType": "uint256",
          "name": "deadline",
          "type": "uint256"
        }
      ],
      "name": "swapExactTokensForTokens",
      "outputs": [
        {
          "internalType": "uint256[]",
          "name": "amounts",
          "type": "uint256[]"
        }
      ],
      "stateMutability": "nonpayable",
      "type": "function"
    },
    {
      "inputs": [
        {
          "internalType": "uint256",
          "name": "amountOut",
          "type": "uint256"
        },
        {
          "internalType": "uint256",
          "name": "amountInMax",
          "type": "uint256"
        },
        {
          "internalType": "address[]",
          "name": "path",
          "type": "address[]"
        },
        {
          "internalType": "address",
          "name": "to",
          "type": "address"
        },
        {
          "internalType": "uint256",
          "name": "deadline",
          "type": "uint256"
        }
      ],
      "name": "swapTokensForExactETH",
      "outputs": [
        {
          "internalType": "uint256[]",
          "name": "amounts",
          "type": "uint256[]"
        }
      ],
      "stateMutability": "nonpayable",
      "type": "function"
    },
    {
      "inputs": [
        {
          "internalType": "uint256",
          "name": "amountOut",
          "type": "uint256"
        },
        {
          "internalType": "uint256",
          "name": "amountInMax",
          "type": "uint256"
        },
        {
          "internalType": "address[]",
          "name": "path",
          "type": "address[]"
        },
        {
          "internalType": "address",
          "name": "to",
          "type": "address"
        },
        {
          "internalType": "uint256",
          "name": "deadline",
          "type": "uint256"
        }
      ],
      "name": "swapTokensForExactTokens",
      "outputs": [
        {
          "internalType": "uint256[]",
          "name": "amounts",
          "type": "uint256[]"
        }
      ],
      "stateMutability": "nonpayable",
      "type": "function"
    },
    {
      "stateMutability": "payable",
      "type": "receive"
    }
  ],
  "transactionHash": "0x6b936ec6d7bf769342138124110ad767001bcbbbad3df8fb0a25d8a7ef48caa0",
  "args": [
    "0xc88D40380C75231862776C61f67a77030A64946e",
    "0xB4FBF271143F4FBf7B91A5ded31805e42b2208d6"
  ],
  "numDeployments": 1,
  "solcInputHash": "2f73f14e2e1f1baa7e84715f4259f101",
  "bytecode": "0x60c060405234801561001057600080fd5b50604051613a04380380613a048339818101604052604081101561003357600080fd5b5080516020909101516001600160601b0319606092831b8116608052911b1660a05260805160601c60a05160601c6138af610155600039806101495280610b595280610b945280610c8b5280610ea95280611233528061139952806114c5528061160b528061169352806118ec52806119675280611a1b5280611d625280611ff9528061204f528061208352806120f7528061228552806123c85280612450525080610d195280610df05280610f6f5280610fa852806110e352806112c15280611377528061155852806116c5528061183c5280611aef5280611ce75280611d105280611d405280611e515280611eda528061202d528061231852806124825280612d085280612d4b528061323a52806132f352806133a652506138af6000f3fe6080604052600436106101395760003560e01c8063ad5c4648116100ab578063d06ca61f1161006f578063d06ca61f1461085f578063ded9382a14610914578063e6a4390514610987578063e8e33700146109c2578063f305d71914610a42578063fb3bdb4114610a8857610172565b8063ad5c464814610733578063ad615dec14610764578063af2979eb1461079a578063baa2abde146107ed578063c45a01551461084a57610172565b806338ed1739116100fd57806338ed1739146104445780634a25d94a146104da5780635b0d5984146105705780637ff36ab5146105e357806385f8c259146106675780638803dbee1461069d57610172565b806302751cec14610177578063054d50d4146101e357806318cbafe51461022b5780631f00ca74146103115780632195995c146103c657610172565b3661017257336001600160a01b037f0000000000000000000000000000000000000000000000000000000000000000161461017057fe5b005b600080fd5b34801561018357600080fd5b506101ca600480360360c081101561019a57600080fd5b506001600160a01b0381358116916020810135916040820135916060810135916080820135169060a00135610b0c565b6040805192835260208301919091528051918290030190f35b3480156101ef57600080fd5b506102196004803603606081101561020657600080fd5b5080359060208101359060400135610c26565b60408051918252519081900360200190f35b34801561023757600080fd5b506102c1600480360360a081101561024e57600080fd5b813591602081013591810190606081016040820135600160201b81111561027457600080fd5b82018360208201111561028657600080fd5b803590602001918460208302840111600160201b831117156102a757600080fd5b91935091506001600160a01b038135169060200135610c3b565b60408051602080825283518183015283519192839290830191858101910280838360005b838110156102fd5781810151838201526020016102e5565b505050509050019250505060405180910390f35b34801561031d57600080fd5b506102c16004803603604081101561033457600080fd5b81359190810190604081016020820135600160201b81111561035557600080fd5b82018360208201111561036757600080fd5b803590602001918460208302840111600160201b8311171561038857600080fd5b919080806020026020016040519081016040528093929190818152602001838360200280828437600092019190915250929550610f68945050505050565b3480156103d257600080fd5b506101ca60048036036101608110156103ea57600080fd5b506001600160a01b038135811691602081013582169160408201359160608101359160808201359160a08101359091169060c08101359060e081013515159060ff6101008201351690610120810135906101400135610f9e565b34801561045057600080fd5b506102c1600480360360a081101561046757600080fd5b813591602081013591810190606081016040820135600160201b81111561048d57600080fd5b82018360208201111561049f57600080fd5b803590602001918460208302840111600160201b831117156104c057600080fd5b91935091506001600160a01b038135169060200135611098565b3480156104e657600080fd5b506102c1600480360360a08110156104fd57600080fd5b813591602081013591810190606081016040820135600160201b81111561052357600080fd5b82018360208201111561053557600080fd5b803590602001918460208302840111600160201b8311171561055657600080fd5b91935091506001600160a01b0381351690602001356111e3565b34801561057c57600080fd5b50610219600480360361014081101561059457600080fd5b506001600160a01b0381358116916020810135916040820135916060810135916080820135169060a08101359060c081013515159060ff60e0820135169061010081013590610120013561136f565b6102c1600480360360808110156105f957600080fd5b81359190810190604081016020820135600160201b81111561061a57600080fd5b82018360208201111561062c57600080fd5b803590602001918460208302840111600160201b8311171561064d57600080fd5b91935091506001600160a01b03813516906020013561147d565b34801561067357600080fd5b506102196004803603606081101561068a57600080fd5b50803590602081013590604001356117e4565b3480156106a957600080fd5b506102c1600480360360a08110156106c057600080fd5b813591602081013591810190606081016040820135600160201b8111156106e657600080fd5b8201836020820111156106f857600080fd5b803590602001918460208302840111600160201b8311171561071957600080fd5b91935091506001600160a01b0381351690602001356117f1565b34801561073f57600080fd5b506107486118ea565b604080516001600160a01b039092168252519081900360200190f35b34801561077057600080fd5b506102196004803603606081101561078757600080fd5b508035906020810135906040013561190e565b3480156107a657600080fd5b50610219600480360360c08110156107bd57600080fd5b506001600160a01b0381358116916020810135916040820135916060810135916080820135169060a0013561191b565b3480156107f957600080fd5b506101ca600480360360e081101561081057600080fd5b506001600160a01b038135811691602081013582169160408201359160608101359160808201359160a08101359091169060c00135611aa1565b34801561085657600080fd5b50610748611ce5565b34801561086b57600080fd5b506102c16004803603604081101561088257600080fd5b81359190810190604081016020820135600160201b8111156108a357600080fd5b8201836020820111156108b557600080fd5b803590602001918460208302840111600160201b831117156108d657600080fd5b919080806020026020016040519081016040528093929190818152602001838360200280828437600092019190915250929550611d09945050505050565b34801561092057600080fd5b506101ca600480360361014081101561093857600080fd5b506001600160a01b0381358116916020810135916040820135916060810135916080820135169060a08101359060c081013515159060ff60e08201351690610100810135906101200135611d36565b34801561099357600080fd5b50610748600480360360408110156109aa57600080fd5b506001600160a01b0381358116916020013516611e4a565b3480156109ce57600080fd5b50610a2460048036036101008110156109e657600080fd5b506001600160a01b038135811691602081013582169160408201359160608101359160808201359160a08101359160c0820135169060e00135611e77565b60408051938452602084019290925282820152519081900360600190f35b610a24600480360360c0811015610a5857600080fd5b506001600160a01b0381358116916020810135916040820135916060810135916080820135169060a00135611faa565b6102c160048036036080811015610a9e57600080fd5b81359190810190604081016020820135600160201b811115610abf57600080fd5b820183602082011115610ad157600080fd5b803590602001918460208302840111600160201b83111715610af257600080fd5b91935091506001600160a01b03813516906020013561223d565b6000808242811015610b53576040805162461bcd60e51b8152602060048201526018602482015260008051602061385a833981519152604482015290519081900360640190fd5b610b82897f00000000000000000000000000000000000000000000000000000000000000008a8a8a308a611aa1565b9093509150610b928986856125b6565b7f00000000000000000000000000000000000000000000000000000000000000006001600160a01b0316632e1a7d4d836040518263ffffffff1660e01b815260040180828152602001915050600060405180830381600087803b158015610bf857600080fd5b505af1158015610c0c573d6000803e3d6000fd5b50505050610c1a8583612720565b50965096945050505050565b6000610c33848484612818565b949350505050565b60608142811015610c81576040805162461bcd60e51b8152602060048201526018602482015260008051602061385a833981519152604482015290519081900360640190fd5b6001600160a01b037f00000000000000000000000000000000000000000000000000000000000000001686866000198101818110610cbb57fe5b905060200201356001600160a01b03166001600160a01b031614610d14576040805162461bcd60e51b815260206004820152601d6024820152600080516020613777833981519152604482015290519081900360640190fd5b610d727f0000000000000000000000000000000000000000000000000000000000000000898888808060200260200160405190810160405280939291908181526020018383602002808284376000920191909152506128f092505050565b91508682600184510381518110610d8557fe5b60200260200101511015610dca5760405162461bcd60e51b815260040180806020018281038252602b8152602001806137e0602b913960400191505060405180910390fd5b610e6886866000818110610dda57fe5b905060200201356001600160a01b031633610e4e7f00000000000000000000000000000000000000000000000000000000000000008a8a6000818110610e1c57fe5b905060200201356001600160a01b03168b8b6001818110610e3957fe5b905060200201356001600160a01b0316612a3c565b85600081518110610e5b57fe5b6020026020010151612afc565b610ea782878780806020026020016040519081016040528093929190818152602001838360200280828437600092019190915250309250612c59915050565b7f00000000000000000000000000000000000000000000000000000000000000006001600160a01b0316632e1a7d4d83600185510381518110610ee657fe5b60200260200101516040518263ffffffff1660e01b815260040180828152602001915050600060405180830381600087803b158015610f2457600080fd5b505af1158015610f38573d6000803e3d6000fd5b50505050610f5d8483600185510381518110610f5057fe5b6020026020010151612720565b509695505050505050565b6060610f957f00000000000000000000000000000000000000000000000000000000000000008484612e96565b90505b92915050565b6000806000610fce7f00000000000000000000000000000000000000000000000000000000000000008f8f612a3c565b9050600087610fdd578c610fe1565b6000195b6040805163d505accf60e01b815233600482015230602482015260448101839052606481018c905260ff8a16608482015260a4810189905260c4810188905290519192506001600160a01b0384169163d505accf9160e48082019260009290919082900301818387803b15801561105757600080fd5b505af115801561106b573d6000803e3d6000fd5b5050505061107e8f8f8f8f8f8f8f611aa1565b809450819550505050509b509b9950505050505050505050565b606081428110156110de576040805162461bcd60e51b8152602060048201526018602482015260008051602061385a833981519152604482015290519081900360640190fd5b61113c7f0000000000000000000000000000000000000000000000000000000000000000898888808060200260200160405190810160405280939291908181526020018383602002808284376000920191909152506128f092505050565b9150868260018451038151811061114f57fe5b602002602001015110156111945760405162461bcd60e51b815260040180806020018281038252602b8152602001806137e0602b913960400191505060405180910390fd5b6111a486866000818110610dda57fe5b610f5d82878780806020026020016040519081016040528093929190818152602001838360200280828437600092019190915250899250612c59915050565b60608142811015611229576040805162461bcd60e51b8152602060048201526018602482015260008051602061385a833981519152604482015290519081900360640190fd5b6001600160a01b037f0000000000000000000000000000000000000000000000000000000000000000168686600019810181811061126357fe5b905060200201356001600160a01b03166001600160a01b0316146112bc576040805162461bcd60e51b815260206004820152601d6024820152600080516020613777833981519152604482015290519081900360640190fd5b61131a7f000000000000000000000000000000000000000000000000000000000000000089888880806020026020016040519081016040528093929190818152602001838360200280828437600092019190915250612e9692505050565b9150868260008151811061132a57fe5b60200260200101511115610dca5760405162461bcd60e51b81526004018080602001828103825260278152602001806137506027913960400191505060405180910390fd5b6000806113bd7f00000000000000000000000000000000000000000000000000000000000000008d7f0000000000000000000000000000000000000000000000000000000000000000612a3c565b90506000866113cc578b6113d0565b6000195b6040805163d505accf60e01b815233600482015230602482015260448101839052606481018b905260ff8916608482015260a4810188905260c4810187905290519192506001600160a01b0384169163d505accf9160e48082019260009290919082900301818387803b15801561144657600080fd5b505af115801561145a573d6000803e3d6000fd5b5050505061146c8d8d8d8d8d8d61191b565b9d9c50505050505050505050505050565b606081428110156114c3576040805162461bcd60e51b8152602060048201526018602482015260008051602061385a833981519152604482015290519081900360640190fd5b7f00000000000000000000000000000000000000000000000000000000000000006001600160a01b0316868660008181106114fa57fe5b905060200201356001600160a01b03166001600160a01b031614611553576040805162461bcd60e51b815260206004820152601d6024820152600080516020613777833981519152604482015290519081900360640190fd5b6115b17f0000000000000000000000000000000000000000000000000000000000000000348888808060200260200160405190810160405280939291908181526020018383602002808284376000920191909152506128f092505050565b915086826001845103815181106115c457fe5b602002602001015110156116095760405162461bcd60e51b815260040180806020018281038252602b8152602001806137e0602b913960400191505060405180910390fd5b7f00000000000000000000000000000000000000000000000000000000000000006001600160a01b031663d0e30db08360008151811061164557fe5b60200260200101516040518263ffffffff1660e01b81526004016000604051808303818588803b15801561167857600080fd5b505af115801561168c573d6000803e3d6000fd5b50505050507f00000000000000000000000000000000000000000000000000000000000000006001600160a01b031663a9059cbb61170e7f0000000000000000000000000000000000000000000000000000000000000000898960008181106116f157fe5b905060200201356001600160a01b03168a8a6001818110610e3957fe5b8460008151811061171b57fe5b60200260200101516040518363ffffffff1660e01b815260040180836001600160a01b0316815260200182815260200192505050602060405180830381600087803b15801561176957600080fd5b505af115801561177d573d6000803e3d6000fd5b505050506040513d602081101561179357600080fd5b505161179b57fe5b6117da82878780806020026020016040519081016040528093929190818152602001838360200280828437600092019190915250899250612c59915050565b5095945050505050565b6000610c33848484612fce565b60608142811015611837576040805162461bcd60e51b8152602060048201526018602482015260008051602061385a833981519152604482015290519081900360640190fd5b6118957f000000000000000000000000000000000000000000000000000000000000000089888880806020026020016040519081016040528093929190818152602001838360200280828437600092019190915250612e9692505050565b915086826000815181106118a557fe5b602002602001015111156111945760405162461bcd60e51b81526004018080602001828103825260278152602001806137506027913960400191505060405180910390fd5b7f000000000000000000000000000000000000000000000000000000000000000081565b6000610c338484846130a6565b60008142811015611961576040805162461bcd60e51b8152602060048201526018602482015260008051602061385a833981519152604482015290519081900360640190fd5b611990887f00000000000000000000000000000000000000000000000000000000000000008989893089611aa1565b905080925050611a1988858a6001600160a01b03166370a08231306040518263ffffffff1660e01b815260040180826001600160a01b0316815260200191505060206040518083038186803b1580156119e857600080fd5b505afa1580156119fc573d6000803e3d6000fd5b505050506040513d6020811015611a1257600080fd5b50516125b6565b7f00000000000000000000000000000000000000000000000000000000000000006001600160a01b0316632e1a7d4d836040518263ffffffff1660e01b815260040180828152602001915050600060405180830381600087803b158015611a7f57600080fd5b505af1158015611a93573d6000803e3d6000fd5b50505050610f5d8483612720565b6000808242811015611ae8576040805162461bcd60e51b8152602060048201526018602482015260008051602061385a833981519152604482015290519081900360640190fd5b6000611b157f00000000000000000000000000000000000000000000000000000000000000008c8c612a3c565b604080516323b872dd60e01b81523360048201526001600160a01b03831660248201819052604482018d9052915192935090916323b872dd916064808201926020929091908290030181600087803b158015611b7057600080fd5b505af1158015611b84573d6000803e3d6000fd5b505050506040513d6020811015611b9a57600080fd5b50506040805163226bf2d160e21b81526001600160a01b03888116600483015282516000938493928616926389afcb44926024808301939282900301818787803b158015611be757600080fd5b505af1158015611bfb573d6000803e3d6000fd5b505050506040513d6040811015611c1157600080fd5b50805160209091015190925090506000611c2b8e8e61314c565b509050806001600160a01b03168e6001600160a01b031614611c4e578183611c51565b82825b90975095508a871015611c955760405162461bcd60e51b81526004018080602001828103825260268152602001806137976026913960400191505060405180910390fd5b89861015611cd45760405162461bcd60e51b81526004018080602001828103825260268152602001806136dd6026913960400191505060405180910390fd5b505050505097509795505050505050565b7f000000000000000000000000000000000000000000000000000000000000000081565b6060610f957f000000000000000000000000000000000000000000000000000000000000000084846128f0565b6000806000611d867f00000000000000000000000000000000000000000000000000000000000000008e7f0000000000000000000000000000000000000000000000000000000000000000612a3c565b9050600087611d95578c611d99565b6000195b6040805163d505accf60e01b815233600482015230602482015260448101839052606481018c905260ff8a16608482015260a4810189905260c4810188905290519192506001600160a01b0384169163d505accf9160e48082019260009290919082900301818387803b158015611e0f57600080fd5b505af1158015611e23573d6000803e3d6000fd5b50505050611e358e8e8e8e8e8e610b0c565b909f909e509c50505050505050505050505050565b6000610f957f00000000000000000000000000000000000000000000000000000000000000008484612a3c565b60008060008342811015611ec0576040805162461bcd60e51b8152602060048201526018602482015260008051602061385a833981519152604482015290519081900360640190fd5b611ece8c8c8c8c8c8c61322a565b90945092506000611f007f00000000000000000000000000000000000000000000000000000000000000008e8e612a3c565b9050611f0e8d338388612afc565b611f1a8c338387612afc565b806001600160a01b0316636a627842886040518263ffffffff1660e01b815260040180826001600160a01b03168152602001915050602060405180830381600087803b158015611f6957600080fd5b505af1158015611f7d573d6000803e3d6000fd5b505050506040513d6020811015611f9357600080fd5b5051949d939c50939a509198505050505050505050565b60008060008342811015611ff3576040805162461bcd60e51b8152602060048201526018602482015260008051602061385a833981519152604482015290519081900360640190fd5b6120218a7f00000000000000000000000000000000000000000000000000000000000000008b348c8c61322a565b909450925060006120737f00000000000000000000000000000000000000000000000000000000000000008c7f0000000000000000000000000000000000000000000000000000000000000000612a3c565b90506120818b338388612afc565b7f00000000000000000000000000000000000000000000000000000000000000006001600160a01b031663d0e30db0856040518263ffffffff1660e01b81526004016000604051808303818588803b1580156120dc57600080fd5b505af11580156120f0573d6000803e3d6000fd5b50505050507f00000000000000000000000000000000000000000000000000000000000000006001600160a01b031663a9059cbb82866040518363ffffffff1660e01b815260040180836001600160a01b0316815260200182815260200192505050602060405180830381600087803b15801561216c57600080fd5b505af1158015612180573d6000803e3d6000fd5b505050506040513d602081101561219657600080fd5b505161219e57fe5b806001600160a01b0316636a627842886040518263ffffffff1660e01b815260040180826001600160a01b03168152602001915050602060405180830381600087803b1580156121ed57600080fd5b505af1158015612201573d6000803e3d6000fd5b505050506040513d602081101561221757600080fd5b505192503484101561222f5761222f33853403612720565b505096509650969350505050565b60608142811015612283576040805162461bcd60e51b8152602060048201526018602482015260008051602061385a833981519152604482015290519081900360640190fd5b7f00000000000000000000000000000000000000000000000000000000000000006001600160a01b0316868660008181106122ba57fe5b905060200201356001600160a01b03166001600160a01b031614612313576040805162461bcd60e51b815260206004820152601d6024820152600080516020613777833981519152604482015290519081900360640190fd5b6123717f000000000000000000000000000000000000000000000000000000000000000088888880806020026020016040519081016040528093929190818152602001838360200280828437600092019190915250612e9692505050565b9150348260008151811061238157fe5b602002602001015111156123c65760405162461bcd60e51b81526004018080602001828103825260278152602001806137506027913960400191505060405180910390fd5b7f00000000000000000000000000000000000000000000000000000000000000006001600160a01b031663d0e30db08360008151811061240257fe5b60200260200101516040518263ffffffff1660e01b81526004016000604051808303818588803b15801561243557600080fd5b505af1158015612449573d6000803e3d6000fd5b50505050507f00000000000000000000000000000000000000000000000000000000000000006001600160a01b031663a9059cbb6124ae7f0000000000000000000000000000000000000000000000000000000000000000898960008181106116f157fe5b846000815181106124bb57fe5b60200260200101516040518363ffffffff1660e01b815260040180836001600160a01b0316815260200182815260200192505050602060405180830381600087803b15801561250957600080fd5b505af115801561251d573d6000803e3d6000fd5b505050506040513d602081101561253357600080fd5b505161253b57fe5b61257a82878780806020026020016040519081016040528093929190818152602001838360200280828437600092019190915250899250612c59915050565b8160008151811061258757fe5b60200260200101513411156117da576117da33836000815181106125a757fe5b60200260200101513403612720565b604080516001600160a01b038481166024830152604480830185905283518084039091018152606490920183526020820180516001600160e01b031663a9059cbb60e01b178152925182516000946060949389169392918291908083835b602083106126335780518252601f199092019160209182019101612614565b6001836020036101000a0380198251168184511680821785525050505050509050019150506000604051808303816000865af19150503d8060008114612695576040519150601f19603f3d011682016040523d82523d6000602084013e61269a565b606091505b50915091508180156126c85750805115806126c857508080602001905160208110156126c557600080fd5b50515b612719576040805162461bcd60e51b815260206004820152601f60248201527f5472616e7366657248656c7065723a205452414e534645525f4641494c454400604482015290519081900360640190fd5b5050505050565b604080516000808252602082019092526001600160a01b0384169083906040518082805190602001908083835b6020831061276c5780518252601f19909201916020918201910161274d565b6001836020036101000a03801982511681845116808217855250505050505090500191505060006040518083038185875af1925050503d80600081146127ce576040519150601f19603f3d011682016040523d82523d6000602084013e6127d3565b606091505b50509050806128135760405162461bcd60e51b81526004018080602001828103825260238152602001806137bd6023913960400191505060405180910390fd5b505050565b60008084116128585760405162461bcd60e51b815260040180806020018281038252602b81526020018061382f602b913960400191505060405180910390fd5b6000831180156128685750600082115b6128a35760405162461bcd60e51b81526004018080602001828103825260288152602001806137036028913960400191505060405180910390fd5b60006128b1856103e56134bb565b905060006128bf82856134bb565b905060006128d9836128d3886103e86134bb565b9061351e565b90508082816128e457fe5b04979650505050505050565b6060600282511015612949576040805162461bcd60e51b815260206004820152601e60248201527f556e697377617056324c6962726172793a20494e56414c49445f504154480000604482015290519081900360640190fd5b815167ffffffffffffffff8111801561296157600080fd5b5060405190808252806020026020018201604052801561298b578160200160208202803683370190505b509050828160008151811061299c57fe5b60200260200101818152505060005b6001835103811015612a34576000806129ee878685815181106129ca57fe5b60200260200101518786600101815181106129e157fe5b602002602001015161356d565b91509150612a10848481518110612a0157fe5b60200260200101518383612818565b848460010181518110612a1f57fe5b602090810291909101015250506001016129ab565b509392505050565b6000806000612a4b858561314c565b604080516bffffffffffffffffffffffff19606094851b811660208084019190915293851b81166034830152825160288184030181526048830184528051908501206001600160f81b031960688401529a90941b9093166069840152607d8301989098527f731406021004244dac72ce242900a56e9adbdc067adee6d96205c455956168a1609d808401919091528851808403909101815260bd909201909752805196019590952095945050505050565b604080516001600160a01b0385811660248301528481166044830152606480830185905283518084039091018152608490920183526020820180516001600160e01b03166323b872dd60e01b17815292518251600094606094938a169392918291908083835b60208310612b815780518252601f199092019160209182019101612b62565b6001836020036101000a0380198251168184511680821785525050505050509050019150506000604051808303816000865af19150503d8060008114612be3576040519150601f19603f3d011682016040523d82523d6000602084013e612be8565b606091505b5091509150818015612c16575080511580612c165750808060200190516020811015612c1357600080fd5b50515b612c515760405162461bcd60e51b815260040180806020018281038252602481526020018061380b6024913960400191505060405180910390fd5b505050505050565b60005b6001835103811015612e9057600080848381518110612c7757fe5b6020026020010151858460010181518110612c8e57fe5b6020026020010151915091506000612ca6838361314c565b5090506000878560010181518110612cba57fe5b60200260200101519050600080836001600160a01b0316866001600160a01b031614612ce857826000612cec565b6000835b91509150600060028a51038810612d035788612d44565b612d447f0000000000000000000000000000000000000000000000000000000000000000878c8b60020181518110612d3757fe5b6020026020010151612a3c565b9050612d717f00000000000000000000000000000000000000000000000000000000000000008888612a3c565b6001600160a01b031663022c0d9f84848460006040519080825280601f01601f191660200182016040528015612dae576020820181803683370190505b506040518563ffffffff1660e01b815260040180858152602001848152602001836001600160a01b0316815260200180602001828103825283818151815260200191508051906020019080838360005b83811015612e16578181015183820152602001612dfe565b50505050905090810190601f168015612e435780820380516001836020036101000a031916815260200191505b5095505050505050600060405180830381600087803b158015612e6557600080fd5b505af1158015612e79573d6000803e3d6000fd5b505060019099019850612c5c975050505050505050565b50505050565b6060600282511015612eef576040805162461bcd60e51b815260206004820152601e60248201527f556e697377617056324c6962726172793a20494e56414c49445f504154480000604482015290519081900360640190fd5b815167ffffffffffffffff81118015612f0757600080fd5b50604051908082528060200260200182016040528015612f31578160200160208202803683370190505b5090508281600183510381518110612f4557fe5b60209081029190910101528151600019015b8015612a3457600080612f8787866001860381518110612f7357fe5b60200260200101518786815181106129e157fe5b91509150612fa9848481518110612f9a57fe5b60200260200101518383612fce565b846001850381518110612fb857fe5b6020908102919091010152505060001901612f57565b600080841161300e5760405162461bcd60e51b815260040180806020018281038252602c81526020018061368c602c913960400191505060405180910390fd5b60008311801561301e5750600082115b6130595760405162461bcd60e51b81526004018080602001828103825260288152602001806137036028913960400191505060405180910390fd5b60006130716103e861306b86886134bb565b906134bb565b905060006130856103e561306b868961363b565b905061309c600182848161309557fe5b049061351e565b9695505050505050565b60008084116130e65760405162461bcd60e51b815260040180806020018281038252602581526020018061372b6025913960400191505060405180910390fd5b6000831180156130f65750600082115b6131315760405162461bcd60e51b81526004018080602001828103825260288152602001806137036028913960400191505060405180910390fd5b8261313c85846134bb565b8161314357fe5b04949350505050565b600080826001600160a01b0316846001600160a01b031614156131a05760405162461bcd60e51b81526004018080602001828103825260258152602001806136b86025913960400191505060405180910390fd5b826001600160a01b0316846001600160a01b0316106131c05782846131c3565b83835b90925090506001600160a01b038216613223576040805162461bcd60e51b815260206004820152601e60248201527f556e697377617056324c6962726172793a205a45524f5f414444524553530000604482015290519081900360640190fd5b9250929050565b60008060006001600160a01b03167f00000000000000000000000000000000000000000000000000000000000000006001600160a01b031663e6a439058a8a6040518363ffffffff1660e01b815260040180836001600160a01b03168152602001826001600160a01b031681526020019250505060206040518083038186803b1580156132b657600080fd5b505afa1580156132ca573d6000803e3d6000fd5b505050506040513d60208110156132e057600080fd5b50516001600160a01b0316141561339e577f00000000000000000000000000000000000000000000000000000000000000006001600160a01b031663c9c6539689896040518363ffffffff1660e01b815260040180836001600160a01b03168152602001826001600160a01b0316815260200192505050602060405180830381600087803b15801561337157600080fd5b505af1158015613385573d6000803e3d6000fd5b505050506040513d602081101561339b57600080fd5b50505b6000806133cc7f00000000000000000000000000000000000000000000000000000000000000008b8b61356d565b915091508160001480156133de575080155b156133ee578793508692506134ae565b60006133fb8984846130a6565b905087811161344e57858110156134435760405162461bcd60e51b81526004018080602001828103825260268152602001806136dd6026913960400191505060405180910390fd5b8894509250826134ac565b600061345b8984866130a6565b90508981111561346757fe5b878110156134a65760405162461bcd60e51b81526004018080602001828103825260268152602001806137976026913960400191505060405180910390fd5b94508793505b505b5050965096945050505050565b60008115806134d6575050808202828282816134d357fe5b04145b610f98576040805162461bcd60e51b815260206004820152601460248201527364732d6d6174682d6d756c2d6f766572666c6f7760601b604482015290519081900360640190fd5b80820182811015610f98576040805162461bcd60e51b815260206004820152601460248201527364732d6d6174682d6164642d6f766572666c6f7760601b604482015290519081900360640190fd5b600080600061357c858561314c565b50905060008061358d888888612a3c565b6001600160a01b0316630902f1ac6040518163ffffffff1660e01b815260040160606040518083038186803b1580156135c557600080fd5b505afa1580156135d9573d6000803e3d6000fd5b505050506040513d60608110156135ef57600080fd5b5080516020909101516dffffffffffffffffffffffffffff91821693501690506001600160a01b038781169084161461362957808261362c565b81815b90999098509650505050505050565b80820382811115610f98576040805162461bcd60e51b815260206004820152601560248201527464732d6d6174682d7375622d756e646572666c6f7760581b604482015290519081900360640190fdfe556e697377617056324c6962726172793a20494e53554646494349454e545f4f55545055545f414d4f554e54556e697377617056324c6962726172793a204944454e544943414c5f414444524553534553556e69737761705632526f757465723a20494e53554646494349454e545f425f414d4f554e54556e697377617056324c6962726172793a20494e53554646494349454e545f4c4951554944495459556e697377617056324c6962726172793a20494e53554646494349454e545f414d4f554e54556e69737761705632526f757465723a204558434553534956455f494e5055545f414d4f554e54556e69737761705632526f757465723a20494e56414c49445f50415448000000556e69737761705632526f757465723a20494e53554646494349454e545f415f414d4f554e545472616e7366657248656c7065723a204554485f5452414e534645525f4641494c4544556e69737761705632526f757465723a20494e53554646494349454e545f4f55545055545f414d4f554e545472616e7366657248656c7065723a205452414e534645525f46524f4d5f4641494c4544556e697377617056324c6962726172793a20494e53554646494349454e545f494e5055545f414d4f554e54556e69737761705632526f757465723a20455850495245440000000000000000a2646970667358221220c501d0a64d6092eda91305fe23d8de84dcaecb2b7a2f6c4d83ee53bc2748c8c264736f6c634300060c0033",
  "devdoc": {
    "kind": "dev",
    "methods": {},
    "version": 1
  },
  "userdoc": {
    "kind": "user",
    "methods": {},
    "version": 1
  },
  "storageLayout": {
    "storage": [],
    "types": null
  }
}