{
  "address": "0x1040b22BF667bF7Ae0F7f4f15c5B2FFAcf42962E",
  "abi": [
    {
      "inputs": [],
      "stateMutability": "nonpayable",
      "type": "constructor"
    },
    {
      "anonymous": false,
      "inputs": [
        {
          "indexed": true,
          "internalType": "address",
          "name": "owner",
          "type": "address"
        },
        {
          "indexed": true,
          "internalType": "address",
          "name": "spender",
          "type": "address"
        },
        {
          "indexed": false,
          "internalType": "uint256",
          "name": "value",
          "type": "uint256"
        }
      ],
      "name": "Approval",
      "type": "event"
    },
    {
      "anonymous": false,
      "inputs": [
        {
          "indexed": true,
          "internalType": "bytes32",
          "name": "role",
          "type": "bytes32"
        },
        {
          "indexed": true,
          "internalType": "bytes32",
          "name": "previousAdminRole",
          "type": "bytes32"
        },
        {
          "indexed": true,
          "internalType": "bytes32",
          "name": "newAdminRole",
          "type": "bytes32"
        }
      ],
      "name": "RoleAdminChanged",
      "type": "event"
    },
    {
      "anonymous": false,
      "inputs": [
        {
          "indexed": true,
          "internalType": "bytes32",
          "name": "role",
          "type": "bytes32"
        },
        {
          "indexed": true,
          "internalType": "address",
          "name": "account",
          "type": "address"
        },
        {
          "indexed": true,
          "internalType": "address",
          "name": "sender",
          "type": "address"
        }
      ],
      "name": "RoleGranted",
      "type": "event"
    },
    {
      "anonymous": false,
      "inputs": [
        {
          "indexed": true,
          "internalType": "bytes32",
          "name": "role",
          "type": "bytes32"
        },
        {
          "indexed": true,
          "internalType": "address",
          "name": "account",
          "type": "address"
        },
        {
          "indexed": true,
          "internalType": "address",
          "name": "sender",
          "type": "address"
        }
      ],
      "name": "RoleRevoked",
      "type": "event"
    },
    {
      "anonymous": false,
      "inputs": [
        {
          "indexed": true,
          "internalType": "address",
          "name": "from",
          "type": "address"
        },
        {
          "indexed": true,
          "internalType": "address",
          "name": "to",
          "type": "address"
        },
        {
          "indexed": false,
          "internalType": "uint256",
          "name": "value",
          "type": "uint256"
        }
      ],
      "name": "Transfer",
      "type": "event"
    },
    {
      "inputs": [],
      "name": "BURNER_ROLE",
      "outputs": [
        {
          "internalType": "bytes32",
          "name": "",
          "type": "bytes32"
        }
      ],
      "stateMutability": "view",
      "type": "function"
    },
    {
      "inputs": [],
      "name": "DEFAULT_ADMIN_ROLE",
      "outputs": [
        {
          "internalType": "bytes32",
          "name": "",
          "type": "bytes32"
        }
      ],
      "stateMutability": "view",
      "type": "function"
    },
    {
      "inputs": [],
      "name": "MINTER_ROLE",
      "outputs": [
        {
          "internalType": "bytes32",
          "name": "",
          "type": "bytes32"
        }
      ],
      "stateMutability": "view",
      "type": "function"
    },
    {
      "inputs": [
        {
          "internalType": "address",
          "name": "owner",
          "type": "address"
        },
        {
          "internalType": "address",
          "name": "spender",
          "type": "address"
        }
      ],
      "name": "allowance",
      "outputs": [
        {
          "internalType": "uint256",
          "name": "",
          "type": "uint256"
        }
      ],
      "stateMutability": "view",
      "type": "function"
    },
    {
      "inputs": [
        {
          "internalType": "address",
          "name": "spender",
          "type": "address"
        },
        {
          "internalType": "uint256",
          "name": "amount",
          "type": "uint256"
        }
      ],
      "name": "approve",
      "outputs": [
        {
          "internalType": "bool",
          "name": "",
          "type": "bool"
        }
      ],
      "stateMutability": "nonpayable",
      "type": "function"
    },
    {
      "inputs": [
        {
          "internalType": "address",
          "name": "account",
          "type": "address"
        }
      ],
      "name": "balanceOf",
      "outputs": [
        {
          "internalType": "uint256",
          "name": "",
          "type": "uint256"
        }
      ],
      "stateMutability": "view",
      "type": "function"
    },
    {
      "inputs": [
        {
          "internalType": "address",
          "name": "account",
          "type": "address"
        },
        {
          "internalType": "uint256",
          "name": "amount",
          "type": "uint256"
        }
      ],
      "name": "burn",
      "outputs": [],
      "stateMutability": "nonpayable",
      "type": "function"
    },
    {
      "inputs": [],
      "name": "decimals",
      "outputs": [
        {
          "internalType": "uint8",
          "name": "",
          "type": "uint8"
        }
      ],
      "stateMutability": "view",
      "type": "function"
    },
    {
      "inputs": [
        {
          "internalType": "address",
          "name": "spender",
          "type": "address"
        },
        {
          "internalType": "uint256",
          "name": "subtractedValue",
          "type": "uint256"
        }
      ],
      "name": "decreaseAllowance",
      "outputs": [
        {
          "internalType": "bool",
          "name": "",
          "type": "bool"
        }
      ],
      "stateMutability": "nonpayable",
      "type": "function"
    },
    {
      "inputs": [
        {
          "internalType": "bytes32",
          "name": "role",
          "type": "bytes32"
        }
      ],
      "name": "getRoleAdmin",
      "outputs": [
        {
          "internalType": "bytes32",
          "name": "",
          "type": "bytes32"
        }
      ],
      "stateMutability": "view",
      "type": "function"
    },
    {
      "inputs": [
        {
          "internalType": "bytes32",
          "name": "role",
          "type": "bytes32"
        },
        {
          "internalType": "address",
          "name": "account",
          "type": "address"
        }
      ],
      "name": "grantRole",
      "outputs": [],
      "stateMutability": "nonpayable",
      "type": "function"
    },
    {
      "inputs": [
        {
          "internalType": "bytes32",
          "name": "role",
          "type": "bytes32"
        },
        {
          "internalType": "address",
          "name": "account",
          "type": "address"
        }
      ],
      "name": "hasRole",
      "outputs": [
        {
          "internalType": "bool",
          "name": "",
          "type": "bool"
        }
      ],
      "stateMutability": "view",
      "type": "function"
    },
    {
      "inputs": [
        {
          "internalType": "address",
          "name": "spender",
          "type": "address"
        },
        {
          "internalType": "uint256",
          "name": "addedValue",
          "type": "uint256"
        }
      ],
      "name": "increaseAllowance",
      "outputs": [
        {
          "internalType": "bool",
          "name": "",
          "type": "bool"
        }
      ],
      "stateMutability": "nonpayable",
      "type": "function"
    },
    {
      "inputs": [
        {
          "internalType": "address",
          "name": "_to",
          "type": "address"
        },
        {
          "internalType": "uint256",
          "name": "_amount",
          "type": "uint256"
        }
      ],
      "name": "mint",
      "outputs": [],
      "stateMutability": "nonpayable",
      "type": "function"
    },
    {
      "inputs": [],
      "name": "name",
      "outputs": [
        {
          "internalType": "string",
          "name": "",
          "type": "string"
        }
      ],
      "stateMutability": "view",
      "type": "function"
    },
    {
      "inputs": [
        {
          "internalType": "bytes32",
          "name": "role",
          "type": "bytes32"
        },
        {
          "internalType": "address",
          "name": "account",
          "type": "address"
        }
      ],
      "name": "renounceRole",
      "outputs": [],
      "stateMutability": "nonpayable",
      "type": "function"
    },
    {
      "inputs": [
        {
          "internalType": "bytes32",
          "name": "role",
          "type": "bytes32"
        },
        {
          "internalType": "address",
          "name": "account",
          "type": "address"
        }
      ],
      "name": "revokeRole",
      "outputs": [],
      "stateMutability": "nonpayable",
      "type": "function"
    },
    {
      "inputs": [
        {
          "internalType": "bytes4",
          "name": "interfaceId",
          "type": "bytes4"
        }
      ],
      "name": "supportsInterface",
      "outputs": [
        {
          "internalType": "bool",
          "name": "",
          "type": "bool"
        }
      ],
      "stateMutability": "view",
      "type": "function"
    },
    {
      "inputs": [],
      "name": "symbol",
      "outputs": [
        {
          "internalType": "string",
          "name": "",
          "type": "string"
        }
      ],
      "stateMutability": "view",
      "type": "function"
    },
    {
      "inputs": [],
      "name": "totalSupply",
      "outputs": [
        {
          "internalType": "uint256",
          "name": "",
          "type": "uint256"
        }
      ],
      "stateMutability": "view",
      "type": "function"
    },
    {
      "inputs": [
        {
          "internalType": "address",
          "name": "to",
          "type": "address"
        },
        {
          "internalType": "uint256",
          "name": "amount",
          "type": "uint256"
        }
      ],
      "name": "transfer",
      "outputs": [
        {
          "internalType": "bool",
          "name": "",
          "type": "bool"
        }
      ],
      "stateMutability": "nonpayable",
      "type": "function"
    },
    {
      "inputs": [
        {
          "internalType": "address",
          "name": "from",
          "type": "address"
        },
        {
          "internalType": "address",
          "name": "to",
          "type": "address"
        },
        {
          "internalType": "uint256",
          "name": "amount",
          "type": "uint256"
        }
      ],
      "name": "transferFrom",
      "outputs": [
        {
          "internalType": "bool",
          "name": "",
          "type": "bool"
        }
      ],
      "stateMutability": "nonpayable",
      "type": "function"
    }
  ],
  "transactionHash": "0x73f30bb45180ce69ef04d2b23d7c8fda5b61084047c6b60806ac0232411c2331",
  "args": [],
  "numDeployments": 1,
  "solcInputHash": "133051b5bf40a4846418dd29f2821274",
  "bytecode": "0x60806040523480156200001157600080fd5b50604080518082018252600a81526921b630bc902a37b5b2b760b11b602080830191825283518085019094526004845263434c415960e01b9084015281519192916200006091600391620001b1565b50805162000076906004906020840190620001b1565b506200008891506000905033620000e6565b620000b47f9f2df0fed2c77648de5860a4cc508cd0818c85b8b8a1ab4ceeef8d981c8956a633620000e6565b620000e07f3c11d16cbaffd01df69ce1c404f6340ee057498f5f00246190ea54220576a84833620000e6565b62000294565b620000f28282620000f6565b5050565b62000102828262000182565b620000f25760008281526005602090815260408083206001600160a01b03851684529091529020805460ff191660011790556200013e620001ad565b6001600160a01b0316816001600160a01b0316837f2f8788117e7eff1d82e926ec794901d17c78024a50270940304540a733656f0d60405160405180910390a45050565b60009182526005602090815260408084206001600160a01b0393909316845291905290205460ff1690565b3390565b828054620001bf9062000257565b90600052602060002090601f016020900481019282620001e357600085556200022e565b82601f10620001fe57805160ff19168380011785556200022e565b828001600101855582156200022e579182015b828111156200022e57825182559160200191906001019062000211565b506200023c92915062000240565b5090565b5b808211156200023c576000815560010162000241565b6002810460018216806200026c57607f821691505b602082108114156200028e57634e487b7160e01b600052602260045260246000fd5b50919050565b61163080620002a46000396000f3fe608060405234801561001057600080fd5b50600436106101825760003560e01c806340c10f19116100d8578063a217fddf1161008c578063d539139311610066578063d5391393146102ed578063d547741f146102f5578063dd62ed3e1461030857610182565b8063a217fddf146102bf578063a457c2d7146102c7578063a9059cbb146102da57610182565b806391d14854116100bd57806391d148541461029157806395d89b41146102a45780639dc29fac146102ac57610182565b806340c10f191461026b57806370a082311461027e57610182565b8063248a9ca31161013a578063313ce56711610114578063313ce5671461023057806336568abe14610245578063395093511461025857610182565b8063248a9ca314610200578063282c51f3146102135780632f2ff15d1461021b57610182565b8063095ea7b31161016b578063095ea7b3146101c557806318160ddd146101d857806323b872dd146101ed57610182565b806301ffc9a71461018757806306fdde03146101b0575b600080fd5b61019a610195366004610fac565b61031b565b6040516101a7919061106d565b60405180910390f35b6101b8610379565b6040516101a79190611081565b61019a6101d3366004610f49565b61040b565b6101e061042d565b6040516101a79190611078565b61019a6101fb366004610f0e565b610433565b6101e061020e366004610f72565b610461565b6101e0610476565b61022e610229366004610f8a565b61049a565b005b6102386104bb565b6040516101a7919061150a565b61022e610253366004610f8a565b6104c0565b61019a610266366004610f49565b61050f565b61022e610279366004610f49565b61053b565b6101e061028c366004610ec2565b61058b565b61019a61029f366004610f8a565b6105a6565b6101b86105d1565b61022e6102ba366004610f49565b6105e0565b6101e0610630565b61019a6102d5366004610f49565b610635565b61019a6102e8366004610f49565b61067d565b6101e0610695565b61022e610303366004610f8a565b6106b9565b6101e0610316366004610edc565b6106d5565b60007fffffffff0000000000000000000000000000000000000000000000000000000082167f7965db0b000000000000000000000000000000000000000000000000000000001480610371575061037182610700565b90505b919050565b606060038054610388906115a9565b80601f01602080910402602001604051908101604052809291908181526020018280546103b4906115a9565b80156104015780601f106103d657610100808354040283529160200191610401565b820191906000526020600020905b8154815290600101906020018083116103e457829003601f168201915b5050505050905090565b60008061041661074a565b905061042381858561074e565b5060019392505050565b60025490565b60008061043e61074a565b905061044b858285610802565b61045685858561084c565b506001949350505050565b60009081526005602052604090206001015490565b7f3c11d16cbaffd01df69ce1c404f6340ee057498f5f00246190ea54220576a84881565b6104a382610461565b6104ac81610970565b6104b68383610984565b505050565b601290565b6104c861074a565b6001600160a01b0316816001600160a01b0316146105015760405162461bcd60e51b81526004016104f890611476565b60405180910390fd5b61050b8282610a0b565b5050565b60008061051a61074a565b905061042381858561052c85896106d5565b6105369190611518565b61074e565b6105657f9f2df0fed2c77648de5860a4cc508cd0818c85b8b8a1ab4ceeef8d981c8956a6336105a6565b6105815760405162461bcd60e51b81526004016104f890611294565b61050b8282610a90565b6001600160a01b031660009081526020819052604090205490565b60009182526005602090815260408084206001600160a01b0393909316845291905290205460ff1690565b606060048054610388906115a9565b61060a7f3c11d16cbaffd01df69ce1c404f6340ee057498f5f00246190ea54220576a848336105a6565b6106265760405162461bcd60e51b81526004016104f8906112cb565b61050b8282610b58565b600081565b60008061064061074a565b9050600061064e82866106d5565b9050838110156106705760405162461bcd60e51b81526004016104f890611419565b610456828686840361074e565b60008061068861074a565b905061042381858561084c565b7f9f2df0fed2c77648de5860a4cc508cd0818c85b8b8a1ab4ceeef8d981c8956a681565b6106c282610461565b6106cb81610970565b6104b68383610a0b565b6001600160a01b03918216600090815260016020908152604080832093909416825291909152205490565b7fffffffff0000000000000000000000000000000000000000000000000000000081167f01ffc9a70000000000000000000000000000000000000000000000000000000014919050565b3390565b6001600160a01b0383166107745760405162461bcd60e51b81526004016104f8906113bc565b6001600160a01b03821661079a5760405162461bcd60e51b81526004016104f8906111a3565b6001600160a01b0380841660008181526001602090815260408083209487168084529490915290819020849055517f8c5be1e5ebec7d5bd14f71427d1e84f3dd0314c0f7b2291e5b200ac8c7c3b925906107f5908590611078565b60405180910390a3505050565b600061080e84846106d5565b9050600019811461084657818110156108395760405162461bcd60e51b81526004016104f890611200565b610846848484840361074e565b50505050565b6001600160a01b0383166108725760405162461bcd60e51b81526004016104f89061135f565b6001600160a01b0382166108985760405162461bcd60e51b81526004016104f8906110e9565b6108a38383836104b6565b6001600160a01b038316600090815260208190526040902054818110156108dc5760405162461bcd60e51b81526004016104f890611237565b6001600160a01b03808516600090815260208190526040808220858503905591851681529081208054849290610913908490611518565b92505081905550826001600160a01b0316846001600160a01b03167fddf252ad1be2c89b69c2b068fc378daa952ba7f163c4a11628f55a4df523b3ef8460405161095d9190611078565b60405180910390a36108468484846104b6565b6109818161097c61074a565b610c49565b50565b61098e82826105a6565b61050b5760008281526005602090815260408083206001600160a01b03851684529091529020805460ff191660011790556109c761074a565b6001600160a01b0316816001600160a01b0316837f2f8788117e7eff1d82e926ec794901d17c78024a50270940304540a733656f0d60405160405180910390a45050565b610a1582826105a6565b1561050b5760008281526005602090815260408083206001600160a01b03851684529091529020805460ff19169055610a4c61074a565b6001600160a01b0316816001600160a01b0316837ff6391f5c32d9c69d2a47ea670b442974b53935d1edc7fd64eb21e047a839171b60405160405180910390a45050565b6001600160a01b038216610ab65760405162461bcd60e51b81526004016104f8906114d3565b610ac2600083836104b6565b8060026000828254610ad49190611518565b90915550506001600160a01b03821660009081526020819052604081208054839290610b01908490611518565b90915550506040516001600160a01b038316906000907fddf252ad1be2c89b69c2b068fc378daa952ba7f163c4a11628f55a4df523b3ef90610b44908590611078565b60405180910390a361050b600083836104b6565b6001600160a01b038216610b7e5760405162461bcd60e51b81526004016104f890611302565b610b8a826000836104b6565b6001600160a01b03821660009081526020819052604090205481811015610bc35760405162461bcd60e51b81526004016104f890611146565b6001600160a01b0383166000908152602081905260408120838303905560028054849290610bf290849061154f565b90915550506040516000906001600160a01b038516907fddf252ad1be2c89b69c2b068fc378daa952ba7f163c4a11628f55a4df523b3ef90610c35908690611078565b60405180910390a36104b6836000846104b6565b610c5382826105a6565b61050b57610c6b816001600160a01b03166014610cad565b610c76836020610cad565b604051602001610c87929190610fec565b60408051601f198184030181529082905262461bcd60e51b82526104f891600401611081565b60606000610cbc836002611530565b610cc7906002611518565b67ffffffffffffffff811115610ced57634e487b7160e01b600052604160045260246000fd5b6040519080825280601f01601f191660200182016040528015610d17576020820181803683370190505b5090507f300000000000000000000000000000000000000000000000000000000000000081600081518110610d5c57634e487b7160e01b600052603260045260246000fd5b60200101906001600160f81b031916908160001a9053507f780000000000000000000000000000000000000000000000000000000000000081600181518110610db557634e487b7160e01b600052603260045260246000fd5b60200101906001600160f81b031916908160001a9053506000610dd9846002611530565b610de4906001611518565b90505b6001811115610e85577f303132333435363738396162636465660000000000000000000000000000000085600f1660108110610e3357634e487b7160e01b600052603260045260246000fd5b1a60f81b828281518110610e5757634e487b7160e01b600052603260045260246000fd5b60200101906001600160f81b031916908160001a90535060049490941c93610e7e81611592565b9050610de7565b508315610ea45760405162461bcd60e51b81526004016104f8906110b4565b9392505050565b80356001600160a01b038116811461037457600080fd5b600060208284031215610ed3578081fd5b610ea482610eab565b60008060408385031215610eee578081fd5b610ef783610eab565b9150610f0560208401610eab565b90509250929050565b600080600060608486031215610f22578081fd5b610f2b84610eab565b9250610f3960208501610eab565b9150604084013590509250925092565b60008060408385031215610f5b578182fd5b610f6483610eab565b946020939093013593505050565b600060208284031215610f83578081fd5b5035919050565b60008060408385031215610f9c578182fd5b82359150610f0560208401610eab565b600060208284031215610fbd578081fd5b81357fffffffff0000000000000000000000000000000000000000000000000000000081168114610ea4578182fd5b60007f416363657373436f6e74726f6c3a206163636f756e742000000000000000000082528351611024816017850160208801611566565b7f206973206d697373696e6720726f6c65200000000000000000000000000000006017918401918201528351611061816028840160208801611566565b01602801949350505050565b901515815260200190565b90815260200190565b60006020825282518060208401526110a0816040850160208701611566565b601f01601f19169190910160400192915050565b6020808252818101527f537472696e67733a20686578206c656e67746820696e73756666696369656e74604082015260600190565b60208082526023908201527f45524332303a207472616e7366657220746f20746865207a65726f206164647260408201527f6573730000000000000000000000000000000000000000000000000000000000606082015260800190565b60208082526022908201527f45524332303a206275726e20616d6f756e7420657863656564732062616c616e60408201527f6365000000000000000000000000000000000000000000000000000000000000606082015260800190565b60208082526022908201527f45524332303a20617070726f766520746f20746865207a65726f20616464726560408201527f7373000000000000000000000000000000000000000000000000000000000000606082015260800190565b6020808252601d908201527f45524332303a20696e73756666696369656e7420616c6c6f77616e6365000000604082015260600190565b60208082526026908201527f45524332303a207472616e7366657220616d6f756e742065786365656473206260408201527f616c616e63650000000000000000000000000000000000000000000000000000606082015260800190565b60208082526016908201527f43616c6c6572206973206e6f742061206d696e74657200000000000000000000604082015260600190565b60208082526016908201527f43616c6c6572206973206e6f742061206275726e657200000000000000000000604082015260600190565b60208082526021908201527f45524332303a206275726e2066726f6d20746865207a65726f2061646472657360408201527f7300000000000000000000000000000000000000000000000000000000000000606082015260800190565b60208082526025908201527f45524332303a207472616e736665722066726f6d20746865207a65726f20616460408201527f6472657373000000000000000000000000000000000000000000000000000000606082015260800190565b60208082526024908201527f45524332303a20617070726f76652066726f6d20746865207a65726f2061646460408201527f7265737300000000000000000000000000000000000000000000000000000000606082015260800190565b60208082526025908201527f45524332303a2064656372656173656420616c6c6f77616e63652062656c6f7760408201527f207a65726f000000000000000000000000000000000000000000000000000000606082015260800190565b6020808252602f908201527f416363657373436f6e74726f6c3a2063616e206f6e6c792072656e6f756e636560408201527f20726f6c657320666f722073656c660000000000000000000000000000000000606082015260800190565b6020808252601f908201527f45524332303a206d696e7420746f20746865207a65726f206164647265737300604082015260600190565b60ff91909116815260200190565b6000821982111561152b5761152b6115e4565b500190565b600081600019048311821515161561154a5761154a6115e4565b500290565b600082821015611561576115616115e4565b500390565b60005b83811015611581578181015183820152602001611569565b838111156108465750506000910152565b6000816115a1576115a16115e4565b506000190190565b6002810460018216806115bd57607f821691505b602082108114156115de57634e487b7160e01b600052602260045260246000fd5b50919050565b634e487b7160e01b600052601160045260246000fdfea264697066735822122039ea7cf95a3e02a581e0fde6d6c95254006af354698231b16173241c5c1ab27564736f6c63430008000033",
  "devdoc": {
    "kind": "dev",
    "methods": {
      "allowance(address,address)": {
        "details": "See {IERC20-allowance}."
      },
      "approve(address,uint256)": {
        "details": "See {IERC20-approve}. NOTE: If `amount` is the maximum `uint256`, the allowance is not updated on `transferFrom`. This is semantically equivalent to an infinite approval. Requirements: - `spender` cannot be the zero address."
      },
      "balanceOf(address)": {
        "details": "See {IERC20-balanceOf}."
      },
      "decimals()": {
        "details": "Returns the number of decimals used to get its user representation. For example, if `decimals` equals `2`, a balance of `505` tokens should be displayed to a user as `5.05` (`505 / 10 ** 2`). Tokens usually opt for a value of 18, imitating the relationship between Ether and Wei. This is the value {ERC20} uses, unless this function is overridden; NOTE: This information is only used for _display_ purposes: it in no way affects any of the arithmetic of the contract, including {IERC20-balanceOf} and {IERC20-transfer}."
      },
      "decreaseAllowance(address,uint256)": {
        "details": "Atomically decreases the allowance granted to `spender` by the caller. This is an alternative to {approve} that can be used as a mitigation for problems described in {IERC20-approve}. Emits an {Approval} event indicating the updated allowance. Requirements: - `spender` cannot be the zero address. - `spender` must have allowance for the caller of at least `subtractedValue`."
      },
      "getRoleAdmin(bytes32)": {
        "details": "Returns the admin role that controls `role`. See {grantRole} and {revokeRole}. To change a role's admin, use {_setRoleAdmin}."
      },
      "grantRole(bytes32,address)": {
        "details": "Grants `role` to `account`. If `account` had not been already granted `role`, emits a {RoleGranted} event. Requirements: - the caller must have ``role``'s admin role. May emit a {RoleGranted} event."
      },
      "hasRole(bytes32,address)": {
        "details": "Returns `true` if `account` has been granted `role`."
      },
      "increaseAllowance(address,uint256)": {
        "details": "Atomically increases the allowance granted to `spender` by the caller. This is an alternative to {approve} that can be used as a mitigation for problems described in {IERC20-approve}. Emits an {Approval} event indicating the updated allowance. Requirements: - `spender` cannot be the zero address."
      },
      "name()": {
        "details": "Returns the name of the token."
      },
      "renounceRole(bytes32,address)": {
        "details": "Revokes `role` from the calling account. Roles are often managed via {grantRole} and {revokeRole}: this function's purpose is to provide a mechanism for accounts to lose their privileges if they are compromised (such as when a trusted device is misplaced). If the calling account had been revoked `role`, emits a {RoleRevoked} event. Requirements: - the caller must be `account`. May emit a {RoleRevoked} event."
      },
      "revokeRole(bytes32,address)": {
        "details": "Revokes `role` from `account`. If `account` had been granted `role`, emits a {RoleRevoked} event. Requirements: - the caller must have ``role``'s admin role. May emit a {RoleRevoked} event."
      },
      "supportsInterface(bytes4)": {
        "details": "See {IERC165-supportsInterface}."
      },
      "symbol()": {
        "details": "Returns the symbol of the token, usually a shorter version of the name."
      },
      "totalSupply()": {
        "details": "See {IERC20-totalSupply}."
      },
      "transfer(address,uint256)": {
        "details": "See {IERC20-transfer}. Requirements: - `to` cannot be the zero address. - the caller must have a balance of at least `amount`."
      },
      "transferFrom(address,address,uint256)": {
        "details": "See {IERC20-transferFrom}. Emits an {Approval} event indicating the updated allowance. This is not required by the EIP. See the note at the beginning of {ERC20}. NOTE: Does not update the allowance if the current allowance is the maximum `uint256`. Requirements: - `from` and `to` cannot be the zero address. - `from` must have a balance of at least `amount`. - the caller must have allowance for ``from``'s tokens of at least `amount`."
      }
    },
    "version": 1
  },
  "userdoc": {
    "kind": "user",
    "methods": {},
    "version": 1
  },
  "storageLayout": {
    "storage": [
      {
        "astId": 669,
        "contract": "contracts/ClayToken.sol:ClayToken",
        "label": "_balances",
        "offset": 0,
        "slot": "0",
        "type": "t_mapping(t_address,t_uint256)"
      },
      {
        "astId": 675,
        "contract": "contracts/ClayToken.sol:ClayToken",
        "label": "_allowances",
        "offset": 0,
        "slot": "1",
        "type": "t_mapping(t_address,t_mapping(t_address,t_uint256))"
      },
      {
        "astId": 677,
        "contract": "contracts/ClayToken.sol:ClayToken",
        "label": "_totalSupply",
        "offset": 0,
        "slot": "2",
        "type": "t_uint256"
      },
      {
        "astId": 679,
        "contract": "contracts/ClayToken.sol:ClayToken",
        "label": "_name",
        "offset": 0,
        "slot": "3",
        "type": "t_string_storage"
      },
      {
        "astId": 681,
        "contract": "contracts/ClayToken.sol:ClayToken",
        "label": "_symbol",
        "offset": 0,
        "slot": "4",
        "type": "t_string_storage"
      },
      {
        "astId": 24,
        "contract": "contracts/ClayToken.sol:ClayToken",
        "label": "_roles",
        "offset": 0,
        "slot": "5",
        "type": "t_mapping(t_bytes32,t_struct(RoleData)19_storage)"
      }
    ],
    "types": {
      "t_address": {
        "encoding": "inplace",
        "label": "address",
        "numberOfBytes": "20"
      },
      "t_bool": {
        "encoding": "inplace",
        "label": "bool",
        "numberOfBytes": "1"
      },
      "t_bytes32": {
        "encoding": "inplace",
        "label": "bytes32",
        "numberOfBytes": "32"
      },
      "t_mapping(t_address,t_bool)": {
        "encoding": "mapping",
        "key": "t_address",
        "label": "mapping(address => bool)",
        "numberOfBytes": "32",
        "value": "t_bool"
      },
      "t_mapping(t_address,t_mapping(t_address,t_uint256))": {
        "encoding": "mapping",
        "key": "t_address",
        "label": "mapping(address => mapping(address => uint256))",
        "numberOfBytes": "32",
        "value": "t_mapping(t_address,t_uint256)"
      },
      "t_mapping(t_address,t_uint256)": {
        "encoding": "mapping",
        "key": "t_address",
        "label": "mapping(address => uint256)",
        "numberOfBytes": "32",
        "value": "t_uint256"
      },
      "t_mapping(t_bytes32,t_struct(RoleData)19_storage)": {
        "encoding": "mapping",
        "key": "t_bytes32",
        "label": "mapping(bytes32 => struct AccessControl.RoleData)",
        "numberOfBytes": "32",
        "value": "t_struct(RoleData)19_storage"
      },
      "t_string_storage": {
        "encoding": "bytes",
        "label": "string",
        "numberOfBytes": "32"
      },
      "t_struct(RoleData)19_storage": {
        "encoding": "inplace",
        "label": "struct AccessControl.RoleData",
        "members": [
          {
            "astId": 16,
            "contract": "contracts/ClayToken.sol:ClayToken",
            "label": "members",
            "offset": 0,
            "slot": "0",
            "type": "t_mapping(t_address,t_bool)"
          },
          {
            "astId": 18,
            "contract": "contracts/ClayToken.sol:ClayToken",
            "label": "adminRole",
            "offset": 0,
            "slot": "1",
            "type": "t_bytes32"
          }
        ],
        "numberOfBytes": "64"
      },
      "t_uint256": {
        "encoding": "inplace",
        "label": "uint256",
        "numberOfBytes": "32"
      }
    }
  }
}