{
  "address": "0x7A16395c9566B4678B8f166bEcC2AbCae41f3DbC",
  "abi": [
    {
      "inputs": [
        {
          "internalType": "address",
          "name": "_stakedToken",
          "type": "address"
        },
        {
          "internalType": "address",
          "name": "_clayToken",
          "type": "address"
        }
      ],
      "stateMutability": "nonpayable",
      "type": "constructor"
    },
    {
      "anonymous": false,
      "inputs": [
        {
          "indexed": true,
          "internalType": "address",
          "name": "previousOwner",
          "type": "address"
        },
        {
          "indexed": true,
          "internalType": "address",
          "name": "newOwner",
          "type": "address"
        }
      ],
      "name": "OwnershipTransferred",
      "type": "event"
    },
    {
      "anonymous": false,
      "inputs": [
        {
          "indexed": false,
          "internalType": "address",
          "name": "account",
          "type": "address"
        }
      ],
      "name": "Paused",
      "type": "event"
    },
    {
      "anonymous": false,
      "inputs": [
        {
          "indexed": false,
          "internalType": "uint256",
          "name": "reward",
          "type": "uint256"
        }
      ],
      "name": "RewardAdded",
      "type": "event"
    },
    {
      "anonymous": false,
      "inputs": [
        {
          "indexed": true,
          "internalType": "address",
          "name": "user",
          "type": "address"
        },
        {
          "indexed": false,
          "internalType": "uint256",
          "name": "reward",
          "type": "uint256"
        }
      ],
      "name": "RewardPaid",
      "type": "event"
    },
    {
      "anonymous": false,
      "inputs": [
        {
          "indexed": false,
          "internalType": "uint256",
          "name": "rewardRate",
          "type": "uint256"
        }
      ],
      "name": "RewardRateUpdated",
      "type": "event"
    },
    {
      "anonymous": false,
      "inputs": [
        {
          "indexed": true,
          "internalType": "address",
          "name": "user",
          "type": "address"
        },
        {
          "indexed": false,
          "internalType": "uint256",
          "name": "amount",
          "type": "uint256"
        }
      ],
      "name": "Staked",
      "type": "event"
    },
    {
      "anonymous": false,
      "inputs": [
        {
          "indexed": false,
          "internalType": "address",
          "name": "account",
          "type": "address"
        }
      ],
      "name": "Unpaused",
      "type": "event"
    },
    {
      "anonymous": false,
      "inputs": [
        {
          "indexed": true,
          "internalType": "address",
          "name": "user",
          "type": "address"
        },
        {
          "indexed": false,
          "internalType": "uint256",
          "name": "amount",
          "type": "uint256"
        }
      ],
      "name": "Withdrawn",
      "type": "event"
    },
    {
      "inputs": [
        {
          "internalType": "address",
          "name": "account",
          "type": "address"
        }
      ],
      "name": "balanceOf",
      "outputs": [
        {
          "internalType": "uint256",
          "name": "",
          "type": "uint256"
        }
      ],
      "stateMutability": "view",
      "type": "function"
    },
    {
      "inputs": [],
      "name": "clayToken",
      "outputs": [
        {
          "internalType": "contract IClayToken",
          "name": "",
          "type": "address"
        }
      ],
      "stateMutability": "view",
      "type": "function"
    },
    {
      "inputs": [
        {
          "internalType": "address",
          "name": "_account",
          "type": "address"
        }
      ],
      "name": "earned",
      "outputs": [
        {
          "internalType": "uint256",
          "name": "",
          "type": "uint256"
        }
      ],
      "stateMutability": "view",
      "type": "function"
    },
    {
      "inputs": [],
      "name": "exit",
      "outputs": [],
      "stateMutability": "nonpayable",
      "type": "function"
    },
    {
      "inputs": [],
      "name": "getReward",
      "outputs": [],
      "stateMutability": "nonpayable",
      "type": "function"
    },
    {
      "inputs": [],
      "name": "lastUpdateTime",
      "outputs": [
        {
          "internalType": "uint256",
          "name": "",
          "type": "uint256"
        }
      ],
      "stateMutability": "view",
      "type": "function"
    },
    {
      "inputs": [],
      "name": "owner",
      "outputs": [
        {
          "internalType": "address",
          "name": "",
          "type": "address"
        }
      ],
      "stateMutability": "view",
      "type": "function"
    },
    {
      "inputs": [],
      "name": "pause",
      "outputs": [],
      "stateMutability": "nonpayable",
      "type": "function"
    },
    {
      "inputs": [],
      "name": "paused",
      "outputs": [
        {
          "internalType": "bool",
          "name": "",
          "type": "bool"
        }
      ],
      "stateMutability": "view",
      "type": "function"
    },
    {
      "inputs": [],
      "name": "renounceOwnership",
      "outputs": [],
      "stateMutability": "nonpayable",
      "type": "function"
    },
    {
      "inputs": [],
      "name": "rewardPerToken",
      "outputs": [
        {
          "internalType": "uint256",
          "name": "",
          "type": "uint256"
        }
      ],
      "stateMutability": "view",
      "type": "function"
    },
    {
      "inputs": [],
      "name": "rewardPerTokenStored",
      "outputs": [
        {
          "internalType": "uint256",
          "name": "",
          "type": "uint256"
        }
      ],
      "stateMutability": "view",
      "type": "function"
    },
    {
      "inputs": [],
      "name": "rewardRate",
      "outputs": [
        {
          "internalType": "uint256",
          "name": "",
          "type": "uint256"
        }
      ],
      "stateMutability": "view",
      "type": "function"
    },
    {
      "inputs": [
        {
          "internalType": "address",
          "name": "",
          "type": "address"
        }
      ],
      "name": "rewards",
      "outputs": [
        {
          "internalType": "uint256",
          "name": "",
          "type": "uint256"
        }
      ],
      "stateMutability": "view",
      "type": "function"
    },
    {
      "inputs": [
        {
          "internalType": "uint256",
          "name": "_amount",
          "type": "uint256"
        }
      ],
      "name": "stake",
      "outputs": [],
      "stateMutability": "nonpayable",
      "type": "function"
    },
    {
      "inputs": [],
      "name": "stakingToken",
      "outputs": [
        {
          "internalType": "contract IERC20",
          "name": "",
          "type": "address"
        }
      ],
      "stateMutability": "view",
      "type": "function"
    },
    {
      "inputs": [],
      "name": "totalSupply",
      "outputs": [
        {
          "internalType": "uint256",
          "name": "",
          "type": "uint256"
        }
      ],
      "stateMutability": "view",
      "type": "function"
    },
    {
      "inputs": [
        {
          "internalType": "address",
          "name": "newOwner",
          "type": "address"
        }
      ],
      "name": "transferOwnership",
      "outputs": [],
      "stateMutability": "nonpayable",
      "type": "function"
    },
    {
      "inputs": [],
      "name": "unpause",
      "outputs": [],
      "stateMutability": "nonpayable",
      "type": "function"
    },
    {
      "inputs": [
        {
          "internalType": "uint256",
          "name": "_rewardRate",
          "type": "uint256"
        }
      ],
      "name": "updateRewardRate",
      "outputs": [],
      "stateMutability": "nonpayable",
      "type": "function"
    },
    {
      "inputs": [
        {
          "internalType": "address",
          "name": "",
          "type": "address"
        }
      ],
      "name": "userRewardPerTokenPaid",
      "outputs": [
        {
          "internalType": "uint256",
          "name": "",
          "type": "uint256"
        }
      ],
      "stateMutability": "view",
      "type": "function"
    },
    {
      "inputs": [
        {
          "internalType": "uint256",
          "name": "_amount",
          "type": "uint256"
        }
      ],
      "name": "withdraw",
      "outputs": [],
      "stateMutability": "nonpayable",
      "type": "function"
    }
  ],
  "transactionHash": "0xf54858552ec65df82c304f06eae933b387a751b56ef24d408da114d7a29ff69a",
  "args": [
    "0x995b62fC9681db170e5312229acF7250F91DF719",
    "0xE0544883f42Dc1812528234ea8B2b7687d8FA38A"
  ],
  "numDeployments": 2,
  "solcInputHash": "046ee9726fe69fac50e1dd2c839b039a",
  "bytecode": "0x60806040526402540be40060045534801561001957600080fd5b50604051610ed6380380610ed6833981016040819052610038916100fa565b61004861004361008a565b61008e565b6001805560028054600380546001600160a01b039586166001600160a01b031990911617905591909216610100026001600160a81b031990911617905561012c565b3390565b600080546001600160a01b038381166001600160a01b0319831681178455604051919092169283917f8be0079c531659141344cd1fd0a4f28419497f9722a3daafe3b4186f6b6457e09190a35050565b80516001600160a01b03811681146100f557600080fd5b919050565b6000806040838503121561010c578182fd5b610115836100de565b9150610123602084016100de565b90509250929050565b610d9b8061013b6000396000f3fe608060405234801561001057600080fd5b50600436106101815760003560e01c80638456cb59116100d8578063c8f33c911161008c578063e9fad8ee11610066578063e9fad8ee1461029d578063eb247bc3146102a5578063f2fde38b146102ad57610181565b8063c8f33c9114610285578063cd3daf9d1461028d578063df136d651461029557610181565b80638da5cb5b116100bd5780638da5cb5b146102575780639ef3a2611461025f578063a694fc3a1461027257610181565b80638456cb591461023c5780638b8763471461024457610181565b80633f4ba83a1161013a578063715018a611610114578063715018a61461021757806372f702f31461021f5780637b0a47ee1461023457610181565b80633f4ba83a146101e75780635c975abb146101ef57806370a082311461020457610181565b806318160ddd1161016b57806318160ddd146101c25780632e1a7d4d146101ca5780633d18b912146101df57610181565b80628cc262146101865780630700037d146101af575b600080fd5b610199610194366004610adf565b6102c0565b6040516101a69190610cd8565b60405180910390f35b6101996101bd366004610adf565b61033d565b61019961034f565b6101dd6101d8366004610b2d565b610356565b005b6101dd6104f0565b6101dd61061e565b6101f7610630565b6040516101a69190610b96565b610199610212366004610adf565b610639565b6101dd610654565b610227610666565b6040516101a69190610b45565b610199610675565b6101dd61067b565b610199610252366004610adf565b61068b565b61022761069d565b6101dd61026d366004610b2d565b6106ac565b6101dd610280366004610b2d565b6106f4565b61019961087f565b610199610885565b6101996108e6565b6101dd6108ec565b61022761090d565b6101dd6102bb366004610adf565b610921565b6001600160a01b0381166000908152600860209081526040808320546007909252822054670de0b6b3a7640000906102f6610885565b6103009190610d38565b6001600160a01b0385166000908152600a60205260409020546103239190610d19565b61032d9190610cf9565b6103379190610ce1565b92915050565b60086020526000908152604090205481565b6009545b90565b600260015414156103825760405162461bcd60e51b815260040161037990610ca1565b60405180910390fd5b600260015533610390610885565b600655426005556103a0816102c0565b6001600160a01b038216600090815260086020908152604080832093909355600654600790915291812091909155600980548492906103e0908490610d38565b9091555050336000908152600a602052604081208054849290610404908490610d38565b90915550506003546040517fa9059cbb0000000000000000000000000000000000000000000000000000000081526001600160a01b039091169063a9059cbb906104549033908690600401610b7d565b602060405180830381600087803b15801561046e57600080fd5b505af1158015610482573d6000803e3d6000fd5b505050506040513d601f19601f820116820180604052508101906104a69190610b0d565b50336001600160a01b03167f7084f5476618d8e60b11ef0d7d3f06914655adb8793e28ff7f018d4c76d505d5836040516104e09190610cd8565b60405180910390a2505060018055565b600260015414156105135760405162461bcd60e51b815260040161037990610ca1565b600260015533610521610885565b60065542600555610531816102c0565b6001600160a01b03808316600090815260086020818152604080842095909555600654600782528584205533808452919052838220805492905560025493517f40c10f1900000000000000000000000000000000000000000000000000000000815291936101009004909216916340c10f19916105b391908590600401610b7d565b600060405180830381600087803b1580156105cd57600080fd5b505af11580156105e1573d6000803e3d6000fd5b50505050336001600160a01b03167fe2403640ba68fed3a2f88b7557551d1993f84b99bb10ff833f0cf8db0c5e0486826040516104e09190610cd8565b61062661095b565b61062e61099a565b565b60025460ff1690565b6001600160a01b03166000908152600a602052604090205490565b61065c61095b565b61062e60006109ec565b6003546001600160a01b031681565b60045481565b61068361095b565b61062e610a54565b60076020526000908152604090205481565b6000546001600160a01b031690565b6106b461095b565b60048190556040517f41d466ebd06fb97e7786086ac8b69b7eb7da798592036251291d34e9791cde01906106e9908390610cd8565b60405180910390a150565b600260015414156107175760405162461bcd60e51b815260040161037990610ca1565b6002600155610724610a92565b3361072d610885565b6006554260055561073d816102c0565b6001600160a01b0382166000908152600860209081526040808320939093556006546007909152918120919091556009805484929061077d908490610ce1565b9091555050336000908152600a6020526040812080548492906107a1908490610ce1565b90915550506003546040517f23b872dd0000000000000000000000000000000000000000000000000000000081526001600160a01b03909116906323b872dd906107f390339030908790600401610b59565b602060405180830381600087803b15801561080d57600080fd5b505af1158015610821573d6000803e3d6000fd5b505050506040513d601f19601f820116820180604052508101906108459190610b0d565b50336001600160a01b03167f9e71bc8eea02a63969f509818f2dafb9254532904319f9dbda79b67bd34a5f3d836040516104e09190610cd8565b60055481565b60006009546000141561089b5750600654610353565b6009546005546108ab9042610d38565b6004546108b89190610d19565b6108ca90670de0b6b3a7640000610d19565b6108d49190610cf9565b6006546108e19190610ce1565b905090565b60065481565b336000908152600a602052604090205461090590610356565b61062e6104f0565b60025461010090046001600160a01b031681565b61092961095b565b6001600160a01b03811661094f5760405162461bcd60e51b815260040161037990610bd8565b610958816109ec565b50565b610963610ab7565b6001600160a01b031661097461069d565b6001600160a01b03161461062e5760405162461bcd60e51b815260040161037990610c6c565b6109a2610abb565b6002805460ff191690557f5db9ee0a495bf2e6ff9c91a7834c1ba4fdd244a5e8aa4e537bd38aeae4b073aa6109d5610ab7565b6040516109e29190610b45565b60405180910390a1565b600080546001600160a01b038381167fffffffffffffffffffffffff0000000000000000000000000000000000000000831681178455604051919092169283917f8be0079c531659141344cd1fd0a4f28419497f9722a3daafe3b4186f6b6457e09190a35050565b610a5c610a92565b6002805460ff191660011790557f62e78cea01bee320cd4e420270b5ea74000d11b0c9f74754ebdbfc544b05a2586109d5610ab7565b610a9a610630565b1561062e5760405162461bcd60e51b815260040161037990610c35565b3390565b610ac3610630565b61062e5760405162461bcd60e51b815260040161037990610ba1565b600060208284031215610af0578081fd5b81356001600160a01b0381168114610b06578182fd5b9392505050565b600060208284031215610b1e578081fd5b81518015158114610b06578182fd5b600060208284031215610b3e578081fd5b5035919050565b6001600160a01b0391909116815260200190565b6001600160a01b039384168152919092166020820152604081019190915260600190565b6001600160a01b03929092168252602082015260400190565b901515815260200190565b60208082526014908201527f5061757361626c653a206e6f7420706175736564000000000000000000000000604082015260600190565b60208082526026908201527f4f776e61626c653a206e6577206f776e657220697320746865207a65726f206160408201527f6464726573730000000000000000000000000000000000000000000000000000606082015260800190565b60208082526010908201527f5061757361626c653a2070617573656400000000000000000000000000000000604082015260600190565b6020808252818101527f4f776e61626c653a2063616c6c6572206973206e6f7420746865206f776e6572604082015260600190565b6020808252601f908201527f5265656e7472616e637947756172643a207265656e7472616e742063616c6c00604082015260600190565b90815260200190565b60008219821115610cf457610cf4610d4f565b500190565b600082610d1457634e487b7160e01b81526012600452602481fd5b500490565b6000816000190483118215151615610d3357610d33610d4f565b500290565b600082821015610d4a57610d4a610d4f565b500390565b634e487b7160e01b600052601160045260246000fdfea26469706673582212201bceac5e8cc2146e8c42b99ad907034a5b5391e45e584abd32b63b8a6cdf6e6364736f6c63430008000033",
  "devdoc": {
    "kind": "dev",
    "methods": {
      "owner()": {
        "details": "Returns the address of the current owner."
      },
      "paused()": {
        "details": "Returns true if the contract is paused, and false otherwise."
      },
      "renounceOwnership()": {
        "details": "Leaves the contract without owner. It will not be possible to call `onlyOwner` functions anymore. Can only be called by the current owner. NOTE: Renouncing ownership will leave the contract without an owner, thereby removing any functionality that is only available to the owner."
      },
      "transferOwnership(address)": {
        "details": "Transfers ownership of the contract to a new account (`newOwner`). Can only be called by the current owner."
      }
    },
    "version": 1
  },
  "userdoc": {
    "kind": "user",
    "methods": {},
    "notice": "User can stake Sumero LP Tokens (received by providing liquidity to a Liquidity Pool on Sumero) to earn CLAY rewards. User can unstake the Sumero LP tokens and claim rewards at any point in time. Rewards would depend on your - time period of stake   - percentage of your staked tokens with respect to total staked tokens Owner of this contract can perform following actions: - pause / unpause this contract in case of closure of Staking Rewards scheme or other unforseen circumstances - change reward rate",
    "version": 1
  },
  "storageLayout": {
    "storage": [
      {
        "astId": 400,
        "contract": "contracts/ClayStakingRewards.sol:ClayStakingRewards",
        "label": "_owner",
        "offset": 0,
        "slot": "0",
        "type": "t_address"
      },
      {
        "astId": 624,
        "contract": "contracts/ClayStakingRewards.sol:ClayStakingRewards",
        "label": "_status",
        "offset": 0,
        "slot": "1",
        "type": "t_uint256"
      },
      {
        "astId": 523,
        "contract": "contracts/ClayStakingRewards.sol:ClayStakingRewards",
        "label": "_paused",
        "offset": 0,
        "slot": "2",
        "type": "t_bool"
      },
      {
        "astId": 2040,
        "contract": "contracts/ClayStakingRewards.sol:ClayStakingRewards",
        "label": "clayToken",
        "offset": 1,
        "slot": "2",
        "type": "t_contract(IClayToken)2493"
      },
      {
        "astId": 2043,
        "contract": "contracts/ClayStakingRewards.sol:ClayStakingRewards",
        "label": "stakingToken",
        "offset": 0,
        "slot": "3",
        "type": "t_contract(IERC20)1317"
      },
      {
        "astId": 2046,
        "contract": "contracts/ClayStakingRewards.sol:ClayStakingRewards",
        "label": "rewardRate",
        "offset": 0,
        "slot": "4",
        "type": "t_uint256"
      },
      {
        "astId": 2048,
        "contract": "contracts/ClayStakingRewards.sol:ClayStakingRewards",
        "label": "lastUpdateTime",
        "offset": 0,
        "slot": "5",
        "type": "t_uint256"
      },
      {
        "astId": 2050,
        "contract": "contracts/ClayStakingRewards.sol:ClayStakingRewards",
        "label": "rewardPerTokenStored",
        "offset": 0,
        "slot": "6",
        "type": "t_uint256"
      },
      {
        "astId": 2054,
        "contract": "contracts/ClayStakingRewards.sol:ClayStakingRewards",
        "label": "userRewardPerTokenPaid",
        "offset": 0,
        "slot": "7",
        "type": "t_mapping(t_address,t_uint256)"
      },
      {
        "astId": 2058,
        "contract": "contracts/ClayStakingRewards.sol:ClayStakingRewards",
        "label": "rewards",
        "offset": 0,
        "slot": "8",
        "type": "t_mapping(t_address,t_uint256)"
      },
      {
        "astId": 2060,
        "contract": "contracts/ClayStakingRewards.sol:ClayStakingRewards",
        "label": "_totalSupply",
        "offset": 0,
        "slot": "9",
        "type": "t_uint256"
      },
      {
        "astId": 2064,
        "contract": "contracts/ClayStakingRewards.sol:ClayStakingRewards",
        "label": "_balances",
        "offset": 0,
        "slot": "10",
        "type": "t_mapping(t_address,t_uint256)"
      }
    ],
    "types": {
      "t_address": {
        "encoding": "inplace",
        "label": "address",
        "numberOfBytes": "20"
      },
      "t_bool": {
        "encoding": "inplace",
        "label": "bool",
        "numberOfBytes": "1"
      },
      "t_contract(IClayToken)2493": {
        "encoding": "inplace",
        "label": "contract IClayToken",
        "numberOfBytes": "20"
      },
      "t_contract(IERC20)1317": {
        "encoding": "inplace",
        "label": "contract IERC20",
        "numberOfBytes": "20"
      },
      "t_mapping(t_address,t_uint256)": {
        "encoding": "mapping",
        "key": "t_address",
        "label": "mapping(address => uint256)",
        "numberOfBytes": "32",
        "value": "t_uint256"
      },
      "t_uint256": {
        "encoding": "inplace",
        "label": "uint256",
        "numberOfBytes": "32"
      }
    }
  }
}