{
  "address": "0x08fF0fB0677EaFf960C15bB1746690C747c9bc45",
  "abi": [
    {
      "inputs": [
        {
          "internalType": "contract IERC20",
          "name": "_clay",
          "type": "address"
        },
        {
          "internalType": "uint256",
          "name": "_maximumBondRewards",
          "type": "uint256"
        }
      ],
      "stateMutability": "nonpayable",
      "type": "constructor"
    },
    {
      "anonymous": false,
      "inputs": [
        {
          "indexed": true,
          "internalType": "address",
          "name": "owner",
          "type": "address"
        },
        {
          "indexed": true,
          "internalType": "address",
          "name": "spender",
          "type": "address"
        },
        {
          "indexed": false,
          "internalType": "uint256",
          "name": "value",
          "type": "uint256"
        }
      ],
      "name": "Approval",
      "type": "event"
    },
    {
      "anonymous": false,
      "inputs": [
        {
          "indexed": false,
          "internalType": "uint256",
          "name": "amount",
          "type": "uint256"
        },
        {
          "indexed": false,
          "internalType": "uint256",
          "name": "daysLeftToMaturationDate",
          "type": "uint256"
        },
        {
          "indexed": false,
          "internalType": "uint256",
          "name": "rewardPercent",
          "type": "uint256"
        },
        {
          "indexed": false,
          "internalType": "uint256",
          "name": "reward",
          "type": "uint256"
        }
      ],
      "name": "Issue",
      "type": "event"
    },
    {
      "anonymous": false,
      "inputs": [
        {
          "indexed": true,
          "internalType": "address",
          "name": "from",
          "type": "address"
        },
        {
          "indexed": true,
          "internalType": "address",
          "name": "to",
          "type": "address"
        },
        {
          "indexed": false,
          "internalType": "uint256",
          "name": "value",
          "type": "uint256"
        }
      ],
      "name": "Transfer",
      "type": "event"
    },
    {
      "inputs": [],
      "name": "APY_PERCENT",
      "outputs": [
        {
          "internalType": "uint256",
          "name": "",
          "type": "uint256"
        }
      ],
      "stateMutability": "view",
      "type": "function"
    },
    {
      "inputs": [],
      "name": "BONDS_ISSUANCE_PERIOD",
      "outputs": [
        {
          "internalType": "uint256",
          "name": "",
          "type": "uint256"
        }
      ],
      "stateMutability": "view",
      "type": "function"
    },
    {
      "inputs": [],
      "name": "BONUS_APY_PERCENT",
      "outputs": [
        {
          "internalType": "uint256",
          "name": "",
          "type": "uint256"
        }
      ],
      "stateMutability": "view",
      "type": "function"
    },
    {
      "inputs": [
        {
          "internalType": "address",
          "name": "owner",
          "type": "address"
        },
        {
          "internalType": "address",
          "name": "spender",
          "type": "address"
        }
      ],
      "name": "allowance",
      "outputs": [
        {
          "internalType": "uint256",
          "name": "",
          "type": "uint256"
        }
      ],
      "stateMutability": "view",
      "type": "function"
    },
    {
      "inputs": [
        {
          "internalType": "address",
          "name": "spender",
          "type": "address"
        },
        {
          "internalType": "uint256",
          "name": "amount",
          "type": "uint256"
        }
      ],
      "name": "approve",
      "outputs": [
        {
          "internalType": "bool",
          "name": "",
          "type": "bool"
        }
      ],
      "stateMutability": "nonpayable",
      "type": "function"
    },
    {
      "inputs": [
        {
          "internalType": "address",
          "name": "account",
          "type": "address"
        }
      ],
      "name": "balanceOf",
      "outputs": [
        {
          "internalType": "uint256",
          "name": "",
          "type": "uint256"
        }
      ],
      "stateMutability": "view",
      "type": "function"
    },
    {
      "inputs": [],
      "name": "claim",
      "outputs": [],
      "stateMutability": "nonpayable",
      "type": "function"
    },
    {
      "inputs": [],
      "name": "clay",
      "outputs": [
        {
          "internalType": "contract IERC20",
          "name": "",
          "type": "address"
        }
      ],
      "stateMutability": "view",
      "type": "function"
    },
    {
      "inputs": [],
      "name": "dailyYieldPercent",
      "outputs": [
        {
          "internalType": "uint256",
          "name": "",
          "type": "uint256"
        }
      ],
      "stateMutability": "view",
      "type": "function"
    },
    {
      "inputs": [],
      "name": "decimals",
      "outputs": [
        {
          "internalType": "uint8",
          "name": "",
          "type": "uint8"
        }
      ],
      "stateMutability": "view",
      "type": "function"
    },
    {
      "inputs": [
        {
          "internalType": "address",
          "name": "spender",
          "type": "address"
        },
        {
          "internalType": "uint256",
          "name": "subtractedValue",
          "type": "uint256"
        }
      ],
      "name": "decreaseAllowance",
      "outputs": [
        {
          "internalType": "bool",
          "name": "",
          "type": "bool"
        }
      ],
      "stateMutability": "nonpayable",
      "type": "function"
    },
    {
      "inputs": [],
      "name": "depositCloseDate",
      "outputs": [
        {
          "internalType": "uint256",
          "name": "",
          "type": "uint256"
        }
      ],
      "stateMutability": "view",
      "type": "function"
    },
    {
      "inputs": [],
      "name": "depositStartDate",
      "outputs": [
        {
          "internalType": "uint256",
          "name": "",
          "type": "uint256"
        }
      ],
      "stateMutability": "view",
      "type": "function"
    },
    {
      "inputs": [],
      "name": "getDaysLeftToMaturationDate",
      "outputs": [
        {
          "internalType": "uint256",
          "name": "daysLeftToMaturationDate",
          "type": "uint256"
        }
      ],
      "stateMutability": "view",
      "type": "function"
    },
    {
      "inputs": [
        {
          "internalType": "uint256",
          "name": "_amount",
          "type": "uint256"
        },
        {
          "internalType": "uint256",
          "name": "_rewardPercent",
          "type": "uint256"
        }
      ],
      "name": "getReward",
      "outputs": [
        {
          "internalType": "uint256",
          "name": "reward",
          "type": "uint256"
        }
      ],
      "stateMutability": "pure",
      "type": "function"
    },
    {
      "inputs": [
        {
          "internalType": "uint256",
          "name": "daysLeftToMaturationDate",
          "type": "uint256"
        }
      ],
      "name": "getRewardPercent",
      "outputs": [
        {
          "internalType": "uint256",
          "name": "rewardPercent",
          "type": "uint256"
        }
      ],
      "stateMutability": "view",
      "type": "function"
    },
    {
      "inputs": [],
      "name": "hasEnoughClayLiquidity",
      "outputs": [
        {
          "internalType": "bool",
          "name": "",
          "type": "bool"
        }
      ],
      "stateMutability": "view",
      "type": "function"
    },
    {
      "inputs": [
        {
          "internalType": "address",
          "name": "spender",
          "type": "address"
        },
        {
          "internalType": "uint256",
          "name": "addedValue",
          "type": "uint256"
        }
      ],
      "name": "increaseAllowance",
      "outputs": [
        {
          "internalType": "bool",
          "name": "",
          "type": "bool"
        }
      ],
      "stateMutability": "nonpayable",
      "type": "function"
    },
    {
      "inputs": [
        {
          "internalType": "uint256",
          "name": "_clayAmount",
          "type": "uint256"
        }
      ],
      "name": "issue",
      "outputs": [
        {
          "internalType": "uint256",
          "name": "bondAmount",
          "type": "uint256"
        }
      ],
      "stateMutability": "nonpayable",
      "type": "function"
    },
    {
      "inputs": [],
      "name": "maturationDate",
      "outputs": [
        {
          "internalType": "uint256",
          "name": "",
          "type": "uint256"
        }
      ],
      "stateMutability": "view",
      "type": "function"
    },
    {
      "inputs": [],
      "name": "maximumBondRewards",
      "outputs": [
        {
          "internalType": "uint256",
          "name": "",
          "type": "uint256"
        }
      ],
      "stateMutability": "view",
      "type": "function"
    },
    {
      "inputs": [],
      "name": "name",
      "outputs": [
        {
          "internalType": "string",
          "name": "",
          "type": "string"
        }
      ],
      "stateMutability": "view",
      "type": "function"
    },
    {
      "inputs": [],
      "name": "symbol",
      "outputs": [
        {
          "internalType": "string",
          "name": "",
          "type": "string"
        }
      ],
      "stateMutability": "view",
      "type": "function"
    },
    {
      "inputs": [],
      "name": "totalBondDeposits",
      "outputs": [
        {
          "internalType": "uint256",
          "name": "",
          "type": "uint256"
        }
      ],
      "stateMutability": "view",
      "type": "function"
    },
    {
      "inputs": [],
      "name": "totalSupply",
      "outputs": [
        {
          "internalType": "uint256",
          "name": "",
          "type": "uint256"
        }
      ],
      "stateMutability": "view",
      "type": "function"
    },
    {
      "inputs": [
        {
          "internalType": "address",
          "name": "recipient",
          "type": "address"
        },
        {
          "internalType": "uint256",
          "name": "amount",
          "type": "uint256"
        }
      ],
      "name": "transfer",
      "outputs": [
        {
          "internalType": "bool",
          "name": "",
          "type": "bool"
        }
      ],
      "stateMutability": "nonpayable",
      "type": "function"
    },
    {
      "inputs": [
        {
          "internalType": "address",
          "name": "sender",
          "type": "address"
        },
        {
          "internalType": "address",
          "name": "recipient",
          "type": "address"
        },
        {
          "internalType": "uint256",
          "name": "amount",
          "type": "uint256"
        }
      ],
      "name": "transferFrom",
      "outputs": [
        {
          "internalType": "bool",
          "name": "",
          "type": "bool"
        }
      ],
      "stateMutability": "nonpayable",
      "type": "function"
    }
  ],
  "transactionHash": "0x302dd7ae05f67bf546fb7bbb44c11c31371a5fb12adb789520b30899788e47e0",
  "args": [
    "0x64C597aBf737Ec2551dfbd3c492dA7da1Bf06a98",
    "10000000000000000000"
  ],
  "numDeployments": 5,
  "solcInputHash": "e6ba058202daa8b2d21ab047cc8bae25",
  "bytecode": "0x60806040523480156200001157600080fd5b506040516200188e3803806200188e833981810160405260408110156200003757600080fd5b508051602091820151604080518082018252600b81526a3d21b630bc902a37b5b2b760a91b818601908152825180840190935260058352647a434c415960d81b958301959095528051939492939092620000959160039190620002c9565b508051620000ab906004906020840190620002c9565b505060058054601260ff1990911617610100600160a81b0319166101006001600160a01b03861602179055506006819055426008819055620000fe906301e133806200019e602090811b62000ca117901c565b60095562000139620001226301e13380600362000202602090811b62000cfb17901c565b6008546200019e60201b62000ca11790919060201c565b600a556200019261016d6200017e670de0b6b3a76400006200016a602860146200019e602090811b62000ca117901c565b6200020260201b62000cfb1790919060201c565b6200026060201b62000d541790919060201c565b600b5550620003659050565b600082820183811015620001f9576040805162461bcd60e51b815260206004820152601b60248201527f536166654d6174683a206164646974696f6e206f766572666c6f770000000000604482015290519081900360640190fd5b90505b92915050565b6000826200021357506000620001fc565b828202828482816200022157fe5b0414620001f95760405162461bcd60e51b81526004018080602001828103825260218152602001806200186d6021913960400191505060405180910390fd5b6000808211620002b7576040805162461bcd60e51b815260206004820152601a60248201527f536166654d6174683a206469766973696f6e206279207a65726f000000000000604482015290519081900360640190fd5b818381620002c157fe5b049392505050565b828054600181600116156101000203166002900490600052602060002090601f016020900481019282601f106200030c57805160ff19168380011785556200033c565b828001600101855582156200033c579182015b828111156200033c5782518255916020019190600101906200031f565b506200034a9291506200034e565b5090565b5b808211156200034a57600081556001016200034f565b6114f880620003756000396000f3fe608060405234801561001057600080fd5b50600436106101b95760003560e01c8063954b2f24116100f9578063b90bc51911610097578063d6afbfd011610071578063d6afbfd014610466578063dd62ed3e1461046e578063ec1f5a971461049c578063ff6bca69146104a4576101b9565b8063b90bc5191461041e578063cc872b6614610441578063d66f0acb1461045e576101b9565b8063a457c2d7116100d3578063a457c2d71461039a578063a4d60c7c146103c6578063a6087220146103ea578063a9059cbb146103f2576101b9565b8063954b2f241461038257806395d89b411461038a57806398975e8514610392576101b9565b80633f9d01c0116101665780634e71d92d116101405780634e71d92d146103425780635140af3f1461034c57806370a0823114610354578063792256991461037a576101b9565b80633f9d01c0146103155780634aec19281461031d5780634e68d11414610325576101b9565b806323b872dd1161019757806323b872dd14610295578063313ce567146102cb57806339509351146102e9576101b9565b806306fdde03146101be578063095ea7b31461023b57806318160ddd1461027b575b600080fd5b6101c66104ac565b6040805160208082528351818301528351919283929083019185019080838360005b838110156102005781810151838201526020016101e8565b50505050905090810190601f16801561022d5780820380516001836020036101000a031916815260200191505b509250505060405180910390f35b6102676004803603604081101561025157600080fd5b506001600160a01b038135169060200135610543565b604080519115158252519081900360200190f35b610283610561565b60408051918252519081900360200190f35b610267600480360360608110156102ab57600080fd5b506001600160a01b03813581169160208101359091169060400135610567565b6102d36105ee565b6040805160ff9092168252519081900360200190f35b610267600480360360408110156102ff57600080fd5b506001600160a01b0381351690602001356105f7565b610283610645565b61028361064a565b6102836004803603602081101561033b57600080fd5b5035610650565b61034a610669565b005b6102836107b6565b6102836004803603602081101561036a57600080fd5b50356001600160a01b03166107f1565b61028361080c565b610267610811565b6101c66108bd565b61028361091e565b610267600480360360408110156103b057600080fd5b506001600160a01b038135169060200135610926565b6103ce61098e565b604080516001600160a01b039092168252519081900360200190f35b6102836109a2565b6102676004803603604081101561040857600080fd5b506001600160a01b0381351690602001356109a8565b6102836004803603604081101561043457600080fd5b50803590602001356109bc565b6102836004803603602081101561045757600080fd5b50356109de565b610283610c5e565b610283610c64565b6102836004803603604081101561048457600080fd5b506001600160a01b0381358116916020013516610c6a565b610283610c95565b610283610c9b565b60038054604080516020601f60026000196101006001881615020190951694909404938401819004810282018101909252828152606093909290918301828280156105385780601f1061050d57610100808354040283529160200191610538565b820191906000526020600020905b81548152906001019060200180831161051b57829003601f168201915b505050505090505b90565b6000610557610550610dbb565b8484610dbf565b5060015b92915050565b60025490565b6000610574848484610eab565b6105e484610580610dbb565b6105df8560405180606001604052806028815260200161140c602891396001600160a01b038a166000908152600160205260408120906105be610dbb565b6001600160a01b031681526020810191909152604001600020549190611006565b610dbf565b5060019392505050565b60055460ff1690565b6000610557610604610dbb565b846105df8560016000610615610dbb565b6001600160a01b03908116825260208083019390935260409182016000908120918c168152925290205490610ca1565b601481565b600b5481565b600061055b610660836001610ca1565b600b5490610cfb565b42600a5411156106c0576040805162461bcd60e51b815260206004820152601e60248201527f426f6e64204d617475726974792064617465206e6f7420726561636865640000604482015290519081900360640190fd5b60006106cb336107f1565b90506000811161070c5760405162461bcd60e51b81526004018080602001828103825260218152602001806113a26021913960400191505060405180910390fd5b610716338261109d565b600554604080517fa9059cbb0000000000000000000000000000000000000000000000000000000081523360048201526024810184905290516101009092046001600160a01b03169163a9059cbb916044808201926020929091908290030181600087803b15801561078757600080fd5b505af115801561079b573d6000803e3d6000fd5b505050506040513d60208110156107b157600080fd5b505050565b600042600a5410156107ca57506000610540565b6107ec620151806107e642600a5461119990919063ffffffff16565b90610d54565b905090565b6001600160a01b031660009081526020819052604090205490565b602881565b600754600554604080517f70a0823100000000000000000000000000000000000000000000000000000000815230600482015290516000939261010090046001600160a01b0316916370a08231916024808301926020929190829003018186803b15801561087e57600080fd5b505afa158015610892573d6000803e3d6000fd5b505050506040513d60208110156108a857600080fd5b5051106108b757506001610540565b50600090565b60048054604080516020601f60026000196101006001881615020190951694909404938401819004810282018101909252828152606093909290918301828280156105385780601f1061050d57610100808354040283529160200191610538565b6301e1338081565b6000610557610933610dbb565b846105df8560405180606001604052806025815260200161149e602591396001600061095d610dbb565b6001600160a01b03908116825260208083019390935260409182016000908120918d16815292529020549190611006565b60055461010090046001600160a01b031681565b60095481565b60006105576109b5610dbb565b8484610eab565b60006109d7670de0b6b3a76400006107e66064818787610cfb565b9392505050565b600060648211610a1f5760405162461bcd60e51b81526004018080602001828103825260288152602001806113c36028913960400191505060405180910390fd5b6008544210158015610a32575060095442105b610a83576040805162461bcd60e51b815260206004820152600e60248201527f4465706f73697420636c6f736564000000000000000000000000000000000000604482015290519081900360640190fd5b6000610a8d6107b6565b90506000610a9a82610650565b90506000610aa885836109bc565b9050610ab48582610ca1565b600554604080517f23b872dd0000000000000000000000000000000000000000000000000000000081523360048201523060248201526044810189905290519296506101009091046001600160a01b0316916323b872dd916064808201926020929091908290030181600087803b158015610b2e57600080fd5b505af1158015610b42573d6000803e3d6000fd5b505050506040513d6020811015610b5857600080fd5b50610b65905033856111f6565b600754610b729085610ca1565b600781905560065411610bcc576040805162461bcd60e51b815260206004820181905260248201527f4d6178696d756d20426f6e642052657761726420506f6f6c2052656163686564604482015290519081900360640190fd5b610bd4610811565b610c0f5760405162461bcd60e51b815260040180806020018281038252602e8152602001806112e7602e913960400191505060405180910390fd5b60408051868152602081018590528082018490526060810183905290517fb93112bad930e8f857186a753ad92a9bb21c2c34169673ed07e60accffc430b69181900360800190a1505050919050565b60075481565b60065481565b6001600160a01b03918216600090815260016020908152604080832093909416825291909152205490565b600a5481565b60085481565b6000828201838110156109d7576040805162461bcd60e51b815260206004820152601b60248201527f536166654d6174683a206164646974696f6e206f766572666c6f770000000000604482015290519081900360640190fd5b600082610d0a5750600061055b565b82820282848281610d1757fe5b04146109d75760405162461bcd60e51b81526004018080602001828103825260218152602001806113eb6021913960400191505060405180910390fd5b6000808211610daa576040805162461bcd60e51b815260206004820152601a60248201527f536166654d6174683a206469766973696f6e206279207a65726f000000000000604482015290519081900360640190fd5b818381610db357fe5b049392505050565b3390565b6001600160a01b038316610e045760405162461bcd60e51b815260040180806020018281038252602481526020018061147a6024913960400191505060405180910390fd5b6001600160a01b038216610e495760405162461bcd60e51b815260040180806020018281038252602281526020018061135a6022913960400191505060405180910390fd5b6001600160a01b03808416600081815260016020908152604080832094871680845294825291829020859055815185815291517f8c5be1e5ebec7d5bd14f71427d1e84f3dd0314c0f7b2291e5b200ac8c7c3b9259281900390910190a3505050565b6001600160a01b038316610ef05760405162461bcd60e51b81526004018080602001828103825260258152602001806114556025913960400191505060405180910390fd5b6001600160a01b038216610f355760405162461bcd60e51b81526004018080602001828103825260238152602001806113156023913960400191505060405180910390fd5b610f408383836107b1565b610f7d8160405180606001604052806026815260200161137c602691396001600160a01b0386166000908152602081905260409020549190611006565b6001600160a01b038085166000908152602081905260408082209390935590841681522054610fac9082610ca1565b6001600160a01b038084166000818152602081815260409182902094909455805185815290519193928716927fddf252ad1be2c89b69c2b068fc378daa952ba7f163c4a11628f55a4df523b3ef92918290030190a3505050565b600081848411156110955760405162461bcd60e51b81526004018080602001828103825283818151815260200191508051906020019080838360005b8381101561105a578181015183820152602001611042565b50505050905090810190601f1680156110875780820380516001836020036101000a031916815260200191505b509250505060405180910390fd5b505050900390565b6001600160a01b0382166110e25760405162461bcd60e51b81526004018080602001828103825260218152602001806114346021913960400191505060405180910390fd5b6110ee826000836107b1565b61112b81604051806060016040528060228152602001611338602291396001600160a01b0385166000908152602081905260409020549190611006565b6001600160a01b0383166000908152602081905260409020556002546111519082611199565b6002556040805182815290516000916001600160a01b038516917fddf252ad1be2c89b69c2b068fc378daa952ba7f163c4a11628f55a4df523b3ef9181900360200190a35050565b6000828211156111f0576040805162461bcd60e51b815260206004820152601e60248201527f536166654d6174683a207375627472616374696f6e206f766572666c6f770000604482015290519081900360640190fd5b50900390565b6001600160a01b038216611251576040805162461bcd60e51b815260206004820152601f60248201527f45524332303a206d696e7420746f20746865207a65726f206164647265737300604482015290519081900360640190fd5b61125d600083836107b1565b60025461126a9082610ca1565b6002556001600160a01b0382166000908152602081905260409020546112909082610ca1565b6001600160a01b0383166000818152602081815260408083209490945583518581529351929391927fddf252ad1be2c89b69c2b068fc378daa952ba7f163c4a11628f55a4df523b3ef9281900390910190a3505056fe426f6e647320636f6e74726163742068617320696e73756666696369656e7420434c4159204c697175696469747945524332303a207472616e7366657220746f20746865207a65726f206164647265737345524332303a206275726e20616d6f756e7420657863656564732062616c616e636545524332303a20617070726f766520746f20746865207a65726f206164647265737345524332303a207472616e7366657220616d6f756e7420657863656564732062616c616e636542616c616e6365206d7573742062652067726561746572207468616e207a65726f436c617920416d6f756e74206d7573742062652067726561746572207468616e2031303020776569536166654d6174683a206d756c7469706c69636174696f6e206f766572666c6f7745524332303a207472616e7366657220616d6f756e74206578636565647320616c6c6f77616e636545524332303a206275726e2066726f6d20746865207a65726f206164647265737345524332303a207472616e736665722066726f6d20746865207a65726f206164647265737345524332303a20617070726f76652066726f6d20746865207a65726f206164647265737345524332303a2064656372656173656420616c6c6f77616e63652062656c6f77207a65726fa264697066735822122055744fcd65703fb735a6eb2086027d498918f648adfcb6fe797420725d573e3664736f6c634300060c0033536166654d6174683a206d756c7469706c69636174696f6e206f766572666c6f77",
  "devdoc": {
    "kind": "dev",
    "methods": {
      "allowance(address,address)": {
        "details": "See {IERC20-allowance}."
      },
      "approve(address,uint256)": {
        "details": "See {IERC20-approve}. Requirements: - `spender` cannot be the zero address."
      },
      "balanceOf(address)": {
        "details": "See {IERC20-balanceOf}."
      },
      "claim()": {
        "details": "Burns zClay and returns the underlying Clay tokens*"
      },
      "decimals()": {
        "details": "Returns the number of decimals used to get its user representation. For example, if `decimals` equals `2`, a balance of `505` tokens should be displayed to a user as `5,05` (`505 / 10 ** 2`). Tokens usually opt for a value of 18, imitating the relationship between Ether and Wei. This is the value {ERC20} uses, unless {_setupDecimals} is called. NOTE: This information is only used for _display_ purposes: it in no way affects any of the arithmetic of the contract, including {IERC20-balanceOf} and {IERC20-transfer}."
      },
      "decreaseAllowance(address,uint256)": {
        "details": "Atomically decreases the allowance granted to `spender` by the caller. This is an alternative to {approve} that can be used as a mitigation for problems described in {IERC20-approve}. Emits an {Approval} event indicating the updated allowance. Requirements: - `spender` cannot be the zero address. - `spender` must have allowance for the caller of at least `subtractedValue`."
      },
      "increaseAllowance(address,uint256)": {
        "details": "Atomically increases the allowance granted to `spender` by the caller. This is an alternative to {approve} that can be used as a mitigation for problems described in {IERC20-approve}. Emits an {Approval} event indicating the updated allowance. Requirements: - `spender` cannot be the zero address."
      },
      "issue(uint256)": {
        "params": {
          "_clayAmount": "The amount of CLAY deposited"
        }
      },
      "name()": {
        "details": "Returns the name of the token."
      },
      "symbol()": {
        "details": "Returns the symbol of the token, usually a shorter version of the name."
      },
      "totalSupply()": {
        "details": "See {IERC20-totalSupply}."
      },
      "transfer(address,uint256)": {
        "details": "See {IERC20-transfer}. Requirements: - `recipient` cannot be the zero address. - the caller must have a balance of at least `amount`."
      },
      "transferFrom(address,address,uint256)": {
        "details": "See {IERC20-transferFrom}. Emits an {Approval} event indicating the updated allowance. This is not required by the EIP. See the note at the beginning of {ERC20}. Requirements: - `sender` and `recipient` cannot be the zero address. - `sender` must have a balance of at least `amount`. - the caller must have allowance for ``sender``'s tokens of at least `amount`."
      }
    },
    "version": 1
  },
  "userdoc": {
    "kind": "user",
    "methods": {
      "issue(uint256)": {
        "notice": "Issues a zCLAY Bond depending on the amount of CLAY deposited and the current APY which depends on the time elapsed since bond programme inception"
      }
    },
    "notice": "You can deposit CLAY (ERC20 token native to Sumero) to get zCLAY Bonds (a new ERC20 representing the bond). These zCLAY Bonds can be minted upto a year from depositStartDate. The bonds will mature after a period of 3 years from the depositStartDate. There is a \"Fixed APY\" (Annual Percentage Yield) of 40% on the zCLAY Bonds and a \"Bonus APY\" of additional 20% that is constantly decreasing as the deposit close date is nearing (i.e. from a maximum of 20% to 0%). In total giving a maximum of 60% APY if a user creates bonds at Day 1 of bond start date. - FIXED_APY = 40% - BONUS_APY = 20% (decreases as deposit close date nears) Example: - User deposits 1 Clay and issues a zCLAY Bond on Day 1 of bond start date - [(deposit close timestamp - block timestamp) / (1 year in seconds) * Bonus_APY] - Total APY = APY + Bonus APY = 60% - User get 2.8 zCLAY Bond (Total APY (60%) for next 3 years i.e 180% total interest) - 1 + (180% of 1) => 1 + 1.8 => 2.8 The user can claim the zCLAY Bonds for equivalent value of CLAY after the maturation date. The user has to lock his CLAY in to zCLAY bonds for atleast 3 years. They are open to trade these bonds on a secondary market (i.e. via LP pools on Sumero)",
    "version": 1
  },
  "storageLayout": {
    "storage": [
      {
        "astId": 481,
        "contract": "contracts/ClayBonds.sol:ClayBonds",
        "label": "_balances",
        "offset": 0,
        "slot": "0",
        "type": "t_mapping(t_address,t_uint256)"
      },
      {
        "astId": 487,
        "contract": "contracts/ClayBonds.sol:ClayBonds",
        "label": "_allowances",
        "offset": 0,
        "slot": "1",
        "type": "t_mapping(t_address,t_mapping(t_address,t_uint256))"
      },
      {
        "astId": 489,
        "contract": "contracts/ClayBonds.sol:ClayBonds",
        "label": "_totalSupply",
        "offset": 0,
        "slot": "2",
        "type": "t_uint256"
      },
      {
        "astId": 491,
        "contract": "contracts/ClayBonds.sol:ClayBonds",
        "label": "_name",
        "offset": 0,
        "slot": "3",
        "type": "t_string_storage"
      },
      {
        "astId": 493,
        "contract": "contracts/ClayBonds.sol:ClayBonds",
        "label": "_symbol",
        "offset": 0,
        "slot": "4",
        "type": "t_string_storage"
      },
      {
        "astId": 495,
        "contract": "contracts/ClayBonds.sol:ClayBonds",
        "label": "_decimals",
        "offset": 0,
        "slot": "5",
        "type": "t_uint8"
      },
      {
        "astId": 1160,
        "contract": "contracts/ClayBonds.sol:ClayBonds",
        "label": "clay",
        "offset": 1,
        "slot": "5",
        "type": "t_contract(IERC20)1045"
      },
      {
        "astId": 1162,
        "contract": "contracts/ClayBonds.sol:ClayBonds",
        "label": "maximumBondRewards",
        "offset": 0,
        "slot": "6",
        "type": "t_uint256"
      },
      {
        "astId": 1164,
        "contract": "contracts/ClayBonds.sol:ClayBonds",
        "label": "totalBondDeposits",
        "offset": 0,
        "slot": "7",
        "type": "t_uint256"
      },
      {
        "astId": 1166,
        "contract": "contracts/ClayBonds.sol:ClayBonds",
        "label": "depositStartDate",
        "offset": 0,
        "slot": "8",
        "type": "t_uint256"
      },
      {
        "astId": 1168,
        "contract": "contracts/ClayBonds.sol:ClayBonds",
        "label": "depositCloseDate",
        "offset": 0,
        "slot": "9",
        "type": "t_uint256"
      },
      {
        "astId": 1170,
        "contract": "contracts/ClayBonds.sol:ClayBonds",
        "label": "maturationDate",
        "offset": 0,
        "slot": "10",
        "type": "t_uint256"
      },
      {
        "astId": 1172,
        "contract": "contracts/ClayBonds.sol:ClayBonds",
        "label": "dailyYieldPercent",
        "offset": 0,
        "slot": "11",
        "type": "t_uint256"
      }
    ],
    "types": {
      "t_address": {
        "encoding": "inplace",
        "label": "address",
        "numberOfBytes": "20"
      },
      "t_contract(IERC20)1045": {
        "encoding": "inplace",
        "label": "contract IERC20",
        "numberOfBytes": "20"
      },
      "t_mapping(t_address,t_mapping(t_address,t_uint256))": {
        "encoding": "mapping",
        "key": "t_address",
        "label": "mapping(address => mapping(address => uint256))",
        "numberOfBytes": "32",
        "value": "t_mapping(t_address,t_uint256)"
      },
      "t_mapping(t_address,t_uint256)": {
        "encoding": "mapping",
        "key": "t_address",
        "label": "mapping(address => uint256)",
        "numberOfBytes": "32",
        "value": "t_uint256"
      },
      "t_string_storage": {
        "encoding": "bytes",
        "label": "string",
        "numberOfBytes": "32"
      },
      "t_uint256": {
        "encoding": "inplace",
        "label": "uint256",
        "numberOfBytes": "32"
      },
      "t_uint8": {
        "encoding": "inplace",
        "label": "uint8",
        "numberOfBytes": "1"
      }
    }
  }
}