{
  "address": "0x0A15de712D8233a2c6e75492467F9D87b17E7b80",
  "abi": [
    {
      "inputs": [
        {
          "internalType": "string",
          "name": "tokenName",
          "type": "string"
        },
        {
          "internalType": "string",
          "name": "tokenSymbol",
          "type": "string"
        },
        {
          "internalType": "uint8",
          "name": "tokenDecimals",
          "type": "uint8"
        }
      ],
      "name": "createToken",
      "outputs": [
        {
          "internalType": "contract ExpandedIERC20",
          "name": "newToken",
          "type": "address"
        }
      ],
      "stateMutability": "nonpayable",
      "type": "function"
    }
  ],
  "transactionHash": "0xd9d5c982af398f43d5e68bd5cb3a7c1c7ebf2b0af3bc22c5acad21f28b518d16",
  "args": [],
  "numDeployments": 1,
  "solcInputHash": "07a819d72194783f01aa70299ec79949",
  "bytecode": "0x608060405234801561001057600080fd5b506000805460ff191660011790556122678061002d6000396000f3fe60806040523480156200001157600080fd5b50600436106200002e5760003560e01c8063e8a0aed31462000033575b600080fd5b6200004a6200004436600462000243565b62000073565b60405173ffffffffffffffffffffffffffffffffffffffff909116815260200160405180910390f35b60006200007f62000176565b6200008f6000805460ff19169055565b60008686868686604051620000a490620001e9565b620000b4959493929190620002fe565b604051809103906000f080158015620000d1573d6000803e3d6000fd5b506040517f73cc802a00000000000000000000000000000000000000000000000000000000815233600482015290915073ffffffffffffffffffffffffffffffffffffffff8216906373cc802a90602401600060405180830381600087803b1580156200013d57600080fd5b505af115801562000152573d6000803e3d6000fd5b50505050809150506200016d6000805460ff19166001179055565b95945050505050565b60005460ff16620001e7576040517f08c379a000000000000000000000000000000000000000000000000000000000815260206004820152601f60248201527f5265656e7472616e637947756172643a207265656e7472616e742063616c6c00604482015260640160405180910390fd5b565b611ef2806200034083390190565b60008083601f8401126200020a57600080fd5b50813567ffffffffffffffff8111156200022357600080fd5b6020830191508360208285010111156200023c57600080fd5b9250929050565b6000806000806000606086880312156200025c57600080fd5b853567ffffffffffffffff808211156200027557600080fd5b6200028389838a01620001f7565b909750955060208801359150808211156200029d57600080fd5b50620002ac88828901620001f7565b909450925050604086013560ff81168114620002c757600080fd5b809150509295509295909350565b81835281816020850137506000828201602090810191909152601f909101601f19169091010190565b60608152600062000314606083018789620002d5565b828103602084015262000329818688620002d5565b91505060ff83166040830152969550505050505056fe60806040523480156200001157600080fd5b5060405162001ef238038062001ef28339810160408190526200003491620006c4565b828282828281600390805190602001906200005192919062000551565b5080516200006790600490602084019062000551565b50506006805460ff191660ff8416179055506200008760008033620000fb565b620000a460015b604080516000808252602082019092526200024c565b620000b060026200008e565b50506006805461ff00191661010017905550620000cc62000393565b620000dd6006805461ff0019169055565b620000f26006805461ff001916610100179055565b505050620007dc565b826000808281526005602052604090206001015460ff16600281111562000126576200012662000749565b14620001795760405162461bcd60e51b815260206004820152601e60248201527f43616e6e6f74207573652061207072652d6578697374696e6720726f6c65000060448201526064015b60405180910390fd5b60008481526005602052604090206001808201805460ff191682800217905550838155620001b76002820184620003ee602090811b6200077c17901c565b60008481526005602052604081206001015460ff166002811115620001e057620001e062000749565b1415620002455760405162461bcd60e51b815260206004820152603c602482015260008051602062001ed283398151915260448201527f20746f206d616e61676520616e206578636c757369766520726f6c6500000000606482015260840162000170565b5050505050565b826000808281526005602052604090206001015460ff16600281111562000277576200027762000749565b14620002c65760405162461bcd60e51b815260206004820152601e60248201527f43616e6e6f74207573652061207072652d6578697374696e6720726f6c650000604482015260640162000170565b600084815260056020908152604090912060018101805460ff191660021790558481559062000305906003830190859062000786620003fe821b17901c565b60008481526005602052604081206001015460ff1660028111156200032e576200032e62000749565b1415620002455760405162461bcd60e51b8152602060048201526038602482015260008051602062001ed283398151915260448201527f20746f206d616e61676520612073686172656420726f6c650000000000000000606482015260840162000170565b600654610100900460ff16620003ec5760405162461bcd60e51b815260206004820152601f60248201527f5265656e7472616e637947756172643a207265656e7472616e742063616c6c00604482015260640162000170565b565b620003fa828262000453565b5050565b60005b81518110156200044e5762000439838383815181106200042557620004256200075f565b6020026020010151620004d460201b60201c565b80620004458162000775565b91505062000401565b505050565b6001600160a01b038116620004b75760405162461bcd60e51b815260206004820152602360248201527f43616e6e6f742073657420616e206578636c757369766520726f6c6520746f2060448201526203078360ec1b606482015260840162000170565b81546001600160a01b0319166001600160a01b0391909116179055565b6001600160a01b0381166200052c5760405162461bcd60e51b815260206004820152601f60248201527f43616e6e6f74206164642030783020746f20612073686172656420726f6c6500604482015260640162000170565b6001600160a01b0316600090815260209190915260409020805460ff19166001179055565b8280546200055f906200079f565b90600052602060002090601f016020900481019282620005835760008555620005ce565b82601f106200059e57805160ff1916838001178555620005ce565b82800160010185558215620005ce579182015b82811115620005ce578251825591602001919060010190620005b1565b50620005dc929150620005e0565b5090565b5b80821115620005dc5760008155600101620005e1565b634e487b7160e01b600052604160045260246000fd5b600082601f8301126200061f57600080fd5b81516001600160401b03808211156200063c576200063c620005f7565b604051601f8301601f19908116603f01168101908282118183101715620006675762000667620005f7565b816040528381526020925086838588010111156200068457600080fd5b600091505b83821015620006a8578582018301518183018401529082019062000689565b83821115620006ba5760008385830101525b9695505050505050565b600080600060608486031215620006da57600080fd5b83516001600160401b0380821115620006f257600080fd5b62000700878388016200060d565b945060208601519150808211156200071757600080fd5b5062000726868287016200060d565b925050604084015160ff811681146200073e57600080fd5b809150509250925092565b634e487b7160e01b600052602160045260246000fd5b634e487b7160e01b600052603260045260246000fd5b60006000198214156200079857634e487b7160e01b600052601160045260246000fd5b5060010190565b600181811c90821680620007b457607f821691505b60208210811415620007d657634e487b7160e01b600052602260045260246000fd5b50919050565b6116e680620007ec6000396000f3fe608060405234801561001057600080fd5b50600436106101775760003560e01c80634334614a116100d8578063983b2d561161008c578063aa271e1a11610066578063aa271e1a146102fb578063dd62ed3e1461030e578063f44637ba1461034757600080fd5b8063983b2d56146102c2578063a457c2d7146102d5578063a9059cbb146102e857600080fd5b806373cc802a116100bd57806373cc802a1461029457806379cc6790146102a757806395d89b41146102ba57600080fd5b80634334614a1461025857806370a082311461026b57600080fd5b80633092afd51161012f5780633950935111610114578063395093511461021f57806340c10f191461023257806342966c681461024557600080fd5b80633092afd5146101f7578063313ce5671461020a57600080fd5b8063095ea7b311610160578063095ea7b3146101af57806318160ddd146101d257806323b872dd146101e457600080fd5b8063028468581461017c57806306fdde0314610191575b600080fd5b61018f61018a3660046114c0565b61035a565b005b610199610395565b6040516101a691906114e2565b60405180910390f35b6101c26101bd366004611537565b610427565b60405190151581526020016101a6565b6002545b6040519081526020016101a6565b6101c26101f2366004611561565b610441565b61018f6102053660046114c0565b610465565b60065460405160ff90911681526020016101a6565b6101c261022d366004611537565b610487565b6101c2610240366004611537565b6104c6565b61018f61025336600461159d565b61053a565b6101c26102663660046114c0565b6105ab565b6101d66102793660046114c0565b6001600160a01b031660009081526020819052604090205490565b61018f6102a23660046114c0565b6105c9565b6101c26102b5366004611537565b6105ec565b61019961065b565b61018f6102d03660046114c0565b61066a565b6101c26102e3366004611537565b61068e565b6101c26102f6366004611537565b610738565b6101c26103093660046114c0565b610746565b6101d661031c3660046115b6565b6001600160a01b03918216600090815260016020908152604080832093909416825291909152205490565b61018f6103553660046114c0565b61075a565b6103626107cc565b6103726006805461ff0019169055565b61037e60025b82610825565b6103926006805461ff001916610100179055565b50565b6060600380546103a4906115ff565b80601f01602080910402602001604051908101604052809291908181526020018280546103d0906115ff565b801561041d5780601f106103f25761010080835404028352916020019161041d565b820191906000526020600020905b81548152906001019060200180831161040057829003601f168201915b5050505050905090565b600033610435818585610983565b60019150505b92915050565b60003361044f858285610adb565b61045a858585610b6d565b506001949350505050565b61046d6107cc565b61047d6006805461ff0019169055565b61037e6001610378565b3360008181526001602090815260408083206001600160a01b038716845290915281205490919061043590829086906104c1908790611650565b610983565b600060016104d48133610d84565b6105305760405162461bcd60e51b815260206004820152602260248201527f53656e64657220646f6573206e6f7420686f6c6420726571756972656420726f6044820152616c6560f01b60648201526084015b60405180910390fd5b6104358484610e5a565b60026105468133610d84565b61059d5760405162461bcd60e51b815260206004820152602260248201527f53656e64657220646f6573206e6f7420686f6c6420726571756972656420726f6044820152616c6560f01b6064820152608401610527565b6105a73383610f39565b5050565b60006105b56107cc565b6105c160025b83610d84565b90505b919050565b6105d16107cc565b6105e16006805461ff0019169055565b61037e6000826110be565b600060026105fa8133610d84565b6106515760405162461bcd60e51b815260206004820152602260248201527f53656e64657220646f6573206e6f7420686f6c6420726571756972656420726f6044820152616c6560f01b6064820152608401610527565b6104358484610f39565b6060600480546103a4906115ff565b6106726107cc565b6106826006805461ff0019169055565b61037e60015b82611226565b3360008181526001602090815260408083206001600160a01b03871684529091528120549091908381101561072b5760405162461bcd60e51b815260206004820152602560248201527f45524332303a2064656372656173656420616c6c6f77616e63652062656c6f7760448201527f207a65726f0000000000000000000000000000000000000000000000000000006064820152608401610527565b61045a8286868403610983565b600033610435818585610b6d565b60006107506107cc565b6105c160016105bb565b6107626107cc565b6107726006805461ff0019169055565b61037e6002610688565b6105a7828261137d565b60005b81518110156107c7576107b5838383815181106107a8576107a8611668565b602002602001015161142e565b806107bf8161167e565b915050610789565b505050565b600654610100900460ff166108235760405162461bcd60e51b815260206004820152601f60248201527f5265656e7472616e637947756172643a207265656e7472616e742063616c6c006044820152606401610527565b565b81600260008281526005602052604090206001015460ff16600281111561084e5761084e6115e9565b146108b05760405162461bcd60e51b815260206004820152602c60248201527f4d7573742062652063616c6c6564206f6e20616e20696e697469616c697a656460448201526b2053686172656420726f6c6560a01b6064820152608401610527565b60008381526005602052604090205483906108cb9033610d84565b6109235760405162461bcd60e51b8152602060048201526024808201527f43616e206f6e6c792062652063616c6c6564206279206120726f6c65206d616e60448201526330b3b2b960e11b6064820152608401610527565b60008481526005602090815260408083206001600160a01b0387168085526003909101909252808320805460ff1916905551339287917feb3e33034c392e69263b04ec0fa376dc12784a41b6676c7f31b936cbc0fbb5af9190a450505050565b6001600160a01b0383166109fe5760405162461bcd60e51b8152602060048201526024808201527f45524332303a20617070726f76652066726f6d20746865207a65726f2061646460448201527f72657373000000000000000000000000000000000000000000000000000000006064820152608401610527565b6001600160a01b038216610a7a5760405162461bcd60e51b815260206004820152602260248201527f45524332303a20617070726f766520746f20746865207a65726f20616464726560448201527f73730000000000000000000000000000000000000000000000000000000000006064820152608401610527565b6001600160a01b0383811660008181526001602090815260408083209487168084529482529182902085905590518481527f8c5be1e5ebec7d5bd14f71427d1e84f3dd0314c0f7b2291e5b200ac8c7c3b925910160405180910390a3505050565b6001600160a01b038381166000908152600160209081526040808320938616835292905220546000198114610b675781811015610b5a5760405162461bcd60e51b815260206004820152601d60248201527f45524332303a20696e73756666696369656e7420616c6c6f77616e63650000006044820152606401610527565b610b678484848403610983565b50505050565b6001600160a01b038316610be95760405162461bcd60e51b815260206004820152602560248201527f45524332303a207472616e736665722066726f6d20746865207a65726f20616460448201527f64726573730000000000000000000000000000000000000000000000000000006064820152608401610527565b6001600160a01b038216610c655760405162461bcd60e51b815260206004820152602360248201527f45524332303a207472616e7366657220746f20746865207a65726f206164647260448201527f65737300000000000000000000000000000000000000000000000000000000006064820152608401610527565b6001600160a01b03831660009081526020819052604090205481811015610cf45760405162461bcd60e51b815260206004820152602660248201527f45524332303a207472616e7366657220616d6f756e742065786365656473206260448201527f616c616e636500000000000000000000000000000000000000000000000000006064820152608401610527565b6001600160a01b03808516600090815260208190526040808220858503905591851681529081208054849290610d2b908490611650565b92505081905550826001600160a01b0316846001600160a01b03167fddf252ad1be2c89b69c2b068fc378daa952ba7f163c4a11628f55a4df523b3ef84604051610d7791815260200190565b60405180910390a3610b67565b600082815260056020526040812060018082015460ff166002811115610dac57610dac6115e9565b1415610dce5760028101546001600160a01b038481169116145b91505061043b565b6002600182015460ff166002811115610de957610de96115e9565b1415610e12576001600160a01b038316600090815260038201602052604090205460ff16610dc6565b60405162461bcd60e51b815260206004820152600e60248201527f496e76616c696420726f6c6549640000000000000000000000000000000000006044820152606401610527565b6001600160a01b038216610eb05760405162461bcd60e51b815260206004820152601f60248201527f45524332303a206d696e7420746f20746865207a65726f2061646472657373006044820152606401610527565b8060026000828254610ec29190611650565b90915550506001600160a01b03821660009081526020819052604081208054839290610eef908490611650565b90915550506040518181526001600160a01b038316906000907fddf252ad1be2c89b69c2b068fc378daa952ba7f163c4a11628f55a4df523b3ef9060200160405180910390a35050565b6001600160a01b038216610fb55760405162461bcd60e51b815260206004820152602160248201527f45524332303a206275726e2066726f6d20746865207a65726f2061646472657360448201527f73000000000000000000000000000000000000000000000000000000000000006064820152608401610527565b6001600160a01b038216600090815260208190526040902054818110156110445760405162461bcd60e51b815260206004820152602260248201527f45524332303a206275726e20616d6f756e7420657863656564732062616c616e60448201527f63650000000000000000000000000000000000000000000000000000000000006064820152608401610527565b6001600160a01b0383166000908152602081905260408120838303905560028054849290611073908490611699565b90915550506040518281526000906001600160a01b038516907fddf252ad1be2c89b69c2b068fc378daa952ba7f163c4a11628f55a4df523b3ef9060200160405180910390a3505050565b81600160008281526005602052604090206001015460ff1660028111156110e7576110e76115e9565b1461115a5760405162461bcd60e51b815260206004820152602f60248201527f4d7573742062652063616c6c6564206f6e20616e20696e697469616c697a656460448201527f204578636c757369766520726f6c6500000000000000000000000000000000006064820152608401610527565b60008381526005602052604090205483906111759033610d84565b6111cd5760405162461bcd60e51b8152602060048201526024808201527f43616e206f6e6c792062652063616c6c6564206279206120726f6c65206d616e60448201526330b3b2b960e11b6064820152608401610527565b60008481526005602052604090206111e8906002018461137d565b60405133906001600160a01b0385169086907f3b855c56b409b671c7112789d022675eb639d0bcb8896f1b6197c132f799e74690600090a450505050565b81600260008281526005602052604090206001015460ff16600281111561124f5761124f6115e9565b146112b15760405162461bcd60e51b815260206004820152602c60248201527f4d7573742062652063616c6c6564206f6e20616e20696e697469616c697a656460448201526b2053686172656420726f6c6560a01b6064820152608401610527565b60008381526005602052604090205483906112cc9033610d84565b6113245760405162461bcd60e51b8152602060048201526024808201527f43616e206f6e6c792062652063616c6c6564206279206120726f6c65206d616e60448201526330b3b2b960e11b6064820152608401610527565b600084815260056020526040902061133f906003018461142e565b60405133906001600160a01b0385169086907f63502af7324ff6db91ab38f8236a648727d9385ea6c782073dd4882d8a61a48f90600090a450505050565b6001600160a01b0381166113f95760405162461bcd60e51b815260206004820152602360248201527f43616e6e6f742073657420616e206578636c757369766520726f6c6520746f2060448201527f30783000000000000000000000000000000000000000000000000000000000006064820152608401610527565b81547fffffffffffffffffffffffff0000000000000000000000000000000000000000166001600160a01b0391909116179055565b6001600160a01b0381166114845760405162461bcd60e51b815260206004820152601f60248201527f43616e6e6f74206164642030783020746f20612073686172656420726f6c65006044820152606401610527565b6001600160a01b0316600090815260209190915260409020805460ff19166001179055565b80356001600160a01b03811681146105c457600080fd5b6000602082840312156114d257600080fd5b6114db826114a9565b9392505050565b600060208083528351808285015260005b8181101561150f578581018301518582016040015282016114f3565b81811115611521576000604083870101525b50601f01601f1916929092016040019392505050565b6000806040838503121561154a57600080fd5b611553836114a9565b946020939093013593505050565b60008060006060848603121561157657600080fd5b61157f846114a9565b925061158d602085016114a9565b9150604084013590509250925092565b6000602082840312156115af57600080fd5b5035919050565b600080604083850312156115c957600080fd5b6115d2836114a9565b91506115e0602084016114a9565b90509250929050565b634e487b7160e01b600052602160045260246000fd5b600181811c9082168061161357607f821691505b6020821081141561163457634e487b7160e01b600052602260045260246000fd5b50919050565b634e487b7160e01b600052601160045260246000fd5b600082198211156116635761166361163a565b500190565b634e487b7160e01b600052603260045260246000fd5b60006000198214156116925761169261163a565b5060010190565b6000828210156116ab576116ab61163a565b50039056fea26469706673582212204e1580953a7ed2dad8d16388e1752655511f9e2935867547c2f31430cc92e75b64736f6c63430008090033417474656d7074656420746f2075736520616e20696e76616c696420726f6c65a26469706673582212209085cc89777c1359f27ae4927b5295f429def2a56b1229b201e7421c3bd0615564736f6c63430008090033",
  "devdoc": {
    "kind": "dev",
    "methods": {
      "createToken(string,string,uint8)": {
        "details": "The caller will become the only minter and burner and the new owner capable of assigning the roles.",
        "params": {
          "tokenDecimals": "used to define the precision used in the token's numerical representation.",
          "tokenName": "used to describe the new token.",
          "tokenSymbol": "short ticker abbreviation of the name. Ideally < 5 chars."
        },
        "returns": {
          "newToken": "an instance of the newly created token interface."
        }
      }
    },
    "title": "Factory for creating new mintable and burnable tokens.",
    "version": 1
  },
  "userdoc": {
    "kind": "user",
    "methods": {
      "createToken(string,string,uint8)": {
        "notice": "Create a new token and return it to the caller."
      }
    },
    "version": 1
  },
  "storageLayout": {
    "storage": [
      {
        "astId": 5903,
        "contract": "contracts/UMA/financial-templates/common/TokenFactory.sol:TokenFactory",
        "label": "_notEntered",
        "offset": 0,
        "slot": "0",
        "type": "t_bool"
      }
    ],
    "types": {
      "t_bool": {
        "encoding": "inplace",
        "label": "bool",
        "numberOfBytes": "1"
      }
    }
  }
}