{
    "address": "0x368C5C0A349E1022942C3A9Dd3c4ACfB62D73313",
    "abi": [
        {
            "inputs": [
                {
                    "internalType": "contract IClayToken",
                    "name": "_clay",
                    "type": "address"
                },
                {
                    "internalType": "uint256",
                    "name": "_maximumBondRewards",
                    "type": "uint256"
                }
            ],
            "stateMutability": "nonpayable",
            "type": "constructor"
        },
        {
            "anonymous": false,
            "inputs": [
                {
                    "indexed": true,
                    "internalType": "address",
                    "name": "owner",
                    "type": "address"
                },
                {
                    "indexed": true,
                    "internalType": "address",
                    "name": "spender",
                    "type": "address"
                },
                {
                    "indexed": false,
                    "internalType": "uint256",
                    "name": "value",
                    "type": "uint256"
                }
            ],
            "name": "Approval",
            "type": "event"
        },
        {
            "anonymous": false,
            "inputs": [
                {
                    "indexed": false,
                    "internalType": "uint256",
                    "name": "amount",
                    "type": "uint256"
                }
            ],
            "name": "Burned",
            "type": "event"
        },
        {
            "anonymous": false,
            "inputs": [
                {
                    "indexed": true,
                    "internalType": "address",
                    "name": "user",
                    "type": "address"
                },
                {
                    "indexed": false,
                    "internalType": "uint256",
                    "name": "balance",
                    "type": "uint256"
                }
            ],
            "name": "Claimed",
            "type": "event"
        },
        {
            "anonymous": false,
            "inputs": [
                {
                    "indexed": true,
                    "internalType": "address",
                    "name": "user",
                    "type": "address"
                },
                {
                    "indexed": false,
                    "internalType": "uint256",
                    "name": "amount",
                    "type": "uint256"
                },
                {
                    "indexed": false,
                    "internalType": "uint256",
                    "name": "daysLeftToMaturationDate",
                    "type": "uint256"
                },
                {
                    "indexed": false,
                    "internalType": "uint256",
                    "name": "rewardPercent",
                    "type": "uint256"
                },
                {
                    "indexed": false,
                    "internalType": "uint256",
                    "name": "reward",
                    "type": "uint256"
                }
            ],
            "name": "Issued",
            "type": "event"
        },
        {
            "anonymous": false,
            "inputs": [
                {
                    "indexed": true,
                    "internalType": "address",
                    "name": "previousOwner",
                    "type": "address"
                },
                {
                    "indexed": true,
                    "internalType": "address",
                    "name": "newOwner",
                    "type": "address"
                }
            ],
            "name": "OwnershipTransferred",
            "type": "event"
        },
        {
            "anonymous": false,
            "inputs": [
                {
                    "indexed": true,
                    "internalType": "address",
                    "name": "from",
                    "type": "address"
                },
                {
                    "indexed": true,
                    "internalType": "address",
                    "name": "to",
                    "type": "address"
                },
                {
                    "indexed": false,
                    "internalType": "uint256",
                    "name": "value",
                    "type": "uint256"
                }
            ],
            "name": "Transfer",
            "type": "event"
        },
        {
            "inputs": [],
            "name": "APY_PERCENT",
            "outputs": [
                {
                    "internalType": "uint256",
                    "name": "",
                    "type": "uint256"
                }
            ],
            "stateMutability": "view",
            "type": "function"
        },
        {
            "inputs": [],
            "name": "BONDS_ISSUANCE_PERIOD",
            "outputs": [
                {
                    "internalType": "uint256",
                    "name": "",
                    "type": "uint256"
                }
            ],
            "stateMutability": "view",
            "type": "function"
        },
        {
            "inputs": [],
            "name": "MATURATION_PERIOD",
            "outputs": [
                {
                    "internalType": "uint256",
                    "name": "",
                    "type": "uint256"
                }
            ],
            "stateMutability": "view",
            "type": "function"
        },
        {
            "inputs": [],
            "name": "MIN_ISSUANCE_AMOUNT",
            "outputs": [
                {
                    "internalType": "uint256",
                    "name": "",
                    "type": "uint256"
                }
            ],
            "stateMutability": "view",
            "type": "function"
        },
        {
            "inputs": [
                {
                    "internalType": "address",
                    "name": "owner",
                    "type": "address"
                },
                {
                    "internalType": "address",
                    "name": "spender",
                    "type": "address"
                }
            ],
            "name": "allowance",
            "outputs": [
                {
                    "internalType": "uint256",
                    "name": "",
                    "type": "uint256"
                }
            ],
            "stateMutability": "view",
            "type": "function"
        },
        {
            "inputs": [
                {
                    "internalType": "address",
                    "name": "spender",
                    "type": "address"
                },
                {
                    "internalType": "uint256",
                    "name": "amount",
                    "type": "uint256"
                }
            ],
            "name": "approve",
            "outputs": [
                {
                    "internalType": "bool",
                    "name": "",
                    "type": "bool"
                }
            ],
            "stateMutability": "nonpayable",
            "type": "function"
        },
        {
            "inputs": [
                {
                    "internalType": "address",
                    "name": "account",
                    "type": "address"
                }
            ],
            "name": "balanceOf",
            "outputs": [
                {
                    "internalType": "uint256",
                    "name": "",
                    "type": "uint256"
                }
            ],
            "stateMutability": "view",
            "type": "function"
        },
        {
            "inputs": [],
            "name": "burn",
            "outputs": [],
            "stateMutability": "nonpayable",
            "type": "function"
        },
        {
            "inputs": [],
            "name": "claim",
            "outputs": [],
            "stateMutability": "nonpayable",
            "type": "function"
        },
        {
            "inputs": [],
            "name": "clay",
            "outputs": [
                {
                    "internalType": "contract IClayToken",
                    "name": "",
                    "type": "address"
                }
            ],
            "stateMutability": "view",
            "type": "function"
        },
        {
            "inputs": [],
            "name": "dailyYieldPercent",
            "outputs": [
                {
                    "internalType": "uint256",
                    "name": "",
                    "type": "uint256"
                }
            ],
            "stateMutability": "view",
            "type": "function"
        },
        {
            "inputs": [],
            "name": "decimals",
            "outputs": [
                {
                    "internalType": "uint8",
                    "name": "",
                    "type": "uint8"
                }
            ],
            "stateMutability": "view",
            "type": "function"
        },
        {
            "inputs": [
                {
                    "internalType": "address",
                    "name": "spender",
                    "type": "address"
                },
                {
                    "internalType": "uint256",
                    "name": "subtractedValue",
                    "type": "uint256"
                }
            ],
            "name": "decreaseAllowance",
            "outputs": [
                {
                    "internalType": "bool",
                    "name": "",
                    "type": "bool"
                }
            ],
            "stateMutability": "nonpayable",
            "type": "function"
        },
        {
            "inputs": [],
            "name": "depositCloseDate",
            "outputs": [
                {
                    "internalType": "uint256",
                    "name": "",
                    "type": "uint256"
                }
            ],
            "stateMutability": "view",
            "type": "function"
        },
        {
            "inputs": [],
            "name": "depositStartDate",
            "outputs": [
                {
                    "internalType": "uint256",
                    "name": "",
                    "type": "uint256"
                }
            ],
            "stateMutability": "view",
            "type": "function"
        },
        {
            "inputs": [],
            "name": "getDaysLeftToMaturationDate",
            "outputs": [
                {
                    "internalType": "uint256",
                    "name": "daysLeftToMaturationDate",
                    "type": "uint256"
                }
            ],
            "stateMutability": "view",
            "type": "function"
        },
        {
            "inputs": [
                {
                    "internalType": "uint256",
                    "name": "_amount",
                    "type": "uint256"
                },
                {
                    "internalType": "uint256",
                    "name": "_rewardPercent",
                    "type": "uint256"
                }
            ],
            "name": "getReward",
            "outputs": [
                {
                    "internalType": "uint256",
                    "name": "reward",
                    "type": "uint256"
                }
            ],
            "stateMutability": "pure",
            "type": "function"
        },
        {
            "inputs": [
                {
                    "internalType": "uint256",
                    "name": "daysLeftToMaturationDate",
                    "type": "uint256"
                }
            ],
            "name": "getRewardPercent",
            "outputs": [
                {
                    "internalType": "uint256",
                    "name": "rewardPercent",
                    "type": "uint256"
                }
            ],
            "stateMutability": "view",
            "type": "function"
        },
        {
            "inputs": [
                {
                    "internalType": "address",
                    "name": "spender",
                    "type": "address"
                },
                {
                    "internalType": "uint256",
                    "name": "addedValue",
                    "type": "uint256"
                }
            ],
            "name": "increaseAllowance",
            "outputs": [
                {
                    "internalType": "bool",
                    "name": "",
                    "type": "bool"
                }
            ],
            "stateMutability": "nonpayable",
            "type": "function"
        },
        {
            "inputs": [
                {
                    "internalType": "uint256",
                    "name": "_clayAmount",
                    "type": "uint256"
                }
            ],
            "name": "issue",
            "outputs": [
                {
                    "internalType": "uint256",
                    "name": "bondAmount",
                    "type": "uint256"
                }
            ],
            "stateMutability": "nonpayable",
            "type": "function"
        },
        {
            "inputs": [],
            "name": "maturationDate",
            "outputs": [
                {
                    "internalType": "uint256",
                    "name": "",
                    "type": "uint256"
                }
            ],
            "stateMutability": "view",
            "type": "function"
        },
        {
            "inputs": [],
            "name": "maximumBondRewards",
            "outputs": [
                {
                    "internalType": "uint256",
                    "name": "",
                    "type": "uint256"
                }
            ],
            "stateMutability": "view",
            "type": "function"
        },
        {
            "inputs": [],
            "name": "name",
            "outputs": [
                {
                    "internalType": "string",
                    "name": "",
                    "type": "string"
                }
            ],
            "stateMutability": "view",
            "type": "function"
        },
        {
            "inputs": [],
            "name": "owner",
            "outputs": [
                {
                    "internalType": "address",
                    "name": "",
                    "type": "address"
                }
            ],
            "stateMutability": "view",
            "type": "function"
        },
        {
            "inputs": [],
            "name": "renounceOwnership",
            "outputs": [],
            "stateMutability": "nonpayable",
            "type": "function"
        },
        {
            "inputs": [],
            "name": "symbol",
            "outputs": [
                {
                    "internalType": "string",
                    "name": "",
                    "type": "string"
                }
            ],
            "stateMutability": "view",
            "type": "function"
        },
        {
            "inputs": [],
            "name": "totalBondDeposits",
            "outputs": [
                {
                    "internalType": "uint256",
                    "name": "",
                    "type": "uint256"
                }
            ],
            "stateMutability": "view",
            "type": "function"
        },
        {
            "inputs": [],
            "name": "totalSupply",
            "outputs": [
                {
                    "internalType": "uint256",
                    "name": "",
                    "type": "uint256"
                }
            ],
            "stateMutability": "view",
            "type": "function"
        },
        {
            "inputs": [
                {
                    "internalType": "address",
                    "name": "to",
                    "type": "address"
                },
                {
                    "internalType": "uint256",
                    "name": "amount",
                    "type": "uint256"
                }
            ],
            "name": "transfer",
            "outputs": [
                {
                    "internalType": "bool",
                    "name": "",
                    "type": "bool"
                }
            ],
            "stateMutability": "nonpayable",
            "type": "function"
        },
        {
            "inputs": [
                {
                    "internalType": "address",
                    "name": "from",
                    "type": "address"
                },
                {
                    "internalType": "address",
                    "name": "to",
                    "type": "address"
                },
                {
                    "internalType": "uint256",
                    "name": "amount",
                    "type": "uint256"
                }
            ],
            "name": "transferFrom",
            "outputs": [
                {
                    "internalType": "bool",
                    "name": "",
                    "type": "bool"
                }
            ],
            "stateMutability": "nonpayable",
            "type": "function"
        },
        {
            "inputs": [
                {
                    "internalType": "address",
                    "name": "newOwner",
                    "type": "address"
                }
            ],
            "name": "transferOwnership",
            "outputs": [],
            "stateMutability": "nonpayable",
            "type": "function"
        }
    ],
    "transactionHash": "0xb43a349f5c1a7fb54b804d62ae5fe66a45884b521de625dbfb20fdf52e38c7f1",
    "args": [
        "0x33161EbeF6a9A1E8b3E5e68edD3420BD48D62641",
        {
            "type": "BigNumber",
            "hex": "0x295be96e64066972000000"
        }
    ],
    "numDeployments": 2,
    "solcInputHash": "a5457bc34cc6d7e9fb8b6a7dcc858238",
    "bytecode": "0x6101206040523480156200001257600080fd5b5060405162001a3338038062001a33833981016040819052620000359162000186565b6040518060400160405280600b81526020016a3d21b630bc902a37b5b2b760a91b815250604051806040016040528060058152602001647a434c415960d81b815250816003908162000088919062000267565b50600462000097828262000267565b505050620000b4620000ae6200013060201b60201c565b62000134565b600680546001600160a01b0319166001600160a01b03841617905560808190524260a0819052620000ea9062093a809062000349565b60c052620000fc621baf804262000349565b60e05261016d620001176024670de0b6b3a764000062000365565b62000123919062000387565b6101005250620003aa9050565b3390565b600580546001600160a01b038381166001600160a01b0319831681179093556040519116919082907f8be0079c531659141344cd1fd0a4f28419497f9722a3daafe3b4186f6b6457e090600090a35050565b600080604083850312156200019a57600080fd5b82516001600160a01b0381168114620001b257600080fd5b6020939093015192949293505050565b634e487b7160e01b600052604160045260246000fd5b600181811c90821680620001ed57607f821691505b6020821081036200020e57634e487b7160e01b600052602260045260246000fd5b50919050565b601f8211156200026257600081815260208120601f850160051c810160208610156200023d5750805b601f850160051c820191505b818110156200025e5782815560010162000249565b5050505b505050565b81516001600160401b03811115620002835762000283620001c2565b6200029b81620002948454620001d8565b8462000214565b602080601f831160018114620002d35760008415620002ba5750858301515b600019600386901b1c1916600185901b1785556200025e565b600085815260208120601f198616915b828110156200030457888601518255948401946001909101908401620002e3565b5085821015620003235787850151600019600388901b60f8161c191681555b5050505050600190811b01905550565b634e487b7160e01b600052601160045260246000fd5b808201808211156200035f576200035f62000333565b92915050565b600081600019048311821515161562000382576200038262000333565b500290565b600082620003a557634e487b7160e01b600052601260045260246000fd5b500490565b60805160a05160c05160e0516101005161160c620004276000396000818161028101526107020152600081816104160152818161056f015281816107290152818161089e01526108d30152600081816103730152610ab30152600081816104500152610a380152600081816103dc0152610c40015261160c6000f3fe608060405234801561001057600080fd5b50600436106101e55760003560e01c8063792256991161010f578063b90bc519116100a2578063dd62ed3e11610071578063dd62ed3e146103fe578063ec1f5a9714610411578063f2fde38b14610438578063ff6bca691461044b57600080fd5b8063b90bc519146103a8578063cc872b66146103bb578063d66f0acb146103ce578063d6afbfd0146103d757600080fd5b8063a457c2d7116100de578063a457c2d714610348578063a4d60c7c1461035b578063a60872201461036e578063a9059cbb1461039557600080fd5b806379225699146103095780638da5cb5b1461031157806395d89b411461033657806398975e851461033e57600080fd5b80634aec1928116101875780635140af3f116101565780635140af3f146102c857806370a08231146102d0578063715018a6146102f957806377291df81461030157600080fd5b80634aec19281461027c5780634e68d114146102a35780634e71d92d146102b65780634ff02691146102be57600080fd5b806323b872dd116101c357806323b872dd1461023d578063313ce56714610250578063395093511461025f57806344df8e701461027257600080fd5b806306fdde03146101ea578063095ea7b31461020857806318160ddd1461022b575b600080fd5b6101f2610472565b6040516101ff919061138b565b60405180910390f35b61021b6102163660046113f5565b610504565b60405190151581526020016101ff565b6002545b6040519081526020016101ff565b61021b61024b36600461141f565b61051e565b604051601281526020016101ff565b61021b61026d3660046113f5565b610542565b61027a610564565b005b61022f7f000000000000000000000000000000000000000000000000000000000000000081565b61022f6102b136600461145b565b6106ef565b61027a610726565b61022f621baf8081565b61022f610899565b61022f6102de366004611474565b6001600160a01b031660009081526020819052604090205490565b61027a610906565b61022f606481565b61022f602481565b6005546001600160a01b03165b6040516001600160a01b0390911681526020016101ff565b6101f261091a565b61022f62093a8081565b61021b6103563660046113f5565b610929565b60065461031e906001600160a01b031681565b61022f7f000000000000000000000000000000000000000000000000000000000000000081565b61021b6103a33660046113f5565b6109a4565b61022f6103b636600461148f565b6109b2565b61022f6103c936600461145b565b6109e4565b61022f60075481565b61022f7f000000000000000000000000000000000000000000000000000000000000000081565b61022f61040c3660046114b1565b610d0f565b61022f7f000000000000000000000000000000000000000000000000000000000000000081565b61027a610446366004611474565b610d3a565b61022f7f000000000000000000000000000000000000000000000000000000000000000081565b606060038054610481906114e4565b80601f01602080910402602001604051908101604052809291908181526020018280546104ad906114e4565b80156104fa5780601f106104cf576101008083540402835291602001916104fa565b820191906000526020600020905b8154815290600101906020018083116104dd57829003601f168201915b5050505050905090565b600033610512818585610db3565b60019150505b92915050565b60003361052c858285610ed8565b610537858585610f52565b506001949350505050565b6000336105128185856105558383610d0f565b61055f9190611534565b610db3565b61056c6110f6565b427f000000000000000000000000000000000000000000000000000000000000000011156105e15760405162461bcd60e51b815260206004820152601b60248201527f436c6179426f6e64733a20424f4e445f4e4f545f4d415455524544000000000060448201526064015b60405180910390fd5b6006546040516370a0823160e01b81523060048201526000916001600160a01b0316906370a0823190602401602060405180830381865afa15801561062a573d6000803e3d6000fd5b505050506040513d601f19601f8201168201806040525081019061064e9190611547565b600654604051632770a7eb60e21b8152306004820152602481018390529192506001600160a01b031690639dc29fac90604401600060405180830381600087803b15801561069b57600080fd5b505af11580156106af573d6000803e3d6000fd5b505050507fd83c63197e8e676d80ab0122beba9a9d20f3828839e9a1d6fe81d242e9cd7e6e816040516106e491815260200190565b60405180910390a150565b60006106fc826001611534565b610518907f0000000000000000000000000000000000000000000000000000000000000000611560565b427f000000000000000000000000000000000000000000000000000000000000000011156107965760405162461bcd60e51b815260206004820152601b60248201527f436c6179426f6e64733a20424f4e445f4e4f545f4d415455524544000000000060448201526064016105d8565b33600090815260208190526040902054806107f35760405162461bcd60e51b815260206004820152601a60248201527f436c6179426f6e64733a2042414c414e43455f49535f5a45524f00000000000060448201526064016105d8565b6107fd3382611150565b6006546040516340c10f1960e01b8152336004820152602481018390526001600160a01b03909116906340c10f1990604401600060405180830381600087803b15801561084957600080fd5b505af115801561085d573d6000803e3d6000fd5b50506040518381523392507fd8138f8a3f377c5259ca548e70e4c2de94f129f5a11036a15b69513cba2b426a915060200160405180910390a250565b6000427f000000000000000000000000000000000000000000000000000000000000000010156108c95750600090565b620151806108f7427f000000000000000000000000000000000000000000000000000000000000000061157f565b6109019190611592565b905090565b61090e6110f6565b610918600061127a565b565b606060048054610481906114e4565b600033816109378286610d0f565b9050838110156109975760405162461bcd60e51b815260206004820152602560248201527f45524332303a2064656372656173656420616c6c6f77616e63652062656c6f77604482015264207a65726f60d81b60648201526084016105d8565b6105378286868403610db3565b600033610512818585610f52565b6000670de0b6b3a764000060646109c98486611560565b6109d39190611592565b6109dd9190611592565b9392505050565b600060648211610a365760405162461bcd60e51b815260206004820152601e60248201527f436c6179426f6e64733a20494e53554646494349454e545f414d4f554e54000060448201526064016105d8565b7f0000000000000000000000000000000000000000000000000000000000000000421015610ab15760405162461bcd60e51b815260206004820152602260248201527f436c6179426f6e64733a204445504f5349545f4e4f545f5945545f5354415254604482015261115160f21b60648201526084016105d8565b7f00000000000000000000000000000000000000000000000000000000000000004210610b205760405162461bcd60e51b815260206004820152601960248201527f436c6179426f6e64733a204445504f5349545f434c4f5345440000000000000060448201526064016105d8565b6000610b2a610899565b90506000610b37826106ef565b90506000610b4585836109b2565b9050610b518186611534565b6006546040516323b872dd60e01b8152336004820152306024820152604481018890529195506000916001600160a01b03909116906323b872dd906064016020604051808303816000875af1158015610bae573d6000803e3d6000fd5b505050506040513d601f19601f82011682018060405250810190610bd291906115b4565b905080610c215760405162461bcd60e51b815260206004820152601a60248201527f436c6179426f6e64733a205452414e534645525f4641494c454400000000000060448201526064016105d8565b610c2b33866112cc565b84600754610c399190611534565b60078190557f000000000000000000000000000000000000000000000000000000000000000011610cbc5760405162461bcd60e51b815260206004820152602760248201527f436c6179426f6e64733a204d41585f424f4e445f5245574152445f504f4f4c5f60448201526614915050d2115160ca1b60648201526084016105d8565b60408051878152602081018690529081018490526060810183905233907f374a351db3f664ea453a7ce5668a042151e5aac07bf62f30d35defd0a019b0be9060800160405180910390a250505050919050565b6001600160a01b03918216600090815260016020908152604080832093909416825291909152205490565b610d426110f6565b6001600160a01b038116610da75760405162461bcd60e51b815260206004820152602660248201527f4f776e61626c653a206e6577206f776e657220697320746865207a65726f206160448201526564647265737360d01b60648201526084016105d8565b610db08161127a565b50565b6001600160a01b038316610e155760405162461bcd60e51b8152602060048201526024808201527f45524332303a20617070726f76652066726f6d20746865207a65726f206164646044820152637265737360e01b60648201526084016105d8565b6001600160a01b038216610e765760405162461bcd60e51b815260206004820152602260248201527f45524332303a20617070726f766520746f20746865207a65726f206164647265604482015261737360f01b60648201526084016105d8565b6001600160a01b0383811660008181526001602090815260408083209487168084529482529182902085905590518481527f8c5be1e5ebec7d5bd14f71427d1e84f3dd0314c0f7b2291e5b200ac8c7c3b92591015b60405180910390a3505050565b6000610ee48484610d0f565b90506000198114610f4c5781811015610f3f5760405162461bcd60e51b815260206004820152601d60248201527f45524332303a20696e73756666696369656e7420616c6c6f77616e636500000060448201526064016105d8565b610f4c8484848403610db3565b50505050565b6001600160a01b038316610fb65760405162461bcd60e51b815260206004820152602560248201527f45524332303a207472616e736665722066726f6d20746865207a65726f206164604482015264647265737360d81b60648201526084016105d8565b6001600160a01b0382166110185760405162461bcd60e51b815260206004820152602360248201527f45524332303a207472616e7366657220746f20746865207a65726f206164647260448201526265737360e81b60648201526084016105d8565b6001600160a01b038316600090815260208190526040902054818110156110905760405162461bcd60e51b815260206004820152602660248201527f45524332303a207472616e7366657220616d6f756e7420657863656564732062604482015265616c616e636560d01b60648201526084016105d8565b6001600160a01b03848116600081815260208181526040808320878703905593871680835291849020805487019055925185815290927fddf252ad1be2c89b69c2b068fc378daa952ba7f163c4a11628f55a4df523b3ef910160405180910390a3610f4c565b6005546001600160a01b031633146109185760405162461bcd60e51b815260206004820181905260248201527f4f776e61626c653a2063616c6c6572206973206e6f7420746865206f776e657260448201526064016105d8565b6001600160a01b0382166111b05760405162461bcd60e51b815260206004820152602160248201527f45524332303a206275726e2066726f6d20746865207a65726f206164647265736044820152607360f81b60648201526084016105d8565b6001600160a01b038216600090815260208190526040902054818110156112245760405162461bcd60e51b815260206004820152602260248201527f45524332303a206275726e20616d6f756e7420657863656564732062616c616e604482015261636560f01b60648201526084016105d8565b6001600160a01b0383166000818152602081815260408083208686039055600280548790039055518581529192917fddf252ad1be2c89b69c2b068fc378daa952ba7f163c4a11628f55a4df523b3ef9101610ecb565b600580546001600160a01b038381166001600160a01b0319831681179093556040519116919082907f8be0079c531659141344cd1fd0a4f28419497f9722a3daafe3b4186f6b6457e090600090a35050565b6001600160a01b0382166113225760405162461bcd60e51b815260206004820152601f60248201527f45524332303a206d696e7420746f20746865207a65726f20616464726573730060448201526064016105d8565b80600260008282546113349190611534565b90915550506001600160a01b038216600081815260208181526040808320805486019055518481527fddf252ad1be2c89b69c2b068fc378daa952ba7f163c4a11628f55a4df523b3ef910160405180910390a35050565b600060208083528351808285015260005b818110156113b85785810183015185820160400152820161139c565b506000604082860101526040601f19601f8301168501019250505092915050565b80356001600160a01b03811681146113f057600080fd5b919050565b6000806040838503121561140857600080fd5b611411836113d9565b946020939093013593505050565b60008060006060848603121561143457600080fd5b61143d846113d9565b925061144b602085016113d9565b9150604084013590509250925092565b60006020828403121561146d57600080fd5b5035919050565b60006020828403121561148657600080fd5b6109dd826113d9565b600080604083850312156114a257600080fd5b50508035926020909101359150565b600080604083850312156114c457600080fd5b6114cd836113d9565b91506114db602084016113d9565b90509250929050565b600181811c908216806114f857607f821691505b60208210810361151857634e487b7160e01b600052602260045260246000fd5b50919050565b634e487b7160e01b600052601160045260246000fd5b808201808211156105185761051861151e565b60006020828403121561155957600080fd5b5051919050565b600081600019048311821515161561157a5761157a61151e565b500290565b818103818111156105185761051861151e565b6000826115af57634e487b7160e01b600052601260045260246000fd5b500490565b6000602082840312156115c657600080fd5b815180151581146109dd57600080fdfea2646970667358221220dcd10cf8b2a2440a6949a69b7c107ae4029dd3cf4073435a40f1d78a1e58460264736f6c63430008100033",
    "devdoc": {
        "kind": "dev",
        "methods": {
            "allowance(address,address)": {
                "details": "See {IERC20-allowance}."
            },
            "approve(address,uint256)": {
                "details": "See {IERC20-approve}. NOTE: If `amount` is the maximum `uint256`, the allowance is not updated on `transferFrom`. This is semantically equivalent to an infinite approval. Requirements: - `spender` cannot be the zero address."
            },
            "balanceOf(address)": {
                "details": "See {IERC20-balanceOf}."
            },
            "burn()": {
                "details": "Burns the remaining Clay in the contract*"
            },
            "claim()": {
                "details": "Burns zClay and returns the underlying Clay tokens*"
            },
            "decimals()": {
                "details": "Returns the number of decimals used to get its user representation. For example, if `decimals` equals `2`, a balance of `505` tokens should be displayed to a user as `5.05` (`505 / 10 ** 2`). Tokens usually opt for a value of 18, imitating the relationship between Ether and Wei. This is the value {ERC20} uses, unless this function is overridden; NOTE: This information is only used for _display_ purposes: it in no way affects any of the arithmetic of the contract, including {IERC20-balanceOf} and {IERC20-transfer}."
            },
            "decreaseAllowance(address,uint256)": {
                "details": "Atomically decreases the allowance granted to `spender` by the caller. This is an alternative to {approve} that can be used as a mitigation for problems described in {IERC20-approve}. Emits an {Approval} event indicating the updated allowance. Requirements: - `spender` cannot be the zero address. - `spender` must have allowance for the caller of at least `subtractedValue`."
            },
            "increaseAllowance(address,uint256)": {
                "details": "Atomically increases the allowance granted to `spender` by the caller. This is an alternative to {approve} that can be used as a mitigation for problems described in {IERC20-approve}. Emits an {Approval} event indicating the updated allowance. Requirements: - `spender` cannot be the zero address."
            },
            "issue(uint256)": {
                "params": {
                    "_clayAmount": "The amount of CLAY deposited"
                }
            },
            "name()": {
                "details": "Returns the name of the token."
            },
            "owner()": {
                "details": "Returns the address of the current owner."
            },
            "renounceOwnership()": {
                "details": "Leaves the contract without owner. It will not be possible to call `onlyOwner` functions anymore. Can only be called by the current owner. NOTE: Renouncing ownership will leave the contract without an owner, thereby removing any functionality that is only available to the owner."
            },
            "symbol()": {
                "details": "Returns the symbol of the token, usually a shorter version of the name."
            },
            "totalSupply()": {
                "details": "See {IERC20-totalSupply}."
            },
            "transfer(address,uint256)": {
                "details": "See {IERC20-transfer}. Requirements: - `to` cannot be the zero address. - the caller must have a balance of at least `amount`."
            },
            "transferFrom(address,address,uint256)": {
                "details": "See {IERC20-transferFrom}. Emits an {Approval} event indicating the updated allowance. This is not required by the EIP. See the note at the beginning of {ERC20}. NOTE: Does not update the allowance if the current allowance is the maximum `uint256`. Requirements: - `from` and `to` cannot be the zero address. - `from` must have a balance of at least `amount`. - the caller must have allowance for ``from``'s tokens of at least `amount`."
            },
            "transferOwnership(address)": {
                "details": "Transfers ownership of the contract to a new account (`newOwner`). Can only be called by the current owner."
            }
        },
        "version": 1
    },
    "userdoc": {
        "kind": "user",
        "methods": {
            "issue(uint256)": {
                "notice": "Issues a zCLAY Bond depending on the amount of CLAY deposited and the current APY which depends on the time elapsed since bond programme inception"
            }
        },
        "notice": "You can deposit CLAY (ERC20 token native to Sumero) to get zCLAY Bonds (a new ERC20 representing the bond). These zCLAY Bonds can be minted upto a year from depositStartDate. The bonds will mature after a period of 3 years from the depositStartDate. There is a \"Fixed APY\" (Annual Percentage Yield) of 40% on the zCLAY Bonds and a \"Bonus APY\" of additional 20% that is constantly decreasing as the deposit close date is nearing (i.e. from a maximum of 20% to 0%). In total giving a maximum of 60% APY if a user creates bonds at Day 1 of bond start date. - FIXED_APY = 40% - BONUS_APY = 20% (decreases as deposit close date nears) Example: - User deposits 1 Clay and issues a zCLAY Bond on Day 1 of bond start date - [(deposit close timestamp - block timestamp) / (1 year in seconds) * Bonus_APY] - Total APY = APY + Bonus APY = 60% - User get 2.8 zCLAY Bond (Total APY (60%) for next 3 years i.e 180% total interest) - 1 + (180% of 1) => 1 + 1.8 => 2.8 The user can claim the zCLAY Bonds for equivalent value of CLAY after the maturation date. The user has to lock his CLAY in to zCLAY bonds for atleast 3 years. They are open to trade these bonds on a secondary market (i.e. via LP pools on Sumero)",
        "version": 1
    },
    "storageLayout": {
        "storage": [
            {
                "astId": 290,
                "contract": "contracts/ClayBonds.sol:ClayBonds",
                "label": "_balances",
                "offset": 0,
                "slot": "0",
                "type": "t_mapping(t_address,t_uint256)"
            },
            {
                "astId": 296,
                "contract": "contracts/ClayBonds.sol:ClayBonds",
                "label": "_allowances",
                "offset": 0,
                "slot": "1",
                "type": "t_mapping(t_address,t_mapping(t_address,t_uint256))"
            },
            {
                "astId": 298,
                "contract": "contracts/ClayBonds.sol:ClayBonds",
                "label": "_totalSupply",
                "offset": 0,
                "slot": "2",
                "type": "t_uint256"
            },
            {
                "astId": 300,
                "contract": "contracts/ClayBonds.sol:ClayBonds",
                "label": "_name",
                "offset": 0,
                "slot": "3",
                "type": "t_string_storage"
            },
            {
                "astId": 302,
                "contract": "contracts/ClayBonds.sol:ClayBonds",
                "label": "_symbol",
                "offset": 0,
                "slot": "4",
                "type": "t_string_storage"
            },
            {
                "astId": 7,
                "contract": "contracts/ClayBonds.sol:ClayBonds",
                "label": "_owner",
                "offset": 0,
                "slot": "5",
                "type": "t_address"
            },
            {
                "astId": 1001,
                "contract": "contracts/ClayBonds.sol:ClayBonds",
                "label": "clay",
                "offset": 0,
                "slot": "6",
                "type": "t_contract(IClayToken)1919"
            },
            {
                "astId": 1005,
                "contract": "contracts/ClayBonds.sol:ClayBonds",
                "label": "totalBondDeposits",
                "offset": 0,
                "slot": "7",
                "type": "t_uint256"
            }
        ],
        "types": {
            "t_address": {
                "encoding": "inplace",
                "label": "address",
                "numberOfBytes": "20"
            },
            "t_contract(IClayToken)1919": {
                "encoding": "inplace",
                "label": "contract IClayToken",
                "numberOfBytes": "20"
            },
            "t_mapping(t_address,t_mapping(t_address,t_uint256))": {
                "encoding": "mapping",
                "key": "t_address",
                "label": "mapping(address => mapping(address => uint256))",
                "numberOfBytes": "32",
                "value": "t_mapping(t_address,t_uint256)"
            },
            "t_mapping(t_address,t_uint256)": {
                "encoding": "mapping",
                "key": "t_address",
                "label": "mapping(address => uint256)",
                "numberOfBytes": "32",
                "value": "t_uint256"
            },
            "t_string_storage": {
                "encoding": "bytes",
                "label": "string",
                "numberOfBytes": "32"
            },
            "t_uint256": {
                "encoding": "inplace",
                "label": "uint256",
                "numberOfBytes": "32"
            }
        }
    }
}